:100000000C94D41B0D944B410D947C410D94AD4147
:100010000D94DE410D940F420D9440420D947142B7
:100020000D94A2420C94011C0C94011C0C94011C14
:100030000C94011C0C94011C0C94011C0C949AB996
:100040000C94011C0C94011C0C94011C0C94011CBC
:100050000C94011C0C94011C0C94011C0D94D342B3
:100060000C94011C0C94DB240C941B250C94011C97
:100070000C94011C0C94011C0C94011C0C94011C8C
:100080000C94011C0C94011C0C94011C0C94011C7C
:100090000C946D250C94AD250C94011C0C94F0D09F
:1000A0000C94011C0C94C7B90C94011C0C94011CF9
:1000B0000C94011C0C94011C0C94F4B90C94011CBC
:1000C0000C94011C0C94011C0C94011C0C94011C3C
:1000D0000C94011C0C94011C0C94FF250C943F26DD
:1000E0000C94011CF85C115D195D005D095D215DDA
:1000F000695D4C5D455D3D5D535D5A5D625D2E5DA4
:10010000365D815D705D915D975D9D5DB15DA35DC7
:10011000A95D036EDB363D9A9999993DABAAAA2A4F
:100120003E000000803F084AD73B3BCE016E84BCB6
:10013000BFFDC12F3D6C74319ABD56833DDA3D0041
:10014000C77F11BED9E4BB4C3E916BAAAABE00008A
:1001500000803F072C7AA5BA6CC590DA3B9365FC0A
:100160008BBC53F810FD3C5692834DBD879D3AB62B
:100170003DCBC9BF5BBE73DA0FC93F05A84CCDB2FA
:10018000D44EB93836A9020C50B9918688083CA6DD
:10019000AAAA2ABE000000803F08000000BE9224E8
:1001A00049123EABAAAA2ABECDCCCC4C3E000000E0
:1001B00080BEABAAAAAA3E00000000BF00000080DB
:1001C0003F0000000000084178D3BB4387D1133DB6
:1001D000190E3CC3BD4282AD2B3E68EC8276BED97F
:1001E0008FE1A93E4C80EFFFBE01C4FF7F3F0000BE
:1001F00000000002005241575F53454E530000007B
:100200000000000035000000000002014558545F66
:10021000535441540000000000000037000000006B
:1002200000020252435F4348414E000000000000BC
:10023000000039000000000002035241575F4354A0
:10024000524C000000000000003B000000000002D3
:1002500004504F534954494F4E0000000000000025
:100260003D00000000000205455854524131000095
:10027000000000000000003F0000000000020645F2
:1002800058545241320000000000000000004100BC
:10029000000000000207455854524133000000009E
:1002A000000000000043000000000002085041521E
:1002B000414D530000000000000000004500000018
:1002C000000000FF0000000000000000000000002F
:1002D00000000000000000000002464F524D415453
:1002E0005F56455253494F4E0000130A000000006C
:1002F0000153595349445F53575F545950450000C7
:1003000001150A000000000253595349445F544844
:1003100049534D4156000070160A0000803F0253B9
:10032000595349445F4D5947435300000000711829
:100330000A00007F430153455249414C335F42411B
:100340005544000000721A0A000064420154454CF2
:10035000454D5F44454C415900000000731B0A00A5
:10036000000000044B46465F50544348434F4D50F5
:10037000000000C81C0ACDCC4C3E044B46465F52E0
:100380004444524D495800000000C9200A000000B2
:100390003F044B46465F5054434832544852000095
:1003A00000CA240A00000000044B46465F5448522D
:1003B0003250544348000000CB280A0000000001DE
:1003C0004D414E55414C5F4C4556454C0000001682
:1003D000770A0000000001535449434B5F4D4958D0
:1003E000494E4700000019A90A0000803F015255FC
:1003F000444445525F53544545520000001EAA0A2A
:1004000000000000024C414E445F50495443485F95
:100410004344000017800A00000000044C414E4491
:100420005F464C4152455F414C54001B820A00001C
:100430004040044C414E445F464C4152455F534559
:1004400043001C860A00000040045854524B5F478A
:1004500041494E5F534300000096300A0000C842F5
:10046000025854524B5F414E474C455F4344000095
:1004700097340A00803B45015854524B5F55534511
:100480005F57494E4400009F360A0000803F0258E3
:1004900054524B5F4D494E5F4449535400001D3741
:1004A0000A0000484204414C545F4D495800000086
:1004B000000000000083390A0000803F01414C54D5
:1004C0005F4354524C5F414C470000007C3D0A00A2
:1004D00000000002414C545F4F4646534554000013
:1004E000000000206A0A0000000001434D445F54F0
:1004F0004F54414C000000000000DD3F0A000000A6
:100500000001434D445F494E44455800000000003F
:1005100000DE400A000000000257505F524144498B
:100520005553000000000000DF410A0000F04102C6
:1005300057505F4C4F495445525F5241440000E0D0
:10054000430A000070420146454E43455F41435413
:10055000494F4E000000E1450A00000000014645F9
:100560004E43455F544F54414C00000000E2460AA0
:10057000000000000146454E43455F4348414E4E52
:10058000454C0000E3470A000000000246454E4388
:10059000455F4D494E414C54000000E4480A0000BC
:1005A00000000246454E43455F4D4158414C5400C2
:1005B0000000E54A0A000000000241525350445F27
:1005C0004642575F4D494E0000784C0A0000C0403B
:1005D0000241525350445F4642575F4D415800001C
:1005E000794E0A0000B04101464257425F454C45F2
:1005F000565F52455600007B500A0000000001542F
:1006000048525F4D494E0000000000000000B55107
:100610000A00000000015448525F4D41580000009C
:100620000000000000B6520A0000964201544852F1
:100630005F534C455752415445000000BD530A00DA
:10064000000000015448525F535550505F4D414ED9
:10065000000000BE540A00000000015448525F46EA
:1006600041494C53414645000000B7550A000080FF
:100670003F025448525F46535F56414C5545000077
:1006800000B8560A00806D44015452494D5F5448E9
:10069000524F54544C450000B9580A0000344201EE
:1006A0005448524F54544C455F4E55444745001FE3
:1006B000590A0000803F0146535F53484F52545F30
:1006C0004143544E0000BA5A0A000000000146534C
:1006D0005F4C4F4E475F4143544E000000BB5B0AE6
:1006E000000000000146535F4743535F454E4142BF
:1006F0004C000000BC5C0A0000000001464C544D58
:100700004F44455F43480000000000D25D0A0000EE
:10071000004101464C544D4F44453100000000005B
:100720000000D35E0A0000304101464C544D4F4456
:10073000453200000000000000D45F0A0000304194
:1007400001464C544D4F444533000000000000006A
:10075000D5600A0000004001464C544D4F444534DA
:1007600000000000000000D6610A000000400146C1
:100770004C544D4F44453500000000000000D76246
:100780000A0000000001464C544D4F44453600001D
:100790000000000000D8630A00000000024C494D30
:1007A0005F524F4C4C5F43440000000098640A00C5
:1007B000A08C45024C494D5F50495443485F4D4120
:1007C00058000099660A0080BB44024C494D5F50B6
:1007D000495443485F4D494E00009A680A00401C46
:1007E000C5015452494D5F4155544F00000000006F
:1007F000000A6C0A0000000001454C45564F4E5F50
:100800004D4958494E4700000D6D0A000000000197
:10081000454C45564F4E5F52455645525345000E86
:100820006E0A0000000001454C45564F4E5F43489C
:10083000315F524556000F6F0A0000000001454C21
:1008400045564F4E5F4348325F5245560010700A7E
:1008500000000000025359535F4E554D5F524553FF
:100860004554530002710A00000000024C4F475FDC
:100870004249544D41534B000000000B730A0000E5
:10088000A743015253545F5357495443485F434869
:10089000000015750A00000000015253545F4D49D5
:1008A0005353494F4E5F4348001A760A0000000038
:1008B000035452494D5F41525350445F434D000031
:1008C0009B780A00009644045343414C494E475FCD
:1008D00053504545440000CC2C0A00007041034DA4
:1008E000494E5F474E445350445F434D00009E8A3B
:1008F0000A00000000025452494D5F5049544348D9
:100900005F434400000C8E0A0000000003414C5479
:100910005F484F4C445F52544C0000009C7C0A00DE
:10092000401C4602414C545F484F4C445F4642577E
:10093000434D007A900A00000000014D41475F4599
:100940004E41424C45000000000084920A000080A5
:100950003F01464C41505F315F504552434E540079
:100960000011940A0000000001464C41505F315FC5
:10097000535045454400000012950A000000000154
:10098000464C41505F325F504552434E5400001375
:10099000960A0000000001464C41505F325F535000
:1009A00045454400000014970A0000000001424140
:1009B00054545F4D4F4E49544F5200000086930AE5
:1009C0000000000004564F4C545F444956494445CA
:1009D0005200000087980A0AD7634004414D505FD7
:1009E0005045525F564F4C54000000889C0A5C8F63
:1009F000DA4104494E5055545F564F4C5453000051
:100A0000000089A00A8FC2954003424154545F43BD
:100A10004150414349545900008AA40A0000DC4473
:100A200001494E564552544544464C545F43480094
:100A30009DA80A0000000008474E445F0000000027
:100A4000000000000000008D240DEC27000008438A
:100A5000414D5F0000000000000000000000A0AB5E
:100A60000A232B0000085243315F00000000000001
:100A70000000000000AAB70A542A000008524332BE
:100A80005F0000000000000000000000ABD90A5425
:100A90002A0000085243335F0000000000000000FD
:100AA000000000ACFB0A542A0000085243345F00E7
:100AB00000000000000000000000AD1D0B542A00E3
:100AC00000085243355F00000000000000000000F5
:100AD00000AE3F0BDE2A0000085243365F000000E4
:100AE0000000000000000000AF620BDE2A000008DA
:100AF0005243375F0000000000000000000000B01B
:100B0000850BDE2A0000085243385F000000000019
:100B1000000000000000B1A80BDE2A0000085243CC
:100B2000395F0000000000000000000000B2CB0BA5
:100B3000DE2A000008524331305F00000000000050
:100B400000000000B3EE0BDE2A00000852433131F2
:100B50005F00000000000000000000B4110CDE2A5D
:100B600000000848444E4732524C4C5F00000000E1
:100B70000000F08E0CE12900000841525350325021
:100B80005443485F0000000000F3AC0CE129000072
:100B900008454E524759325448525F000000000049
:100BA000F5CA0CE129000008414C54325054434826
:100BB0005F000000000000F6E80CE1290000085783
:100BC0004845454C53544545525F00000000F70628
:100BD0000DE129000008524C4C325352565F000080
:100BE0000000000000F1340CE129000008505443DB
:100BF00048325352565F000000000000F2520CE1F0
:100C0000290000085957325352565F000000000077
:100C1000000000F4700CE129000008434F4D5041E2
:100C200053535F0000000000000085A00D31280034
:100C300000085352305F0000000000000000000078
:100C4000006EE008F3010000085352335F0000001B
:100C500000000000000000006F3109F301000008EF
:100C6000494D555F000000000000000000000082B8
:100C70005707FB28000008414852535F000000005E
:100C80000000000000008C9207402900000841523B
:100C90005350445F0000000000000000008E8C09EB
:100CA000512B0000084D4E545F0000000000000072
:100CB00000000000A1A409C42B00000000000000F7
:100CC0000000000000000000000000000000000024
:100CD00000004C6F670064756D700000000000003C
:100CE000000000006045657261736500000000004F
:100CF00000000000AA6A656E61626C650000000079
:100D0000000000004E3D64697361626C6500000084
:100D1000000000004E3D706C616E6E65720067638E
:100D2000730000000000000000000000FF847365F5
:100D30007475700072657365740000000000000037
:100D40000000173D726164696F0000000000000040
:100D500000001D646D6F64657300000000000000FA
:100D60000000A2636C6576656C0000000000000066
:100D70000000E476636F6D70617373000000000023
:100D80000000963C6465636C696E6174696F6E0007
:100D90000000813C6261747465727900000000009B
:100DA00000004D3C73686F770000000000000000F9
:100DB0000000213C657261736500000000000000C6
:100DC00000002F3541726475506C616E652056329B
:100DD0002E3635006C6F67730000000000000000C5
:100DE00000001B3C7365747570000000000000007B
:100DF0000000033C746573740000000000000000F4
:100E00000000EB3B68656C70000000000000000013
:100E10000000FE29706C616E6E65720000000000BB
:100E20000000D33B746573740070776D00000000A0
:100E3000000000000000003163726164696F00000F
:100E400000000000000000AD62706173737468728E
:100E5000750000000000008E3B6661696C7361667E
:100E600065000000000000B9616261747465727908
:100E700000000000000000C36072656C6179000032
:100E800000000000000000B538776179706F696E6E
:100E900074730000000000A03778626565000000F0
:100EA000000000000000009435656564756D7000F9
:100EB00000000000000000C6326D6F646573776942
:100EC00074636800000000913667707300000000D2
:100ED00000000000000000C6357261776770730083
:100EE000000000000000005535696D75000000002D
:100EF00000000000000000292D61697273706565B3
:100F000064000000000000F269616972707265732C
:100F1000737572650000001F69636F6D7061737394
:100F2000000000000000001F2F6C6F6767696E678C
:100F300000000000000000742C466F726D61742088
:100F400076657273696F6E3A20256C78202045783B
:100F500070656374656420666F726D617420766578
:100F60007273696F6E3A20256C780A004E756D5069
:100F7000616765733A202575202050616765536964
:100F80007A653A2025750A004D616E756661637455
:100F9000757265723A2030782530327820202044EE
:100FA00065766963653A203078253034780A0045E3
:100FB00052523A204E6F2064617461666C617368AE
:100FC00020696E7365727465640054657374696E2C
:100FD000672064617461666C617368206C6F676719
:100FE000696E6700736176696E67206F6666736508
:100FF000747300636F6D70617373206E6F7420681B
:1010000065616C7468790048656164696E673A204F
:10101000256C642C2058595A3A2025642C202564CC
:101020002C2025642C0958595A6F66663A202536BB
:101030002E32662C2025362E32662C2025362E3276
:10104000660A00436F6D7061737320696E6974691D
:10105000616C69736174696F6E206661696C656447
:101060002100436F6D706173733A200061626C659B
:10107000640A0064697300656E004D6167206F66E5
:1010800066736574733A2025342E34662C2025341B
:101090002E34662C2025342E34660A004D616720DC
:1010A0004465636C696E6174696F6E3A2025342EF5
:1010B00034660A003F3F0048494C00484D433538EC
:1010C000343300484D43353838334C00436F6D702E
:1010D0006173733A20002D0048697420456E746571
:1010E0007220746F20657869742E0A0A00416C744E
:1010F0003A2025302E32666D2C205261773A202519
:101100006C642054656D70657261747572653A2007
:10111000252E31660A006E6F74206865616C7468F4
:101120007900556E63616C696272617465642072E6
:10113000656C61746976652061697270726573733C
:101140007572650A006261726F6D65746572206305
:10115000616C6962726174696F6E20636F6D706C2F
:1011600065746500496E697469616C6973696E675D
:101170002041504D2E2E2E00496E76616C69642000
:1011800053455249414C335F4241554400252E316D
:1011900066206D2F730A0061697273706565643A29
:1011A000200061697273706565643A20006169723C
:1011B00073706565645F63683A20252E31660A00A6
:1011C0007A65726F2061697273706565642063610E
:1011D0006C6962726174656400723A25346420201F
:1011E000703A2534642020793A2533642020673D05
:1011F0002825352E31662025352E31662025352EC1
:101200003166292020613D2825352E31662025357F
:101210002E31662025352E3166290A002E004C61BC
:10122000743A20256C642C204C6F6E20256C642C45
:1012300020416C743A20256C646D2C2023736174FA
:10124000733A2025640A00506F736974696F6E20C9
:1012500025640A00436F6E74726F6C20434820004F
:10126000202530327800253034783A0042656769AD
:101270006E205842656520582D4354552052616EAA
:10128000676520616E64205253534920546573741E
:101290003A0A004C6F6974657220726164697573F3
:1012A0003A2025640A0A00486974207261646975ED
:1012B000733A2025640A00256420776179706F698C
:1012C0006E74730A00486F6C6420616C7469747585
:1012D0006465206F662025646D0A00486F6C642089
:1012E00063757272656E7420616C7469747564657F
:1012F0000A00636F6D6D616E6420233A20256420BF
:1013000069643A2564206F7074696F6E733A25645E
:101310002070313A25642070323A256C6420703395
:101320003A256C642070343A256C64200A005265BA
:101330006C6179206F66660A0052656C6179206F76
:101340006E0A004E6F7420656E61626C65640A00FF
:10135000563A2025342E34662C20413A2025342E4E
:1013600034662C206D41683A2025342E34660A00FC
:10137000563A2025342E34660A004D5347204653F2
:10138000204F4646202575004D5347204653204F99
:101390004E202575004C4F532063617573656420A2
:1013A0006E6F206368616E676520696E2041504DE5
:1013B0002E0A005448524F54544C45204641494C43
:1013C00053414645204143544956415445443A20EF
:1013D00025642C2000434F4E54524F4C204D4F4417
:1013E00045204348414E4745443A20005448524F17
:1013F00054544C45204348414E47454420256420E1
:101400000A00556E706C756720626174746572793C
:101410002C207468726F74746C6520696E206E6520
:10142000757472616C2C207475726E206F66662004
:10143000726164696F2E0A002D2D2D004C6F697446
:1014400065720052544C004155544F004642575F5C
:1014500042004642575F410053746162696C697A89
:101460006500436972636C65004D616E75616C0067
:1014700043483A002C00494E20313A202564093275
:101480003A20256409333A20256409343A2025643A
:1014900009353A20256409363A20256409373A206F
:1014A000256409383A2025640A00494E3A09313A40
:1014B00020256409323A20256409333A202564093D
:1014C000343A20256409353A20256409363A202526
:1014D0006409373A20256409383A2025640A005007
:1014E0006C616E6E6572204D6F64650A0A5468699E
:1014F00073206D6F6465206973206E6F7420696E50
:1015000074656E64656420666F72206D616E7561CE
:101510006C207573650A0A00436F6D6D616E6473AC
:101520003A0A20206C6F6773202020202020202082
:101530006C6F6720726561646261636B2F736574A1
:101540007570206D6F64650A202073657475702056
:101550002020202020207365747570206D6F6465D5
:101560000A202074657374202020202020202074FD
:10157000657374206D6F64650A0A4D6F766520741B
:10158000686520736C69646520737769746368208B
:10159000616E6420726573657420746F20464C59C7
:1015A0002E0A0A0054657374204D6F64650A0A00A0
:1015B0005365747570204D6F64650A0A494D504F2C
:1015C0005254414E543A20696620796F7520686103
:1015D0007665206E6F742070726576696F75736CB6
:1015E00079207365742074686973207379737465E6
:1015F0006D2075702C20757365207468650A2772DC
:10160000657365742720636F6D6D616E6420746F00
:1016100020696E697469616C697A652074686520F7
:10162000454550524F4D20746F2073656E7369624B
:101630006C652064656661756C742076616C756597
:10164000730A616E64207468656E20746865202773
:10165000726164696F2720636F6D6D616E642074C1
:101660006F20636F6E66696775726520666F7220A2
:10167000796F757220726164696F2E0A0A000A54CC
:101680007970652027592720616E6420686974206D
:10169000456E74657220746F206572617365206198
:1016A0006C6C20776179706F696E7420616E642054
:1016B000706172616D6574657220646174612C2063
:1016C000616E79206F74686572206B657920746F24
:1016D0002061626F72743A2000646F6E650A000ABE
:1016E00045726173696E6720454550524F4D0A003F
:1016F0005261772056616C7565730A0052616469A6
:101700006F0A004348383A202564207C2025642055
:101710007C2025640A004348373A202564207C2039
:101720002564207C2025640A004348363A2025643D
:10173000207C202564207C2025640A004348353A1B
:10174000202564207C202564207C2025640A004319
:1017500048343A202564207C202564207C202564A0
:101760000A004348333A202564207C202564207CED
:101770002025640A004348323A202564207C202535
:1017800064207C2025640A004348313A20256420E7
:101790007C202564207C2025640A004D6F6E6974CE
:1017A0006F72696E6720766F6C747320616E64204F
:1017B00063757272656E74004D6F6E69746F7269D5
:1017C0006E67206261747420766F6C74730042617E
:1017D0007474206D6F6E69746F72696E67206469CE
:1017E0007361626C65640042617474204D6F696E50
:1017F000746F720A006E617620706974636820618C
:101800006C743A0A00656E6572677279207468724A
:101810006F74746C653A0A006E6176207069746347
:10182000682061697273706565643A0A006E61765A
:1018300020726F6C6C3A0A00736572766F20727555
:10184000646465723A0A00736572766F2070697419
:1018500063683A0A00736572766F20726F6C6C3A37
:101860000A004761696E730A00503A2025342E330E
:10187000662C20493A25342E33662C20443A2534F0
:101880002E33662C20494D41583A256C640A005885
:10189000545241434B3A2025342E32660A58545252
:1018A00041434B20616E676C653A2025640A004312
:1018B000726F7373747261636B0A006D696E3A20A4
:1018C00025640A6D61783A2025640A63727569732C
:1018D000653A2025640A6661696C736166655F65B7
:1018E0006E61626C65643A2025640A6661696C7396
:1018F0006166655F76616C75653A2025640A0054FF
:1019000068726F74746C650A00466C69676874204D
:101910006D6F6465730A00506F732025643A200070
:10192000494D550A004779726F206F66667365747A
:10193000733A2025342E32662C2025342E32662C24
:101940002025342E32660A00416363656C206F6681
:1019500066736574733A2025342E32662C20253444
:101960002E32662C2025342E32660A000A4F7074FF
:10197000696F6E733A20332D34000A4F7074696FAB
:101980006E733A5B6F6E2C6F66662C72657365744E
:101990005D0A007265736574006F666600436F6D63
:1019A0007061737320696E697469616C69736174C5
:1019B000696F6E206661696C656421006F6E004E10
:1019C0004F20616972737065656400426567696E76
:1019D0006E696E6720494D552063616C6962726162
:1019E00074696F6E3B20646F206E6F74206D6F762C
:1019F0006520706C616E65005761726D696E67205D
:101A00007570204144432E2E2E0044656D6F205387
:101A10006572766F7321000A4D6F76652052432000
:101A2000746F67676C652073776974636820746F7F
:101A3000206561636820706F736974696F6E2074CC
:101A40006F20656469742C206D6F76652061696C08
:101A500065726F6E20737469636B20746F20736599
:101A60006C656374206D6F6465732E000A53617634
:101A700065642053657474696E67730A0A000A4DC1
:101A80006F766520616C6C20636F6E74726F6C731F
:101A900020746F20656163682065787472656D6578
:101AA0002E2048697420456E74657220746F20730F
:101AB0006176653A200A000A4E6F20726164696F90
:101AC0003B20436865636B20636F6E6E6563746F64
:101AD00072732E000A0A526164696F20536574752F
:101AE000703A0A000A464143544F52592052455316
:101AF000455420636F6D706C657465202D20706C8B
:101B0000656173652072657365742041504D207462
:101B10006F20636F6E74696E7565000A5479706525
:101B20002027592720616E642068697420456E74EF
:101B3000657220746F20706572666F726D206661C9
:101B400063746F72792072657365742C20616E798D
:101B5000206F74686572206B657920746F206162F4
:101B60006F72743A2000656E61626C650043555275
:101B700000434D4400524157004D4F4445004E54E0
:101B8000554E004354554E00504D004750530041B0
:101B9000545449545544455F4D45440041545449BB
:101BA000545544455F4641535400616C6C006D6967
:101BB0007373696E67206C6F6720747970650A00B3
:101BC0004C6F6720657261736520636F6D706C6523
:101BD00074650045726173696E67206C6F6773008E
:101BE000446F6E650A0044756D70696E67204C6FB6
:101BF000672025642C20202020737461727420706B
:101C0000672025642C202020656E642070672025C5
:101C1000640A00626164206C6F67206E756D626596
:101C2000720A0064756D70696E6720616C6C0A00E1
:101C300025640A0025642C0900444620706167650C
:101C40002C206C6F672066696C6520232C206C6FDC
:101C50006720706167653A2025642C09004E756D18
:101C6000626572206F66207061636B6574732072A9
:101C70006561643A2025640A000A41726475506CFB
:101C8000616E652056322E36350A467265652052E1
:101C9000414D3A2025750A004572726F72205265D7
:101CA0006164696E6720454E445F425954453A204D
:101CB00025640A004572726F722052656164696E14
:101CC00067205061636B65743A2025640A004154B3
:101CD000543A2025642C2025642C2025750A004DBB
:101CE0004F443A004354554E3A004E54554E3A2014
:101CF00025342E34662C2025642C2025342E346681
:101D00002C2025342E34662C2025342E34662C20AD
:101D100025342E34662C2025342E34662C0A0050AF
:101D20004D3A005241573A00434D443A0043555210
:101D3000523A2025642C2025342E34662C2025345C
:101D40002E34662C2025640A0020256420636F6DE4
:101D50006D616E647320696E206D656D6F72790AB6
:101D600000554E4B4E4F574E2053544152545550F0
:101D7000202D200047524F554E4420535441525479
:101D8000202D2000414952205354415254202D20EF
:101D9000004750533A20256C642C2025642C2025C4
:101DA000642C2025342E37662C2025342E37662CC3
:101DB0002025642C2025342E34662C2025342E3406
:101DC000662C2025342E34662C2025342E34660AC9
:101DD000004C6F672025642C2020202073746172D2
:101DE000742025642C202020656E642025640A0060
:101DF0000A2564206C6F67730A000A4E6F206C6FAF
:101E000067730A0A004355520020255300434D448E
:101E1000002025530052415700202553004D4F44C8
:101E20004500202553004E54554E002025530043B5
:101E300054554E0020255300504D00202553004797
:101E40005053002025530041545449545544455F94
:101E50004D454400202553004154544954554445B0
:101E60005F4641535400202553006E6F6E65006C31
:101E70006F677320656E61626C65643A200052651D
:101E80006365697665642052657175657374202D8C
:101E9000206A756D7020746F20636F6D6D616E6464
:101EA0002023256900426164205265717565737451
:101EB000202D2063616E6E6F74206368616E6765AC
:101EC00020746F206E6F6E2D4E617620636D6400FE
:101ED00052656365697665642052657175657374D2
:101EE000202D207265736574206D697373696F6E40
:101EF00000283229204E6F6E2D4E617620636F6D63
:101F00006D616E642049442075706461746564205D
:101F1000746F20232569206964783D2575004E6F14
:101F20006E2D4E617620636F6D6D616E6420494445
:101F3000207570646174656420746F2023256920A6
:101F40006964783D2575006F7574206F6620636F36
:101F50006D6D616E647321004E617620636F6D6DEF
:101F6000616E6420696E6465782075706461746563
:101F70006420746F202325690052657475726E6940
:101F80006E6720746F20486F6D65004578656375D6
:101F900074696E67206E617620636F6D6D616E642B
:101FA0002049442023256900526573657474696E65
:101FB0006720707265765F57500045786563757469
:101FC000696E6720636F6D6D616E642049442023E4
:101FD000256900444F5F5345545F524F49206E6F4F
:101FE0007420737570706F727465640045786563F2
:101FF0007574696E6720636F6D6D616E642049440E
:10200000202325690073657474696E6720636F6DA2
:102010006D616E6420696E6465783A202569004AB6
:10202000756D7020746F2057502025752E204A75CD
:102030006D7073206C6566743A20256400536B697B
:102040007070696E6720696E76616C6964206A756C
:102050006D7020746F202569004A756D7073206C57
:102060006566743A2030202D20736B697070696E3C
:102070006700536574207468726F74746C652025F2
:1020800075005365742067726F756E647370656553
:1020900064202575005365742061697273706565ED
:1020A00064202575206D2F730067707320616C7438
:1020B0003A20256C7500696E697420686F6D650043
:1020C0006261642066656E636520706F696E74007E
:1020D0006261642066656E636520706F696E74006E
:1020E00066656E63696E67206D7573742062652026
:1020F00064697361626C656400666C69676874200A
:10210000706C616E20726563656976656400666CEB
:102110006967687420706C616E20757064617465A5
:102120002072656A656374656400556E6B6E6F77C7
:102130006E20706172616D65746572202F25730069
:10214000556E6B6E6F776E20706172616D65746530
:102150007220696E64657820256400636F6D6D611F
:102160006E642072656365697665643A2000524545
:10217000424F4F54494E4700666C69676874206D42
:102180006F6465203D202575004661696C7361664A
:1021900065202D2053686F7274206576656E7420FB
:1021A0006F6E2C20004661696C73616665202D207E
:1021B00053686F7274206576656E74206F66660072
:1021C00067656F2D66656E63652074726967676504
:1021D0007265640067656F2D66656E6365204F4BA1
:1021E0000067656F2D66656E636520736574757035
:1021F000206572726F720067656F2D66656E63652C
:10220000206C6F61646564005750206572726F7254
:10221000202D2064697374616E6365203C2030005A
:102220007665726966795F6E61763A20496E76618D
:102230006C6964206F72206E6F2063757272656EB8
:1022400074204E617620636D6400486F6C64696E23
:102250006720636F7572736520256C64004C616E36
:102260006420436F6D706C657465202D20486F6C21
:102270006420636F7572736520256C640050617310
:1022800073656420576179706F696E7420232569C6
:1022900020646973742025756D004D6973736564DE
:1022A00020575000526561636865642057617970FA
:1022B0006F696E7420232569206469737420257505
:1022C0006D007665726966795F6E61763A204C4F73
:1022D00049544552206F726269747320636F6D7048
:1022E0006C657465007665726966795F6E61763AD1
:1022F000204C4F495445522074696D6520636F6DC1
:10230000706C657465005265616368656420686F10
:102310006D65007665726966795F636F6E64697476
:102320006F6E3A20496E76616C6964206F72206E20
:102330006F2063757272656E7420436F6E6469748A
:10234000696F6E20636D6400666C69676874206DE8
:102350006F6465203D202575004661696C73616678
:1023600065202D204C6F6E67206576656E74206F3A
:102370006E2C20000A507265737320454E544552EE
:1023800020332074696D657320746F2073746172DB
:102390007420696E74657261637469766520736513
:1023A0007475700A0A00436F6D7061737320696EF3
:1023B000697469616C69736174696F6E20666169C3
:1023C0006C6564210045524153494E47204C4F47AC
:1023D00053004E6F2064617461666C6173682063A2
:1023E00061726420696E736572746564000A0A49DB
:1023F0006E69742041726475506C616E652056324E
:102400002E36350A0A467265652052414D3A20251E
:10241000750A006C6F61645F616C6C20746F6F6B28
:1024200020256C7575730A00646F6E652E00466911
:10243000726D77617265206368616E67653A2065C9
:10244000726173696E6720454550524F4D2E2E2E96
:102450000A000A0A20526561647920746F20464C94
:10246000592E003C737461727475705F67726F757A
:102470006E643E2047524F554E44205354415254AF
:102480000000407A10F35A00A0724E18090010A5FF
:10249000D4E80000E87648170000E40B540200007E
:1024A000CA9A3B000000E1F5050000809698000004
:1024B0000040420F000000A086010000001027002D
:1024C000000000E803000000006400000000000AB3
:1024D00000000000000100000000002C76D888DC1D
:1024E000674F0823DFC1DFAE59E1B1B796E5E3E4FA
:1024F00053C63AE651997696E8E6C28426EB898C73
:102500009B62ED407C6FFCEFBC9C9F40F2BAA56FD4
:10251000A5F490055A2AF75C936B6CF9676DC11BA3
:10252000FCE0E40D47FEF520E6B500D0ED902E036B
:1025300000943577050080841E080000204E0A00B4
:102540000000C80C333333330F986E12831141EF00
:102550008D2114893BE65516CFFEE6DB18D1844B5E
:10256000381BF77C1D901DA4BBE424203284725ECE
:10257000228100C9F124ECA1E53D276E616E00695E
:102580006E660025733A2025660A0025733A2025D9
:102590006C640A0025733A2025640A0025733A20EA
:1025A00025640A00657869740068656C70002450C1
:1025B00047434D442C31362C302C302C302C302CD1
:1025C000302A36410D0A0024505352463130302C07
:1025D000302C33383430302C382C312C302A3343E3
:1025E00000204E4D454120002053495246200020F6
:1025F0004D544B2000204D544B3136200020756245
:102600006C6F7820000096000000E100008025003B
:1026100000C01200004F4B0024505352463130335B
:102620002C302C302C312C312A32350D0A245053C9
:1026300052463130332C312C302C302C312A32356B
:102640000D0A24505352463130332C322C302C306A
:102650002C312A32360D0A24505352463130332C55
:10266000332C302C302C312A32370D0A245053525F
:10267000463130332C342C302C312C312A32300D71
:102680000A24505352463130332C352C302C312C07
:10269000312A32300D0A24505352463130332C3611
:1026A0002C302C302C312A32320D0A245053524611
:1026B0003130332C382C302C302C312A32430D0A57
:1026C00024505352463135312C312A33460D0A24D9
:1026D000505352463130362C32312A30460D0A00E2
:1026E00024504D544B3331342C302C302C312C3180
:1026F0002C302C302C302C302C302C302C302C30FA
:102700002C302C302C302C302C302A32380D0A242E
:10271000504D544B3333302C302A32450D0A24505F
:102720004D544B3331332C312A32450D0A24504D50
:10273000544B3330312C322A32450D0A0024505587
:1027400042582C34302C6767612C302C312C302CC3
:10275000302C302C302A37420D0A24505542582C48
:1027600034302C7674672C302C312C302C302C30BB
:102770002C302A37460D0A24505542582C34302C20
:10278000726D632C302C302C302C302C302C302AB5
:1027900036370D0A004750524D43004750474741D6
:1027A0000047505654470024505542582C34312C81
:1027B000312C303030332C303030312C3338343011
:1027C000302C302A32360AB56206010300010601B8
:1027D000124F004D41585F50494E5F534F55524381
:1027E000455320524541434845440A0004024142B2
:1027F000535F50524553530000000000000C00008E
:10280000000000040354454D50000000000000008B
:102810000000000008000000000000FF00000000B1
:1028200000000000000000000000000000000000A8
:102830000005014F465300000000000000000000AA
:1028400000001100000000000402444543000000A5
:102850000000000000000000001D0000000000015A
:10286000034C4541524E00000000000000000000F3
:1028700021000000803F0104555345000000000086
:102880000000000000000022000000803F01054120
:1028900055544F4445430000000000000000230051
:1028A0000000803F00FF000000000000000000006A
:1028B000000000000000000000000020002A004985
:1028C0006E697420416363656C000A6779726F20DA
:1028D000646964206E6F7420636F6E7665726765DD
:1028E0003A20646966663D2566206470730A002A92
:1028F00000496E6974204779726F00060043414CAD
:1029000000000000000000000000000003000000C4
:102910000000020150524F445543545F49440000A7
:1029200000000037000000000000FF000000000071
:102930000000000000000000000000000000000097
:1029400004024750535F4741494E00000000000019
:102950000024000000803F01034750535F5553455A
:10296000000000000000000028000000803F040478
:102970005941575F50000000000000000000001C9B
:1029800000CDCCCC3E040552505F5000000000004A
:102990000000000000002000CDCCCC3E01065749CD
:1029A0004E445F4D4158000000000000002A000026
:1029B00000000001074241524F5F5553450000009F
:1029C0000000000029000000000000FF00000000DF
:1029D00000000000000000000000000000000000F7
:1029E0000004005000000000000000000000000093
:1029F0000000000000000000040149000000000089
:102A000000000000000000000004000000000004BE
:102A10000244000000000000000000000000000070
:102A20000800000000000203494D4158000000006A
:102A3000000000000000000C000000000000FF008B
:102A40000000000000000000000000000000000086
:102A50000000000002004D494E0000000000000090
:102A600000000000000A000080894402015452491D
:102A70004D00000000000000000000000C0000807D
:102A8000BB4402024D41580000000000000000005D
:102A90000000000E000080ED440103524556000086
:102AA0000000000000000000000015000000803F52
:102AB0000204445A00000000000000000000000072
:102AC0000016000000000000FF00000000000000F1
:102AD00000000000000000000000000000000800EE
:102AE00000000000000000000000000000000000E6
:102AF00000542A0000010146554E4354494F4E00F0
:102B000000000000000022000000000000FF0000A4
:102B100000000000000000000000000000000000B5
:102B2000000000010054524947475F545950450086
:102B3000000000000B000000000000FF000000008B
:102B40000000000000000000000000000000000085
:102B5000000100454E41424C4500000000000000CD
:102B600000000B000000803F0101555345000000AC
:102B70000000000000000000000A00000000000447
:102B8000024F46465345540000000000000000007C
:102B90000200000000000403524154494F000000AD
:102BA000000000000000000600492EFF3F00FF006B
:102BB0000000000000000000000000000000000015
:102BC0000000000001004D4F4445000000000000DF
:102BD00000000000003600000000000501524554CE
:102BE0005241435400000000000000004700000074
:102BF000000005024E45555452414C0000000000B3
:102C00000000005300000000000503434F4E5452E3
:102C10004F4C00000000000000005F0000000000BA
:102C20000104535441425F524F4C4C0000000000DD
:102C3000003300000000000105535441425F544935
:102C40004C540000000000003400000000000106A9
:102C5000535441425F50414E0000000000000035D7
:102C60000000000000010752435F494E5F524F4C85
:102C70004C00000000003700000000000208414E38
:102C8000474D494E5F524F4C00000000003A000093
:102C9000A08CC50209414E474D41585F524F4C0030
:102CA000000000003C0000A08C45010A52435F492F
:102CB0004E5F54494C5400000000003800000000F2
:102CC00000020B414E474D494E5F54494C000000F5
:102CD00000003E0000A08CC5020C414E474D4158FB
:102CE0005F54494C0000000000400000A08C4501EA
:102CF0000D52435F494E5F50414E000000000000FE
:102D0000390000000000020E414E474D494E5F5011
:102D1000414E0000000000420000A08CC5020F419F
:102D20004E474D41585F50414E00000000004400A6
:102D300000A08C4501104A535449434B5F53504403
:102D4000000000000046000000000000FF0000003E
:102D50000000000000000000000000000000000073
:102D6000000096918C87827D78736E69645F5A55F6
:102D7000504B46413C37322D28231E19140F0A05AB
:102D80000004090E13181D22272C31363B40454AFA
:102D90004F54595E63686D72777C81868B90959AEB
:102DA0009FA4A9AEB3AFAAA5A09B968F89837E7876
:102DB000736E69645F5A55504B47423E3935302C2B
:102DC00027231F1B16120E09050103070B101419E8
:102DD0001D22262B2F34393D42474C51565B6065EE
:102DE0006B70757B80868C92979DA3A9AFB2ACA6C1
:102DF000A09A948F827C76706B65605C57524E4AC5
:102E000046413D3936322E2A26221F1B1713100C3D
:102E100008040102060A0E12161A1E22262B2F3350
:102E2000383D41464B4F54595E64696F747A8087D0
:102E30008D949BA2AAB1AEA69F979089826F68637A
:102E40005E5955514D4946423F3C3835322E2B286C
:102E500024211E1A1714100D0A0603000306090D7B
:102E60001014181C2024282C3034393D41464A4F78
:102E700054585D62676D737980878F98A2ACB0A556
:102E80009A90867D766F55514D4A4744413F3C3A72
:102E9000383533312E2B292623201D1A1713100DF8
:102EA0000A070401010306090D1013171A1E222632
:102EB0002A2E32363A3E42464A4E53575B5F646989
:102EC0006E757C85909FB2A08D7D7067605A553E6F
:102ED0003C3A393736343332302F2E2C2A292724E6
:102EE000221F1C191613100D0A07040200030508FF
:102EF0000A0D1013161A1D2125292D3135383C4095
:102F000043464A4D505356595B5E6165696F826D09
:102F1000544D4A474442403E2E2E2D2C2C2B2A2A1B
:102F20002929282726252423211F1C1A1714100DB0
:102F30000A07040101030507090C0E1013161A1DD8
:102F40002124282C3033373A3D40424447484A4AEE
:102F50004B4A48443D3019021621282B2D2E2F2E86
:102F60002E06090C0F121517191B1C1B1811040E25
:102F70002231383C3C3C3A3835322F2B2824201C57
:102F80001915110D09050102060A0E1115181C1F4D
:102F9000222527292A2B2B2926211911080004086C
:102FA0000A0A0A0807040200030616181A1C1E2043
:102FB000211F1712516063625F5D5956524E4A4697
:102FC000423E3935312C2824201B17130E0A0601E6
:102FD00002060A0F13171B1F23262A2D31343739F7
:102FE0003C3D3F3F3E3D39352F28211C171513131B
:102FF000131416A8ADB2B0ABA6A19C97928D88838E
:103000007E79746F6A65605B56514C47423D383338
:103010002E29241F1A15100B060103080D12171C68
:1030200021262B30353A3F44494E53585D62676C38
:1030300071767B80858A8F94999EA3A800000001F9
:10304000FFFFE000000000000001FFFFF0000000B3
:1030500000000001FFFFF800000000000001FFFF7A
:10306000FE00000000000003FFFFFF000000000062
:103070000003FFFFFFF000000000000FFFFFFFFE56
:1030800000000003FFFFFC000007FC00007FFFFFC3
:10309000FC000000000000001FFFFE000000000018
:1030A000241E191512100E0C0B0A0909090808082C
:1030B00007060605040404030404040000000000DD
:1030C000000000000027262123252325242722296C
:1030D0002A2A1C27282B33322725222C333130373C
:1030E000000000000000000000008011401140714D
:1030F00032733433321312113211129334131453C6
:1031000052310021030406080B2D0A0907050402A9
:1031100041C011C051125354731211125152731401
:103120007332310021020405060708090806070664
:103130002403020102000120012011C0011100310D
:1031400032137413143312F112D3125100010223FB
:1031500025060746442342210001E0A0313213B482
:1031600033111211001120110052331213321120A9
:1031700001222485042304020342410001E0A051FE
:103180001214131513153413325140012011521328
:103190003231000122230405040504230103826166
:1031A0002001E011801132135415143332314021C3
:1031B0000201003172314102234423020122012223
:1031C0000102614001A0118051121413341514330F
:1031D000123140010201030201205211122021226A
:1031E00043042241022102A10001E0201140515379
:1031F0007413321140210203020302010011121163
:103200003200114122232221004102A180016011DC
:103210006011001132337413121140016203020372
:1032200021311211121140010201020302010001B9
:1032300000E121E0A011201211733433312001622A
:10324000036240121112110011010001020122005B
:1032500001200100E1C001001180110012111312C0
:10326000141334522001E202212031121100110006
:103270000100210201000140210002410001E06043
:1032800011401112111312141314133211002122C0
:10329000034201022100010011001211001120015E
:1032A0000041600100C10001401120016011405146
:1032B00012131213143312310001420322010221AE
:1032C0000001401100310011000100010001A0E1E6
:1032D0000001A00180112031529312110021C2215E
:1032E000002140310011201100010001E0E16001E6
:1032F000E011001172731231002142030102010238
:1033000020214011001120116001401160010001D5
:10331000022102000120014001A051321312533258
:10332000112001020182210021000100110031E081
:1033300000110011602100010201020101002120A1
:1033400001000160110011521312141352110041B7
:1033500082010200010021401100110011A01100A2
:1033600031001120812201010002010021000160D1
:103370001100521312131413323101000201220101
:103380004201002100010001112011001120114013
:1033900071001140010221020102010021022100FD
:1033A00001000100110012111233123413321120E6
:1033B00001020142012201004100016011201100BF
:1033C000110011005112312061020122020002019C
:1033D00002812011001211733413321100410201D5
:1033E0008201006100018011001100913231402101
:1033F0004201020200626140115214135433310041
:10340000418201220001020041000160911211522B
:103410005120012201030102020082610051335454
:1034200015143331002102012203424102A18031EF
:1034300092133231004122030201030022032201D0
:10344000020140111233953331010022010342037E
:1034500022212201026100011100115213125312A4
:103460003100412203220300230203020102212032
:1034700032131416151716153311200162030203B7
:1034800002032201A24140111253141314133211EA
:1034900001000201020302030202000223020322CE
:1034A0002120321416371817151312110021220388
:1034B0000243024301030203822120111213141557
:1034C0003415143211000162230203004302034247
:1034D000012012131518193A1715131100210203B0
:1034E000026304E3020302030201024012131415F3
:1034F000171516341220212243020300A3220100D3
:10350000111215181C1E1D191613110002010302B9
:103510000304230403240304430423040302034297
:103520002011121415171836151331210203022326
:10353000020300002100240027002A002D00300093
:10354000330001010000040107010A01000022000C
:10355000250028002B002E0031003400020100005D
:10356000050108010B0100002000230026002900AE
:103570002C002F00320000010000030106010901A8
:1035800005050505070508080808020202020A0ADF
:1035900008080404040401010101010101010303FD
:1035A000030303030303040707070C0C0C0C0C0CA8
:1035B0000C0C0202020206060606060606060B0BA5
:1035C0000B0B0B0B0B0B01021020200808102040E6
:1035D00010204080020102010804020101020408D7
:1035E0001020408080402010080402018004020165
:1035F00080402010080402010804020101020408AE
:103600001020408001020408102040800000090AB8
:1036100002080B0C0D070603040100000000000067
:10362000000000000000000000000000000000009A
:10363000000000000000000011100F00000000005A
:10364000000000000000000000000000000000007A
:103650000000494E46494E4954594E414ECDCCCCBE
:103660003D0AD7233C17B7D13877CC2B329595E656
:10367000241FB14F0A000020410000C84200401C36
:103680004620BCBE4CCA1B0E5AAEC59D74000D949C
:10369000CA020D9430050D941D0C0D941B0C0D9455
:1036A00035060D946A020D94F9000D943E0C0D94AC
:1036B000460C0D9455080D941E0C0D941C0C0D9485
:1036C0005E050D941A020D946A050D9426060D945C
:1036D0002A0C0D94AF140D94430C0D9422020D94FA
:1036E000220C0D942C450D9448050D94340C0D942A
:1036F000DE2B0D94A1040D94390C0D9470050D94DE
:10370000200C0D944B0C0D94260D0D9450050D942A
:103710008A020D94BB040D9469080D942F0C0D942E
:1037200058050D94C90C0D94E10C0D9438050D94B9
:1037300010020D94D50C0D9428050D944F430D9453
:103740007F040D943D2C0D94D5020D94BC240D9452
:10375000450C0D945A020D942A020D9450060D94B6
:10376000DA020D9462020D94440C0D9466080D94D7
:10377000250C0D947A080D94C2020D9440050D9409
:103780002B2C0D9432020D947C050D94BC0B0D94E2
:1037900052020D9464050D9476050D9441060D9426
:1037A000E0029A4623D1CF1B11241FBECFEFD1E2F6
:1037B000DEBFCDBF00E00CBF16E0A0E0B2E0E0E26B
:1037C000F9E902E00BBF02C007900D92AA35B107DC
:1037D000D9F71BBE13E1AAE5B6E001C01D92A834DB
:1037E000B107E1F717E3C8EAD7E304C02297FE0167
:1037F0000F94774CC23AD107C9F70F941E450D9428
:103800008E4C0C940000283008F027E03327DA01B2
:10381000990F311D87FD916000966105710539F49E
:1038200032602E5F3D9330E32A95E1F708959F3F84
:1038300030F080387105610509F03C5F3C5F3D93D5
:10384000913008F08068911DDF93CF931F930F9301
:10385000FF92EF92192F987F9695E92F969596955E
:10386000E90FFF27E552FB4D99273327EE24FF246C
:10387000A701E70105900894079428F4360FE71E86
:10388000F81E491F511D660F771F881F991F069448
:10389000A1F70590079428F4E70EF81E491F561F5C
:1038A000C11D770F881F991F661F0694A1F7059009
:1038B000079428F4F80E491F561FC71FD11D880F03
:1038C000991F661F771F0694A1F70590079420F4AF
:1038D000490F561FC71FD81F990F661F771F881FD4
:1038E0000694A9F784911095177041F0D695C79565
:1038F00057954795F794E7941A95C1F7E1E8F4E2F4
:1039000068941590159135916591959105907FE298
:103910007395E118F10A430B560BC90BD009C0F798
:10392000E10CF11E431F561FC91FD01D7EF47033DA
:1039300011F48A95E6CFE894015030F0080F0AF4AC
:103940000027021708F4202F2395022F7A3328F03E
:1039500079E37D932A95E9F710C07D932A9589F63E
:10396000069497956795379517951794E118F10A7E
:10397000430B560BC90BD00998F023957E91739594
:103980007A3308F070E37C932013B8F77E9170616E
:103990007D9330F0839571E37D9370E32A95E1F791
:1039A0001124EF90FF900F911F91CF91DF919927F4
:1039B00087FD90950895FA01AA27283051F120310A
:1039C00081F1E8946F936E7F6E5F7F4F8F4F9F4FB3
:1039D000AF4FB1E03ED0B4E03CD0670F781F891FF5
:1039E0009A1FA11D680F791F8A1F911DA11D6A0FC3
:1039F000711D811D911DA11D20D009F468943F9176
:103A00002AE0269F11243019305D3193DEF6CF0174
:103A10000895462F4770405D4193B3E00FD0C9F73A
:103A2000F6CF462F4F70405D4A3318F0495D31FDA7
:103A30004052419302D0A9F7EACFB4E0A6959795FA
:103A4000879577956795BA95C9F7009761057105D0
:103A500008959B01AC010A2E06945795479537951A
:103A60002795BA95C9F7620F731F841F951FA01D74
:103A70000895A0E3B0E0EFE3FDE10D943E4CA8E033
:103A80004E010894811C911CF401BA2F1192BA9531
:103A9000E9F729833A834B835C836D837E838F832D
:103AA0009887CE010996FC011192AA95E9F7A9869B
:103AB000BA86CB86DC86ED86FE860F87188B298139
:103AC0003A814B815C812DA73EA74FA758AB790166
:103AD0008A018FEF9FEFA0E0B0E0E822F9220A23ED
:103AE0001B231A014424552429853A854B855C857E
:103AF00029A73AA74BA75CA759016A01A822B922B6
:103B0000CA22DB223A0188249924C601B501A80102
:103B100097010F94AF4B6DA37EA38FA398A7C40109
:103B2000B3010F94AF4B69A37AA38BA39CA3C601E7
:103B3000B501A20191010F94AF4B7B018C01C4012F
:103B4000B3010F94AF4B5B016C0189A19AA1ABA1AA
:103B5000BCA18E0D9F1DA01FB11F89A39AA3ABA36B
:103B6000BCA32DA13EA14FA158A5CA01AA27BB27DE
:103B700029A13AA14BA15CA1280F391F4A1F5B1F45
:103B800029A33AA34BA35CA32E153F054007510779
:103B900040F480E090E0A1E0B0E0A80EB91ECA1E9B
:103BA000DB1E89A19AA1ABA1BCA19D014427552789
:103BB0002A0D3B1D4C1D5D1D2D8F3E8F4F8F58A331
:103BC0006C01BB24AA248DA19EA1AFA1B8A5A070B1
:103BD000B070A80EB91ECA1EDB1EA98EBA8ECB8E7F
:103BE000DC8E9A8C8B8C7C8C9E8D6F8D78A1FE01E7
:103BF000719688E0DF011D928A95E9F72D8B9E8BE7
:103C00006F8B788F2D853E854F8558896DA57EA554
:103C10008FA598A90F94AF4B7B018C012D813E811C
:103C20004F81588569A57AA58BA59CA50F94AF4BAC
:103C3000E60EF71E081F191F6D897E898F89988DE2
:103C40006E0D7F1D801F911F6D8B7E8B8F8B988FCC
:103C5000EE892A2D392D482D572D7E2F8F89988D4D
:103C6000E096E2E10D945A4CEF92FF920F93DF93AE
:103C7000CF93CDB7DEB760970FB6F894DEBF0FBE17
:103C8000CDBFA82F002309F461C07E010894E11C78
:103C9000F11C88E0F70111928A95E9F729833A83AC
:103CA0004B835C836D837E83AF83988780E2801B28
:103CB000E82FFF27E7FDF09549815A816B817C81D0
:103CC000181684F019861A861B861C868827992761
:103CD0008E1B9F0B04C0440F551F661F771F8A95CC
:103CE000D2F728C0202F332727FD3095DB01CA01EA
:103CF000022E04C0880F991FAA1FBB1F0A94D2F777
:103D000089879A87AB87BC8704C076956795579556
:103D10004795EA95D2F78D819E81AF81B88504C021
:103D2000880F991FAA1FBB1F2A95D2F7482B592B22
:103D30006A2B7B2B4D875E876F87788B29853A8529
:103D40004B855C856D857E85AF8598898A2F6096C9
:103D50000FB6F894DEBF0FBECDBFCF91DF910F91AC
:103D6000FF90EF9008950F931F93CF93DF93689F79
:103D70008001699F100D789F100D1124C8010DD08E
:103D8000EC01009721F060E070E0A80190D1CE0135
:103D9000DF91CF911F910F910895CF93DF93BC01D5
:103DA0008230910510F462E070E0A0914413B0916C
:103DB0004513ED01E0E0F0E040E050E021C08881F3
:103DC00099818617970769F48A819B81309719F04A
:103DD0009383828304C09093451380934413FE0120
:103DE00034C06817790738F44115510519F0841764
:103DF000950708F4AC01FE018A819B819C01E901D1
:103E00002097E9F641155105A9F1CA01861B970BC8
:103E1000049708F4BA01E0E0F0E02AC08D919C918B
:103E2000119784179507F9F46417750781F41296B2
:103E30008D919C911397309719F09383828304C0DE
:103E40009093451380934413FD0132964CC0CA01F0
:103E5000861B970BFD01E80FF91F61937193029781
:103E60008D939C9340C0FD01828193819C01D90177
:103E70001097A1F68091421390914313892B41F43E
:103E800080914E0390914F0390934313809342137C
:103E900040915003509151034115510541F44DB7E4
:103EA0005EB780914C0390914D03481B590B2091B4
:103EB000421330914313CA01821B930B8617970755
:103EC00080F0AB014E5F5F4F8417950750F0420FB3
:103ED000531F5093431340934213F901619371931D
:103EE00002C0E0E0F0E0CF01DF91CF910895CF93E1
:103EF000DF93009709F450C0EC0122971B821A82CD
:103F0000A0914413B0914513109709F140E050E09F
:103F1000AC17BD0708F1BB83AA83FE012191319143
:103F2000E20FF31FAE17BF0779F48D919C911197A3
:103F3000280F391F2E5F3F4F3983288312968D91AA
:103F40009C9113979B838A834115510571F4D093FB
:103F50004513C093441320C012968D919C911397E2
:103F6000AD01009711F0DC01D3CFFA01D383C283F6
:103F700021913191E20FF31FCE17DF0769F4888199
:103F80009981280F391F2E5F3F4FFA01318320831B
:103F90008A819B8193838283DF91CF9108956627E5
:103FA0007727EFC21F93FC0199278827BC01E8946B
:103FB00011911032E9F3193010F01E30C8F31B32A2
:103FC00049F01D3241F4689405C0CDD0610F711DD8
:103FD000811D911D119110531A30B8F33EF4909544
:103FE0008095709561957F4F8F4F9F4F1F910895DA
:103FF000FB01DC0102C005900D9241505040D8F702
:104000000895FB01DC018D9181341CF08B350CF49B
:10401000805E659161341CF06B350CF4605E861B2C
:10402000611189F3990B0895FB01DC018D910590D5
:1040300080190110D9F3990B0895FC010590002017
:10404000E9F7809590958E0F9F1F0895FB01DC0185
:104050004150504030F08D910590801919F40020A6
:10406000B9F7881B990B0895FB01DC0141505040C2
:1040700048F005900D920020C9F701C01D924150F3
:104080005040E0F70895FC01059061507040011028
:10409000D8F7809590958E0F9F1F0895FB01DC0146
:1040A00002C001900D9241505040D8F70895DC01B4
:1040B00001C06D9341505040E0F70895FB01DC01D1
:1040C0008D91019080190110D9F3990B0895FB018E
:1040D000DC014150504048F001900D920020C9F79A
:1040E00001C01D9241505040E0F70895FC0161501D
:1040F000704001900110D8F7809590958E0F9F1F0A
:104100000895009731F4DA018D919C91009709F49C
:104110000EC0DC01FB013D912191222319F03217E1
:10412000C9F3FACF332331F4DA011D921C928827A8
:10413000992708951197AF93BF93FB013D9121916A
:10414000321771F4332321F488279927119702C07D
:104150001E921196FA01A193B0839F918F910895B9
:10416000222369F7EACF592F482F372F262F660FC2
:10417000771F881F991F660F771F881F991F620F6F
:10418000731F841F951F660F771F881F991F08953F
:10419000AEE0B0E0EEECF0E20D944C4C8C0177FF19
:1041A00002C060E070E8615070407E836D831A83C6
:1041B000098386E08C83CE010196BA01A90111D052
:1041C0002D813E8137FD09C0EF81F8852E173F070D
:1041D0000CF4F901E00FF11F10822E96E4E00D942B
:1041E000684CABE0B0E0E7EFF0E20D943E4C3C01F0
:1041F0002B015A01FC0117821682838181FD03C0C5
:104200006FEF7FEFB9C19AE0892E1E010894211C3F
:10421000311CF3012381F20123FD859123FF81915C
:104220002F01882309F4A5C1853239F423FD859136
:1042300023FF81912F01853221F490E0B30116D341
:10424000E8CF982FFF24EE249924FFE1FF15D0F04A
:104250009B3269F09C3228F4903259F0933291F4F9
:104260000EC09D3249F0903369F441E024C052E021
:10427000F52A84E0F82A28C098E0F92A25C0E0E170
:10428000FE2A22C0F7FC29C0892F80538A3070F49F
:10429000F6FE05C0989C902C1124980E15C0E89C41
:1042A000E02C1124E80EF0E2FF2A0EC09E3229F421
:1042B000F6FC5FC140E4F42A07C09C3619F450E8CC
:1042C000F52A02C0983649F4F20123FD959123FFA7
:1042D00091912F01992309F0B8CF892F855483300C
:1042E00018F08052833038F444E050E0A40EB51E3C
:1042F0005FE359830FC0933631F0933779F09335EC
:1043000009F052C01FC0F5018081898342E050E06E
:10431000A40EB51E610101E010E011C0F501C080DE
:10432000D180F6FC03C06FEF7FEF02C0692D70E013
:1043300042E050E0A40EB51EC601D8DE8C015FE756
:10434000F52213C0F501C080D180F6FC03C06FEFE9
:104350007FEF02C0692D70E042E050E0A40EB51E70
:10436000C60191DE8C0150E8F52AF3FE06C018C0A4
:1043700080E290E0B3017AD2EA948E2D90E00817A3
:104380001907B0F30DC0F601F7FC8591F7FE819196
:104390006F0190E0B3016AD2E110EA94015010403D
:1043A0000115110581F7E2C0943611F0993661F5D7
:1043B000F7FE08C0F501208131814281538184E0FC
:1043C00090E00AC0F501808191819C01442737FD6E
:1043D0004095542F82E090E0A80EB91E9FE6F92286
:1043E00057FF09C050954095309521953F4F4F4F4D
:1043F0005F4FE0E8FE2ACA01B901A1012AE030E0DE
:10440000DADAD82ED2183FC0953729F41F2D1F7E37
:104410002AE030E01DC01F2D197F9F3661F09037D4
:1044200020F4983509F0A5C00FC0903739F09837BF
:1044300009F09FC004C028E030E00AC0106114FDFC
:10444000146020E130E004C014FD166020E132E089
:1044500017FF08C0F501608171818281938144E07A
:1044600050E008C0F50180819181BC0180E090E0BE
:1044700042E050E0A40EB51EA1019DDAD82ED2185C
:104480008FE7F82EF122F6FE0BC05EEFF522D9146D
:1044900038F4F4FE07C0F2FC05C08FEEF82202C02B
:1044A0001D2D01C0192DF4FE0DC0FE01ED0DF11DF5
:1044B0008081803319F499EEF92208C01F5FF2FE63
:1044C00005C003C08F2D867809F01F5F0F2DF3FC08
:1044D00013C0F0FE0EC01E1510F09D2C0AC09D2CBE
:1044E0009E0C911A1E2D05C080E290E0B301BED152
:1044F0001F5F1E15C8F304C01E1510F4E11A01C099
:10450000EE2404FF0EC080E390E0B301AFD102FFC0
:104510001BC001FD03C088E790E00EC088E590E075
:104520000BC0802F867881F001FF02C08BE201C0B2
:1045300080E2F7FC8DE290E0B30198D105C080E302
:1045400090E0B30193D19A94D914C8F3DA94F101AD
:10455000ED0DF11D808190E0B30188D1DD20B1F730
:1045600005C080E290E0B30181D1EA94EE20C9F762
:1045700050CEF30166817781CB012B96E2E10D9459
:104580005A4CA0E0B0E0E7ECF2E20D94444CEC01B0
:104590005B016115710519F0FB0191838083F9902E
:1045A0008F2D90E00F94834C892BC9F7FDE2FF1605
:1045B00021F4F990EE24E39405C02BE2F21609F4FD
:1045C000F990EE248E0101501040C80162E576E3B7
:1045D00043E050E033D1892BF9F48E010E5F1F4F79
:1045E000C80165E576E345E050E028D1892B19F450
:1045F0008E01095F1F4FA114B10419F0F501118359
:104600000083E0FC04C070E090E080E813C070E03C
:1046100090E080E86FEF07C1C8016AE576E343E008
:1046200050E00CD1892B69F4A114B10429F470E095
:1046300090E080EC6FE7F7C02296F501D183C0834C
:10464000F6CF8824992440E050E060E070E0EF2D40
:10465000E053EA30A0F5F2E0EF2A8E2D90E09C01C5
:1046600028703070E2FE06C0232B79F50894811C77
:10467000911C2BC0232B19F0089481089108DB01B1
:10468000CA0112E0880F991FAA1FBB1F1A95D1F704
:10469000480F591F6A1F7B1F440F551F661F771F46
:1046A0004E0F511D611D711D483929E9520729E935
:1046B000620729E1720748F084E0E82A06C0EE3F6D
:1046C00031F4E3FC39C098E0E92AF990C0CFE53332
:1046D00011F0E53189F529912D3219F4E0E1EE2A46
:1046E00005C02B3219F081E090E003C0299182E0EF
:1046F00090E0E22FE053EA3018F0C81BD90B1CC041
:1047000020E030E0FCE020383F075CF4C901880F6E
:10471000991F880F991F280F391F220F331F2E0F43
:10472000311DE991E053EA3068F3E4FE03C03095AF
:1047300021953F4F820E931ECE2CDD24E1FE07C053
:10474000A114B10421F02197F501D183C083CB01DD
:10475000BA010F9400497B018C01F3E0CF22DD24E4
:1047600023E0C216D10421F417FB109517F9109518
:1047700057016801C801B70120E030E040E050E097
:104780000F946048882309F44AC097FE0DC021E7C2
:10479000E22E26E3F22E9094819491089394C0E245
:1047A000D0E000E010E012C099E8E92E96E3F92E7F
:1047B000F6CFF7012591359145915491C601B50188
:1047C0000F94EA4A5B016C018C1A9D0A8C169D06B7
:1047D00084F7D595C7950F5F1F4F0630110529F057
:1047E0008CEF9FEFE80EF91EF1CFC501D6017C01D9
:1047F0008D018C2D880F8D2D881F8F3F51F0C601A4
:10480000B50120E030E040E050E00F94604888239C
:1048100031F482E290E090934713809346137E2D0B
:104820009F2D802F612F272F392F482F562FB90109
:10483000CA01CDB7DEB7ECE00D94604CFB01DC01A2
:104840004150504088F08D9181341CF08B350CF430
:10485000805E659161341CF06B350CF4605E861BE4
:10486000611171F3990B0895881BFCCF0F931F936F
:10487000CF93DF938C01EB018B8181FF1BC082FF03
:104880000DC02E813F818C819D812817390764F4EA
:10489000E881F9810193F983E88306C0E885F98509
:1048A000802F1995892B31F48E819F8101969F83EA
:1048B0008E8302C00FEF1FEFC801DF91CF911F91D0
:1048C0000F9108959C01F999FECF32BD21BDF89A50
:1048D00060B5F999FECF2F5F3F4F32BD21BD21500A
:1048E0003040F89A70B5F999FECF2E5F3F4F32BD38
:1048F00021BD22503040F89A80B5F999FECF2D5F46
:104900003F4F32BD21BDF89A90B508959C01F999A9
:10491000FECF1FBA32BD21BD40BD0FB6F894FA9A42
:10492000F99A0FBEF999FECF1FBA2F5F3F4F32BDE4
:1049300021BD2150304050BD0FB6F894FA9AF99A33
:104940000FBEF999FECF1FBA2E5F3F4F32BD21BD7A
:104950002250304060BD0FB6F894FA9AF99A0FBE13
:10496000F999FECF1FBA2D5F3F4F32BD21BD70BDFB
:104970000FB6F894FA9AF99A0FBE08950895009721
:1049800029F0019741F02FEF3FEF13C0E0912C1277
:10499000F0912D1204C0E0912E12F0912F12A081FF
:1049A000B1811C962D913C911D97CF01F90119956C
:1049B0009C01C90108951F920F920FB60F920BB67A
:1049C0000F9211242F933F934F938F939F93EF93C5
:1049D000FF934091C6002091A5103091A6102F5F43
:1049E0003F4F8091A9109091AA10282339238091DC
:1049F000A7109091A8102817390779F08091A51079
:104A00009091A610E091AB10F091AC10E80FF91F57
:104A100040833093A6102093A510FF91EF919F91B2
:104A20008F914F913F912F910F900BBE0F900FBE22
:104A30000F901F9018951F920F920FB60F920BB602
:104A40000F9211242F933F938F939F93EF93FF9394
:104A50002091C7103091C8108091C5109091C61058
:104A600028173907E9F08091C7109091C810E0919C
:104A7000CB10F091CC10E80FF91F80818093C60015
:104A80008091C7109091C81001962091C910309163
:104A9000CA10822393239093C8108093C71010C02C
:104AA0002091C5103091C6108091C7109091C81008
:104AB0002817390729F48091C1008F7D8093C100A8
:104AC000FF91EF919F918F913F912F910F900BBE8E
:104AD0000F900FBE0F901F9018951F920F920FB658
:104AE0000F920BB60F9211242F933F934F938F93F6
:104AF0009F93EF93FF934091CE002091AD103091A2
:104B0000AE102F5F3F4F8091B1109091B2102823CB
:104B100039238091AF109091B0102817390779F0A0
:104B20008091AD109091AE10E091B310F091B4105F
:104B3000E80FF91F40833093AE102093AD10FF9122
:104B4000EF919F918F914F913F912F910F900BBEBD
:104B50000F900FBE0F901F9018951F920F920FB6D7
:104B60000F920BB60F9211242F933F938F939F9325
:104B7000EF93FF932091CF103091D0108091CD1002
:104B80009091CE1028173907E9F08091CF109091BD
:104B9000D010E091D310F091D410E80FF91F80816C
:104BA0008093CE008091CF109091D01001962091EB
:104BB000D1103091D210822393239093D010809300
:104BC000CF1010C02091CD103091CE108091CF1019
:104BD0009091D0102817390729F48091C9008F7D52
:104BE0008093C900FF91EF919F918F913F912F91F9
:104BF0000F900BBE0F900FBE0F901F9018951F9235
:104C00000F920FB60F920BB60F9211242F933F9372
:104C10004F938F939F93EF93FF9340913601209191
:104C2000BD103091BE102F5F3F4F8091C110909109
:104C3000C210282339238091BF109091C0102817EB
:104C4000390779F08091BD109091BE10E091C310AA
:104C5000F091C410E80FF91F40833093BE102093E9
:104C6000BD10FF91EF919F918F914F913F912F91A7
:104C70000F900BBE0F900FBE0F901F9018951F92B4
:104C80000F920FB60F920BB60F9211242F933F93F2
:104C90008F939F93EF93FF932091DF103091E0105B
:104CA0008091DD109091DE1028173907E9F080918E
:104CB000DF109091E010E091E310F091E410E80F24
:104CC000F91F8081809336018091DF109091E01070
:104CD00001962091E1103091E2108223932390936A
:104CE000E0108093DF1010C02091DD103091DE10B5
:104CF0008091DF109091E0102817390729F48091F6
:104D000031018F7D80933101FF91EF919F918F91C0
:104D10003F912F910F900BBE0F900FBE0F901F90E1
:104D200018950F931F93CF93DF936091530A6623D7
:104D3000B1F1C091030BD091040B0091630310916A
:104D40006403772767FD7095872F972F0F9402498B
:104D500020915303309154034091550350915603D1
:104D60000F94EA4A20E030E040E251E40F94EA4A2E
:104D70000F94CF489801261B370BC217D3073CF07E
:104D80009B01200F311FC217D3070CF49E013093F3
:104D9000040B2093030B3093640320936303DF9190
:104DA000CF911F910F910895CF92DF92EF92FF92D2
:104DB0000F931F93CF93DF93EC016B01FB01EE0F79
:104DC000FF1FEC0FFD1F65A970E080E090E00F94DD
:104DD00000497B018C018AA1882321F48B819C816D
:104DE000892B51F0C801B70120E030E040E85EE3D4
:104DF0000F94EA4A7B018C01C801B70120E030E042
:104E000040E050E00F94604818160CF044C0FE01DA
:104E1000EC0DFD1DE95BFF4F80818823D1F5C801B2
:104E2000B70120E030E048E452E40F949A4A1816A3
:104E300054F40F2EF0E0EF2EF0E0FF2EF8E40F2FE9
:104E4000F2E41F2FF02DCC0EDD1E87E490E0C80E9B
:104E5000D91E60E070E088E492E4A80197010F9405
:104E600067487B018C01C05BDF4F688170E0882759
:104E700077FD8095982F0F9402499B01AC01C801E2
:104E8000B7010F9483470F94D448F601608381E003
:104E900003C08150808380E0DF91CF911F910F91FB
:104EA000FF90EF90DF90CF9008954F925F926F92B6
:104EB0007F928F929F92AF92BF92CF92DF92EF92AA
:104EC000FF920F931F93DF93CF93CDB7DEB72F974A
:104ED0000FB6F894DEBF0FBECDBF9A2DA982EB2D81
:104EE000BA82FC2DCB82DC82ED82FE820F83188792
:104EF00029873A874B875C876D877E878F874C81B0
:104F00005D816E817F81C884D984EA84FB844C846E
:104F10005D846E847F8497FE03C020E030E00BC088
:104F200080913F0AA82FBB27A7FDB0959401A81533
:104F3000B9050CF49D01D90114E0AA0FBB1F1A9505
:104F4000E1F7A21BB30BA050BB4FE0FD02C0E0E0B5
:104F500006C0E0E0232B09F4E1E081E0E827F999BD
:104F6000FECF1FBAB2BDA1BD90BD0FB6F894FA9A9C
:104F7000F99A0FBECD010196F999FECF1FBA92BDE5
:104F800081BDE0BD0FB6F894FA9AF99A0FBE8C0174
:104F90000F5F1F4FF999FECF1FBA12BD01BDF0BDC3
:104FA0000FB6F894FA9AF99A0FBEC8010196AEDCD2
:104FB000C8010596B701A601A9DCC8010996B3018D
:104FC000A201A4DC2F960FB6F894DEBF0FBECDBFB2
:104FD000CF91DF911F910F91FF90EF90DF90CF90D5
:104FE000BF90AF909F908F907F906F905F904F9009
:104FF0000895CF92DF92EF92FF920F931F93DF936A
:10500000CF93CDB7DEB728970FB6F894DEBF0FBEAB
:10501000CDBF9C018091460A992787FD9095821704
:10502000930740F4CC24DD24760180E090E0A0E0FA
:10503000B0E015C0890104511E4F83E0000F111F1D
:105040008A95E1F7C8013EDCAC01CB01DA016C01C5
:105050007D01C801049636DCAC01CB01DA01C982BE
:10506000DA82EB82FC828D839E83AF83B8872C2DFE
:105070003A814B815C81682F7E818F81988528964B
:105080000FB6F894DEBF0FBECDBFCF91DF911F9159
:105090000F91FF90EF90DF90CF9008952091B70A85
:1050A0003091B80A8091C30A9091C40A281B390B29
:1050B000253631051CF08AE08093070F2C593F4FAD
:1050C0001CF486EF8093070F8091070F18161CF4CD
:1050D00081508093070F8091070F87FF03C08F5F78
:1050E0008093070F8091070F813019F08F3F09F0EF
:1050F00080E00895AF92BF92CF92DF92EF92FF923D
:105100000F931F93CF93DF93EC015A016B018E81B4
:10511000882351F4CB01BA010F9402496F83788739
:1051200089879A8781E08E83EA80FB800C811D81CC
:10513000C601B5010F9402499B01AC01C801B7013A
:105140000F94EA4A5B016C0160E070E080E89FE345
:10515000A80197010F9482472F81388549855A8588
:105160000F94EA4A9B01AC01C601B5010F94834735
:105170006F83788789879A870F94CF489B01AC010A
:10518000CA01DF91CF911F910F91FF90EF90DF90B7
:10519000CF90BF90AF900895FC01168208950F93B1
:1051A0001F938C01CB01BA010F940249F801678368
:1051B00070878187928781E086831F910F91089580
:1051C000FF920F931F93CF93DF93EC01142F052FC2
:1051D000F62E2E8DE22FF0E0EE0FFF1FEE0FFF1FD9
:1051E000EC0FFD1F812F902FAF2DB72F828393835C
:1051F000A483B5832F5F2E8F273008F01E8E212FBA
:10520000302F4F2D572FB901CA01DF91CF911F9138
:105210000F91FF90089587E00895EF92FF920F930A
:105220001F937A018B018331C9F1843174F4823088
:10523000C9F0833024F4813009F051C01AC08430A1
:10524000F9F0893009F04BC022C0893399F18A33D3
:1052500024F4863209F043C027C08F3689F18337A2
:10526000F1F536C0A0E6EA2EA9E0FA2E012D112DA7
:105270003CC0F0EBEF2EF4E0FF2E012D112D35C0D8
:10528000E0ECEE2EE2E1FE2E012D112D2EC070E895
:10529000E72E75E2F72E012D112D27C0E12C6BE4CE
:1052A000F62E012D112D21C0E12C56E9F52E012DF0
:1052B000112D1BC0E12C41EEF42E012D112D15C036
:1052C0003CEFE32E31EBF32E31E0032F112D0DC017
:1052D000E12C22ECF22E21E0022F112D06C08AE5EE
:1052E00096E068E771E10E946AA3B701C8011F91C7
:1052F0000F91FF90EF900895853021F1863038F4BA
:105300008130B1F0813078F08230A9F516C08A3052
:1053100019F18B3018F4863071F519C08B3009F112
:105320008C3049F523C08AE596E069E674E127C030
:105330008AE596E062E674E122C08AE596E068E5D7
:1053400074E11DC08AE596E062E574E118C08AE563
:1053500096E06CE474E113C08AE596E067E474E1DA
:105360000EC08AE596E063E474E109C08AE596E040
:105370006CE374E104C08AE596E068E374E10C94A0
:105380006AA32AE536E0882349F000D00F92EDB7F2
:10539000FEB73283218387E790E108C000D00F92E7
:1053A000EDB7FEB73283218383E790E19483838353
:1053B0000E944AA38AE596E0EDB7FEB79283818307
:1053C0008CE690E1948383830E944AA30F900F9010
:1053D0000F900F90089500D00F928AE596E0EDB7F8
:1053E000FEB79283818388ED90E1948383830E944A
:1053F0004AA30F900F900F900F90089500D00F9236
:105400008AE596E0EDB7FEB79283818388E195E166
:10541000948383830E944AA30F900F900F900F9064
:1054200080E0089500D00F928AE596E0EDB7FEB7D0
:10543000928381838FED96E1948383830E944AA3B4
:1054400080E090E00F900F900F900F90F999FECFB1
:105450001FBA92BD81BD10BC0FB6F894FA9AF99AA2
:105460000FBE0196F0E180309F0781F700D00F92C8
:105470008AE596E0EDB7FEB79283818389ED96E1E8
:10548000948383830E944AA30F900F900F900F90F4
:1054900008950F931F938DB79EB70A970FB6F89490
:1054A0009EBF0FBE8DBFEDB7FEB731960AE516E081
:1054B000ADB7BEB712961C930E93119788E897E18B
:1054C000938382838091C10A9091C20A95838483D9
:1054D0008091C30A9091C40A978386838091C50AFC
:1054E0009091C60A918780870E944AA3EDB7FEB7C4
:1054F0003196ADB7BEB712961C930E93119785E700
:1055000097E1938382838091E30A9091E40A9583E3
:1055100084838091E50A9091E60A9783868380913F
:10552000E70A9091E80A918780870E944AA3EDB725
:10553000FEB73196ADB7BEB712961C930E93119776
:1055400082E697E1938382838091050B9091060B0D
:10555000958384838091070B9091080B97838683B2
:105560008091090B90910A0B918780870E944AA332
:10557000EDB7FEB73196ADB7BEB712961C930E933A
:1055800011978FE497E1938382838091270B909109
:10559000280B958384838091290B90912A0B978304
:1055A000868380912B0B90912C0B918780870E9492
:1055B0004AA3EDB7FEB73196ADB7BEB712961C93AE
:1055C0000E9311978CE397E1938382838091490B2B
:1055D00090914A0B9583848380914B0B90914C0B57
:1055E0009783868380914D0B90914E0B9187808796
:1055F0000E944AA3EDB7FEB73196ADB7BEB712967B
:105600001C930E93119789E297E193838283809193
:105610006C0B90916D0B9583848380916E0B9091B0
:105620006F0B978386838091700B9091710B91879C
:1056300080870E944AA3EDB7FEB73196ADB7BEB7DB
:1056400012961C930E93119786E197E193838283C0
:1056500080918F0B9091900B958384838091910B17
:105660009091920B978386838091930B9091940BEA
:10567000918780870E944AA3EDB7FEB73196ADB7F8
:10568000BEB712961C930E93119783E097E1938314
:1056900082838091B20B9091B30B95838483809128
:1056A000B40B9091B50B978386838091B60B909144
:1056B000B70B918780870E944AA38DB79EB70A9641
:1056C0000FB6F8949EBF0FBE8DBF1F910F91089526
:1056D000CF93DF939C018DB79EB744970FB6F89494
:1056E0009EBF0FBE8DBFEDB7FEB731968AE596E03F
:1056F000ADB7BEB712969C938E93119789E698E149
:1057000093838283E90188819981AA81BB81848303
:105710009583A683B7838C819D81AE81BF8180876D
:105720009187A287B38788859985AA85BB85848759
:105730009587A687B7878C859D85AA2797FDA09515
:10574000BA2F808B918BA28BB38B0E944AA38DB70B
:105750009EB744960FB6F8949EBF0FBE8DBFDF91E3
:10576000CF9108951F93162F00D000D0EDB7FEB74C
:1057700031962AE536E0ADB7BEB712963C932E932C
:10578000119727E139E133832283848315820E94B4
:105790004AA38DB79EB706960FB6F8949EBF0FBE6C
:1057A0008DBF812FA9DD1F9108958DB79EB74097BA
:1057B0000FB6F8949EBF0FBE8DBFEDB7FEB7319602
:1057C0008AE596E0ADB7BEB712969C938E9311977B
:1057D00085E299E19383828380915A0790915B07D8
:1057E000A0915C07B0915D0784839583A683B783FE
:1057F00080915E0790915F07A0916007B09161076B
:1058000080879187A287B387809162079091630711
:10581000A0916407B091650784879587A687B787AD
:105820000E944AA38DB79EB740960FB6F8949EBFCC
:105830000FBE8DBF08958DB79EB740970FB6F894F1
:105840009EBF0FBE8DBFEDB7FEB731968AE596E0DD
:10585000ADB7BEB712969C938E93119788E499E1E9
:10586000938382838091660790916707A091680770
:10587000B091690784839583A683B78380916A0773
:1058800090916B07A0916C07B0916D07808791870D
:10589000A287B38780916E0790916F07A0917007E0
:1058A000B091710784879587A687B7870E944AA31E
:1058B0008DB79EB740960FB6F8949EBF0FBE8DBFB2
:1058C000089500D00F928AE596E0EDB7FEB7928377
:1058D00081838CE69AE1948383830E944AA30F908C
:1058E0000F900F900F900895CF93DF93CAE5D6E005
:1058F000CE016AEC7FE00E946AA384EC96E00E94ED
:1059000092D8882331F4CE016FEA7FE00E946AA327
:1059100083C084EC96E00E94EBDB2DB73EB72850A5
:1059200030400FB6F8943EBF0FBE2DBFEDB7FEB7A7
:105930003196ADB7BEB71296DC93CE93119788E837
:105940009FE0938382838091D50684831582809122
:10595000D6069091D706978386830E944AA3EDB717
:10596000FEB73196ADB7BEB71296DC93CE931197C2
:105970008CE69FE0938382838091DA069091DB0628
:105980000196958384838091D8069091D906978358
:1059900086830E944AA32DB73EB7285F3F4F0FB6BC
:1059A000F8943EBF0FBE2DBF6091DA067091DB0602
:1059B0006F5F7F4F84EC96E00E9481D484EC96E088
:1059C0000E9491D5ADB7BEB71C970FB6F894BEBF75
:1059D0000FBEADBFEDB7FEB731961296DC93CE93F6
:1059E000119729E33FE033832283648375838683A1
:1059F000978381E190E2A2E1B8E280879187A28754
:105A0000B3870E944AA32DB73EB7245F3F4F0FB61E
:105A1000F8943EBF0FBE2DBF80E0DF91CF91089577
:105A20008AE596E06EE671E20E946AA364E670E0A1
:105A300080E090E00F944F43F89428E088E190E0F4
:105A40000FB6F894A895809360000FBE2093600075
:105A5000FFCF0F931F93CF93DF9387E597E060E02D
:105A600070E04DE95BE122E235E30EED18E00F94C2
:105A7000BC0B82E997E060E00F94AF14ACDC68EEF9
:105A800073E080E090E00F944F43C9EDD1E10AE567
:105A900016E064E170E080E090E00F944F430F94D3
:105AA0001B432091A00E3091A10E4091A20E509167
:105AB000A30E621B730B840B950B6431710581057A
:105AC000910508F4BCC00F941B432091A00E621BEB
:105AD0006093A40E70E080E090E00F94004920E015
