:100000000C94E4180C9458EF0C9489EF0C94BAEF0C
:100010000C94EBEF0C941CF00C944DF00C947EF0CF
:100020000C94AFF00C9411190C9411190C94111933
:100030000C9411190C9411190C9411190C9427B1EA
:100040000C9411190C9411190C9411190C94111988
:100050000C9411190C9411190C9411190C94E0F0D2
:100060000C9411190C942D290C946D290C941119D0
:100070000C9411190C9411190C9411190C94111958
:100080000C9411190C9411190C9411190C94111948
:100090000C94BF290C94FF290C9411190C9476B67A
:1000A0000C9411190C9454B10C9411190C9411194D
:1000B0000C9411190C9411190C9481B10C94111910
:1000C0000C9411190C9411190C9411190C94111908
:1000D0000C9411190C9411190C94512A0C94912A16
:1000E0000C941119595672567A5661566A568256B0
:1000F000B156AA56A3569C56F256F256F2568E5652
:100100009556C856B856D856DE56F256F256E456AC
:10011000EA56036EDB363D9A9999993DABAAAA2A15
:100120003E000000803F084AD73B3BCE016E84BCB6
:10013000BFFDC12F3D6C74319ABD56833DDA3D0041
:10014000C77F11BED9E4BB4C3E916BAAAABE00008A
:1001500000803F072C7AA5BA6CC590DA3B9365FC0A
:100160008BBC53F810FD3C5692834DBD879D3AB62B
:100170003DCBC9BF5BBE73DA0FC93F05A84CCDB2FA
:10018000D44EB93836A9020C50B9918688083CA6DD
:10019000AAAA2ABE000000803F02005241575F53C6
:1001A000454E530000000000000035000000000034
:1001B00002014558545F53544154000000000000B0
:1001C00000370000000000020252435F4348414EE6
:1001D00000000000000000003900000000000203E1
:1001E0005241575F4354524C000000000000003B56
:1001F00000000000000204504F534954494F4E0084
:100200000000000000003D0000000000020545580D
:10021000545241310000000000000000003F000087
:100220000000000206455854524132000000000010
:100230000000000041000000000002074558545231
:1002400041330000000000000000004300000000F7
:10025000000208504152414D5300000000000000D0
:10026000000045000000000000FF0000000000004A
:10027000000000000000000000000000000000027C
:10028000464F524D41545F56455253494F4E000020
:10029000F309000000000153595349445F53575F6D
:1002A00054595045000001F509000000000253595F
:1002B0005349445F544849534D4156000070F60974
:1002C0000000803F0253595349445F4D59474353FF
:1002D0000000000071F80900007F430153455249B6
:1002E000414C335F4241554400000072FA0900005E
:1002F00064420154454C454D5F44454C4159000012
:10030000000073FB0900000000044B46465F505498
:100310004348434F4D50000000C8FC09CDCC4C3E33
:10032000044B46465F524444524D49580000000079
:10033000C9000A0000003F044B46465F5054434842
:1003400032544852000000CA040A00000000044B66
:1003500046465F5448523250544348000000CB0890
:100360000A00000000014D414E55414C5F4C45567E
:10037000454C00000016570A000000000153544984
:10038000434B5F4D4958494E4700000019890A0008
:1003900000803F015255444445525F5354454552F5
:1003A0000000001E8A0A00000000024C414E445F1B
:1003B00050495443485F4344000017600A0000005E
:1003C00000044C414E445F464C4152455F414C5401
:1003D000001B620A00004040044C414E445F464C02
:1003E0004152455F534543001C660A00000040042B
:1003F0005854524B5F4741494E5F534300000096AB
:10040000100A0000C842025854524B5F414E474CFC
:10041000455F4344000097140A00803B450158544F
:10042000524B5F5553455F57494E4400009F160A93
:100430000000803F025854524B5F4D494E5F444983
:10044000535400001D170A0000484204414C545FF9
:100450004D4958000000000000000083190A000008
:10046000803F01414C545F4354524C5F414C470024
:1004700000007C1D0A0000000002414C545F4F4602
:10048000465345540000000000204A0A00000000C6
:1004900001434D445F544F54414C000000000000A4
:1004A000DD1F0A0000000001434D445F494E4445F2
:1004B00058000000000000DE200A00000000025783
:1004C000505F524144495553000000000000DF21B5
:1004D0000A0000F0410257505F4C4F495445525FAB
:1004E0005241440000E0230A000070420146454E9C
:1004F00043455F414354494F4E000000E1250A0047
:100500000000000146454E43455F544F54414C00A6
:10051000000000E2260A000000000146454E434567
:100520005F4348414E4E454C0000E3270A0000005F
:10053000000246454E43455F4D494E414C54000034
:1005400000E4280A000000000246454E43455F4D86
:100550004158414C54000000E52A0A000000000206
:1005600041525350445F4642575F4D494E00007818
:100570002C0A0000C0400241525350445F4642578B
:100580005F4D41580000792E0A0000B041014642FB
:1005900057425F454C45565F52455600007B300A36
:1005A00000000000015448525F4D494E0000000019
:1005B00000000000B5310A00000000015448525FFD
:1005C0004D41580000000000000000B6320A000053
:1005D0009642015448525F534C455752415445008E
:1005E0000000BD330A00000000015448525F53551B
:1005F00050505F4D414E000000BE340A0000000024
:10060000015448525F4641494C5341464500000061
:10061000B7350A0000803F025448525F46535F5688
:10062000414C5545000000B8360A00806D44015425
:1006300052494D5F5448524F54544C450000B9380C
:100640000A00003442015448524F54544C455F4E06
:1006500055444745001F390A0000803F0146535F5B
:1006600053484F52545F4143544E0000BA3A0A0077
:100670000000000146535F4C4F4E475F4143544ECC
:10068000000000BB3B0A000000000146535F4743E7
:10069000535F454E41424C000000BC3C0A00000044
:1006A0000001464C544D4F44455F43480000000054
:1006B00000D23D0A0000004101464C544D4F4445D4
:1006C0003100000000000000D33E0A00003041016C
:1006D000464C544D4F44453200000000000000D409
:1006E0003F0A0000304101464C544D4F4445330011
:1006F000000000000000D5400A0000004001464C08
:10070000544D4F44453400000000000000D6410A1B
:100710000000004001464C544D4F44453500000058
:1007200000000000D7420A0000000001464C544D72
:100730004F44453600000000000000D8430A000086
:100740000000024C494D5F524F4C4C5F4344000047
:10075000000098440A00A08C45024C494D5F504966
:100760005443485F4D4158000099460A0080BB44FD
:10077000024C494D5F50495443485F4D494E00007B
:100780009A480A00401CC5015452494D5F415554D6
:100790004F0000000000000A4C0A00000000014564
:1007A0004C45564F4E5F4D4958494E4700000D4D40
:1007B0000A0000000001454C45564F4E5F52455619
:1007C00045525345000E4E0A0000000001454C45BD
:1007D000564F4E5F4348315F524556000F4F0A0057
:1007E00000000001454C45564F4E5F4348325F5272
:1007F00045560010500A00000000025359535F4E46
:10080000554D5F5245534554530002510A000000B4
:1008100000024C4F475F4249544D41534B0000008A
:10082000000B530A0000A743015253545F5357492A
:100830005443485F4348000015550A00000000017A
:100840005253545F4D495353494F4E5F4348001A2A
:10085000560A00000000035452494D5F4152535064
:10086000445F434D00009B580A00009644045343E4
:10087000414C494E475F53504545440000CC0C0A5B
:1008800000007041034D494E5F474E445350445F52
:10089000434D00009E6A0A00000000025452494D78
:1008A0005F50495443485F434400000C6E0A000007
:1008B000000003414C545F484F4C445F52544C007D
:1008C00000009C5C0A00401C4602414C545F484FAB
:1008D0004C445F464257434D007A700A00000000C6
:1008E000014D41475F454E41424C4500000000002C
:1008F00084720A0000803F01464C41505F315F50D6
:100900004552434E54000011740A00000000014695
:100910004C41505F315F5350454544000000127513
:100920000A0000000001464C41505F325F504552C2
:10093000434E54000013760A0000000001464C416B
:10094000505F325F535045454400000014770A0061
:1009500000000001424154545F4D4F4E49544F52E4
:1009600000000086730A0000000004564F4C545FDC
:100970004449564944455200000087780A0AD76323
:100980004004414D505F5045525F564F4C5400005B
:1009900000887C0A5C8FDA4104494E5055545F56FA
:1009A0004F4C54530000000089800A8FC2954003C9
:1009B000424154545F434150414349545900008AD5
:1009C000840A0000DC4401494E56455254454446D1
:1009D0004C545F4348009D880A0000000008474EC1
:1009E000445F00000000000000000000008D53087C
:1009F000612300000843414D5F000000000000003B
:100A000000000000A08B0A58260000085243315F06
:100A10000000000000000000000000AA970A8925DD
:100A20000000085243325F00000000000000000098
:100A30000000ABB90A89250000085243335F00006B
:100A4000000000000000000000ACDB0A8925000067
:100A5000085243345F000000000000000000000066
:100A6000ADFD0A89250000085243355F00000000F3
:100A700000000000000000AE1F0B1326000008520B
:100A800043365F0000000000000000000000AF429D
:100A90000B13260000085243375F000000000000DF
:100AA0000000000000B0650B132600000852433818
:100AB0005F0000000000000000000000B1880B1380
:100AC000260000085243395F0000000000000000CB
:100AD000000000B2AB0B1326000008524331305F18
:100AE00000000000000000000000B3CE0B13260041
:100AF0000008524331315F00000000000000000098
:100B000000B4F10B132600000848444E4732524C03
:100B10004C5F000000000000F06E0C16250000087D
:100B20004152535032505443485F0000000000F3DC
:100B30008C0C1625000008454E5247593254485235
:100B40005F0000000000F5AA0C1625000008414CCB
:100B50005432505443485F000000000000F6C80CB7
:100B60001625000008574845454C53544545525FEB
:100B700000000000F7E60C1625000008524C4C322D
:100B80005352565F00000000000000F1140C1625BF
:100B900000000850544348325352565F0000000092
:100BA0000000F2320C1625000008595732535256F5
:100BB0005F0000000000000000F4500C162500004B
:100BC00008434F4D504153535F00000000000000A8
:100BD00085B507A6230000085352305F00000000CF
:100BE000000000000000006EBF08990100000853DB
:100BF00052335F00000000000000000000006F1092
:100C0000099901000008494D555F000000000000EF
:100C1000000000000082D80630240000084148523D
:100C2000535F000000000000000000008C120775F8
:100C30002400000841525350445F000000000000AF
:100C40000000008E6B0986260000084D4E545F00A0
:100C500000000000000000000000A18309F9260048
:100C60000000000000000000000000000000000084
:100C700000000000000000004C6F670064756D709C
:100C800000000000000000000000B84365726173BE
:100C9000650000000000000000005B62656E61629C
:100CA0006C650000000000000000A53B64697361F2
:100CB000626C6500000000000000A53B706C616E76
:100CC0006E657200676373000000000000000000A2
:100CD0000000F26873657475700072657365740066
:100CE00000000000000000006E3B726164696F004C
:100CF00000000000000000005E5D6D6F6465730021
:100D00000000000000000000E35C6C6576656C008C
:100D10000000000000000000EE68636F6D706173FA
:100D20007300000000000000C83A6465636C696EDF
:100D30006174696F6E000000B43A62617474657228
:100D40007900000000000000803A73686F770000AF
:100D500000000000000000005C3A657261736500ED
:100D600000000000000000008C3441726475506C7B
:100D7000616E652056322E3635006C6F6773000049
:100D800000000000000000009B397365747570005E
:100D900000000000000000008339746573740000D7
:100DA00000000000000000006B3968656C700000F6
:100DB0000000000000000000F92D706C616E6E658F
:100DC00072000000000000005339746573740070F5
:100DD000776D0000000000000000000000725C72EF
:100DE0006164696F000000000000000000EE5B70AD
:100DF000617373746872750000000000000E39663C
:100E000061696C73616665000000000000FA5A6257
:100E100061747465727900000000000000045A7269
:100E2000656C6179000000000000000000813677E9
:100E30006179706F696E747300000000006C357822
:100E400062656500000000000000000000B134652C
:100E50006564756D700000000000000000E0316DF9
:100E60006F6465737769746368000000005C316CBF
:100E70006F6767696E670000000000000071304610
:100E80006F726D61742076657273696F6E3A20259A
:100E90006C782020457870656374656420666F7295
:100EA0006D61742076657273696F6E3A20256C7877
:100EB0000A004E756D50616765733A2025752020D4
:100EC0005061676553697A653A2025750A004D615E
:100ED0006E7566616374757265723A20307825307C
:100EE00032782020204465766963653A2030782581
:100EF0003034780A004552523A204E6F20646174B3
:100F000061666C61736820696E73657274656400F4
:100F100054657374696E672064617461666C617393
:100F200068206C6F6767696E6700506F73697469DA
:100F30006F6E2025640A00436F6E74726F6C2043DD
:100F400048200048697420456E74657220746F20D3
:100F5000657869742E0A0A00202530327800253021
:100F600034783A00426567696E20584265652058BA
:100F70002D4354552052616E676520616E64205286
:100F800053534920546573743A0A004C6F69746571
:100F900072207261646975733A2025640A0A0048F8
:100FA0006974207261646975733A2025640A0025AA
:100FB0006420776179706F696E74730A00486F6C92
:100FC0006420616C746974756465206F66202564A3
:100FD0006D0A00486F6C642063757272656E7420D0
:100FE000616C7469747564650A00636F6D6D616E20
:100FF0006420233A2025642069643A2564206F70B8
:1010000074696F6E733A25642070313A25642070DC
:10101000323A256C642070333A256C642070343A7F
:10102000256C64200A0052656C6179206F66660A3F
:101030000052656C6179206F6E0A004E6F742065F6
:101040006E61626C65640A00563A2025342E34665F
:101050002C20413A2025342E34662C206D41683AEC
:101060002025342E34660A00563A2025342E346664
:101070000A004D5347204653204F46462025750011
:101080004D5347204653204F4E202575004C4F535B
:1010900020636175736564206E6F206368616E679D
:1010A0006520696E2041504D2E0A005448524F541D
:1010B000544C45204641494C5341464520414354F8
:1010C0004956415445443A2025642C2000434F4E54
:1010D00054524F4C204D4F4445204348414E4745C4
:1010E000443A20005448524F54544C452043484100
:1010F0004E474544202564200A00556E706C756784
:1011000020626174746572792C207468726F7474D3
:101110006C6520696E206E65757472616C2C20742C
:1011200075726E206F666620726164696F2E0A00A8
:101130002D2D2D004C6F697465720052544C004186
:1011400055544F004642575F42004642575F4100A8
:1011500053746162696C697A6500436972636C6596
:10116000004D616E75616C0043483A002C00494E99
:1011700020313A20256409323A20256409333A2087
:10118000256409343A20256409353A202564093656
:101190003A20256409373A20256409383A20256425
:1011A0000A00494E3A09313A20256409323A20258D
:1011B0006409333A20256409343A20256409353A14
:1011C00020256409363A20256409373A2025640928
:1011D000383A2025640A00506C616E6E6572204DAD
:1011E0006F64650A0A54686973206D6F64652069CD
:1011F00073206E6F7420696E74656E64656420661A
:101200006F72206D616E75616C207573650A0A00DE
:10121000436F6D6D616E64733A0A20206C6F677363
:1012200020202020202020206C6F672072656164C0
:101230006261636B2F7365747570206D6F64650AEE
:101240002020736574757020202020202020736575
:10125000747570206D6F64650A2020746573742046
:101260002020202020202074657374206D6F646519
:101270000A0A4D6F76652074686520736C69646531
:101280002073776974636820616E6420726573658A
:101290007420746F20464C592E0A0A0054657374EA
:1012A000204D6F64650A0A005365747570204D6F98
:1012B00064650A0A494D504F5254414E543A2069D0
:1012C0006620796F752068617665206E6F74207076
:1012D000726576696F75736C7920736574207468B4
:1012E00069732073797374656D2075702C20757324
:1012F00065207468650A2772657365742720636FBB
:101300006D6D616E6420746F20696E697469616CC3
:10131000697A652074686520454550524F4D2074A8
:101320006F2073656E7369626C65206465666175B4
:101330006C742076616C7565730A616E64207468E4
:10134000656E207468652027726164696F27206369
:101350006F6D6D616E6420746F20636F6E66696778
:1013600075726520666F7220796F75722072616484
:10137000696F2E0A0A000A547970652027592720C0
:10138000616E642068697420456E74657220746FA4
:1013900020657261736520616C6C20776179706F74
:1013A000696E7420616E6420706172616D65746530
:1013B0007220646174612C20616E79206F7468659D
:1013C00072206B657920746F2061626F72743A20AD
:1013D00000646F6E650A000A45726173696E67206A
:1013E000454550524F4D0A005261772056616C7549
:1013F00065730A00526164696F0A004348383A20F5
:101400002564207C202564207C2025640A00434834
:10141000373A202564207C202564207C2025640A1E
:10142000004348363A202564207C202564207C2017
:1014300025640A004348353A202564207C20256431
:10144000207C2025640A004348343A202564207C0F
:10145000202564207C2025640A004348333A202557
:1014600064207C202564207C2025640A00434832C7
:101470003A202564207C202564207C2025640A00F5
:101480004348313A202564207C202564207C202597
:10149000640A004D6F6E69746F72696E6720766FB3
:1014A0006C747320616E642063757272656E740073
:1014B0004D6F6E69746F72696E672062617474201B
:1014C000766F6C74730042617474206D6F6E697412
:1014D0006F72696E672064697361626C6564004253
:1014E000617474204D6F696E746F720A006E61765C
:1014F00020706974636820616C743A0A00656E65D7
:1015000072677279207468726F74746C653A0A003D
:101510006E617620706974636820616972737065AA
:1015200065643A0A006E617620726F6C6C3A0A004C
:10153000736572766F207275646465723A0A00731F
:101540006572766F2070697463683A0A0073657219
:10155000766F20726F6C6C3A0A004761696E730A8D
:1015600000503A2025342E33662C20493A25342E5B
:1015700033662C20443A25342E33662C20494D41C5
:10158000583A256C640A0058545241434B3A20257E
:10159000342E32660A58545241434B20616E676CB8
:1015A000653A2025640A0043726F73737472616335
:1015B0006B0A006D696E3A2025640A6D61783A20E5
:1015C00025640A6372756973653A2025640A666149
:1015D000696C736166655F656E61626C65643A2013
:1015E00025640A6661696C736166655F76616C7516
:1015F000653A2025640A005468726F74746C650A39
:1016000000466C69676874206D6F6465730A0050EA
:101610006F732025643A2000494D550A00477972BE
:101620006F206F6666736574733A2025342E3266B8
:101630002C2025342E32662C2025342E32660A00CA
:10164000416363656C206F6666736574733A202529
:10165000342E32662C2025342E32662C2025342E52
:1016600032660A004D6167206F6666736574733A6F
:101670002025342E34662C2025342E34662C20254B
:10168000342E34660A004D6167204465636C696ED0
:101690006174696F6E3A2025342E34660A003F3F2C
:1016A0000048494C00484D433538343300484D43D9
:1016B000353838334C00436F6D706173733A2000D6
:1016C00061626C65640A0064697300656E002D00D8
:1016D0000A4F7074696F6E733A20332D34000A4FCD
:1016E0007074696F6E733A5B6F6E2C6F66662C72E6
:1016F000657365745D0A007265736574006F666674
:1017000000436F6D7061737320696E697469616CF9
:1017100069736174696F6E206661696C656421002C
:101720006F6E00426567696E6E696E6720494D5540
:101730002063616C6962726174696F6E3B20646FD3
:10174000206E6F74206D6F766520706C616E650021
:101750005761726D696E67207570204144432E2E6B
:101760002E0044656D6F20536572766F73210049BA
:101770006E697469616C6973696E672041504D2EA2
:101780002E2E00496E76616C6964205345524941A2
:101790004C335F42415544000A4D6F7665205243F9
:1017A00020746F67676C6520737769746368207451
:1017B0006F206561636820706F736974696F6E2054
:1017C000746F20656469742C206D6F766520616983
:1017D0006C65726F6E20737469636B20746F207315
:1017E000656C656374206D6F6465732E000A5361C8
:1017F0007665642053657474696E67730A0A000A1B
:101800004D6F766520616C6C20636F6E74726F6CC7
:101810007320746F20656163682065787472656DEC
:10182000652E2048697420456E74657220746F209F
:10183000736176653A200A000A4E6F20726164690E
:101840006F3B20436865636B20636F6E6E656374E6
:101850006F72732E000A0A526164696F20536574B7
:1018600075703A0A000A464143544F525920524576
:1018700053455420636F6D706C657465202D207026
:101880006C656173652072657365742041504D20ED
:10189000746F20636F6E74696E7565000A54797099
:1018A000652027592720616E642068697420456E81
:1018B00074657220746F20706572666F726D206639
:1018C0006163746F72792072657365742C20616E28
:1018D00079206F74686572206B657920746F206160
:1018E000626F72743A2000656E61626C65004355E8
:1018F0005200434D4400524157004D4F4445004E65
:1019000054554E004354554E00504D00475053001F
:1019100041545449545544455F4D45440041545445
:1019200049545544455F4641535400616C6C006D09
:10193000697373696E67206C6F6720747970650ACC
:10194000004C6F6720657261736520636F6D706C0A
:101950006574650045726173696E67206C6F6773AB
:1019600000446F6E650A0044756D70696E67204CA7
:101970006F672025642C20202020737461727420EE
:1019800070672025642C202020656E6420706720FD
:1019900025640A00626164206C6F67206E756D6259
:1019A00065720A0064756D70696E6720616C6C0AFF
:1019B0000025640A0025642C0900444620706167F4
:1019C000652C206C6F672066696C6520232C206C69
:1019D0006F6720706167653A2025642C09004E7599
:1019E0006D626572206F66207061636B6574732031
:1019F000726561643A2025640A000A417264755078
:101A00006C616E652056322E36350A467265652049
:101A100052414D3A2025750A004572726F7220526C
:101A2000656164696E6720454E445F425954453A8A
:101A30002025640A004572726F72205265616469E4
:101A40006E67205061636B65743A2025640A00411B
:101A500054543A2025642C2025642C2025750A0036
:101A60004D4F443A004354554E3A004E54554E3A69
:101A70002025342E34662C2025642C2025342E3449
:101A8000662C2025342E34662C2025342E34662CEA
:101A90002025342E34662C2025342E34662C0A0062
:101AA000504D3A005241573A00434D443A00435595
:101AB00052523A2025642C2025342E34662C2025C1
:101AC000342E34662C2025640A0020256420636FA0
:101AD0006D6D616E647320696E206D656D6F7279D6
:101AE0000A00554E4B4E4F574E20535441525455B9
:101AF00050202D200047524F554E44205354415200
:101B000054202D2000414952205354415254202D3D
:101B100020004750533A20256C642C2025642C204B
:101B200025642C2025342E37662C2025342E37664C
:101B30002C2025642C2025342E34662C2025342E90
:101B400034662C2025342E34662C2025342E346621
:101B50000A004C6F672025642C20202020737461BC
:101B600072742025642C202020656E642025640A70
:101B7000000A2564206C6F67730A000A4E6F206CA0
:101B80006F67730A0A004355520020255300434DE6
:101B900044002025530052415700202553004D4F4B
:101BA000444500202553004E54554E002025530037
:101BB0004354554E0020255300504D00202553001E
:101BC000475053002025530041545449545544452F
:101BD0005F4D454400202553004154544954554419
:101BE000455F4641535400202553006E6F6E6500DB
:101BF0006C6F677320656E61626C65643A20005299
:101C000065636569766564205265717565737420D6
:101C10002D206A756D7020746F20636F6D6D616E1D
:101C200064202325690042616420526571756573E3
:101C300074202D2063616E6E6F74206368616E671F
:101C40006520746F206E6F6E2D4E617620636D641B
:101C500000526563656976656420526571756573C8
:101C600074202D207265736574206D697373696FBC
:101C70006E00283229204E6F6E2D4E617620636FE4
:101C80006D6D616E64204944207570646174656493
:101C900020746F20232569206964783D2575004EE6
:101CA0006F6E2D4E617620636F6D6D616E6420499D
:101CB00044207570646174656420746F2023256905
:101CC000206964783D2575006F7574206F66206308
:101CD0006F6D6D616E647321004E617620636F6D70
:101CE0006D616E6420696E646578207570646174DE
:101CF000656420746F202325690052657475726EC7
:101D0000696E6720746F20486F6D65004578656364
:101D10007574696E67206E617620636F6D6D616E9C
:101D200064204944202325690052657365747469F1
:101D30006E6720707265765F5750004578656375F1
:101D400074696E6720636F6D6D616E642049442015
:101D500023256900444F5F5345545F524F49206E1D
:101D60006F7420737570706F727465640045786568
:101D7000637574696E6720636F6D6D616E64204971
:101D800044202325690073657474696E6720636F4E
:101D90006D6D616E6420696E6465783A2025690016
:101DA0004A756D7020746F2057502025752E204A7B
:101DB000756D7073206C6566743A20256400536BF2
:101DC000697070696E6720696E76616C6964206AFB
:101DD000756D7020746F202569004A756D707320D1
:101DE0006C6566743A2030202D20736B69707069C1
:101DF0006E6700536574207468726F74746C65202C
:101E00002575005365742067726F756E6473706515
:101E1000656420257500536574206169727370656F
:101E20006564202575206D2F730067707320616CC9
:101E3000743A20256C7500696E697420686F6D6551
:101E4000006261642066656E636520706F696E7400
:101E5000006261642066656E636520706F696E74F0
:101E60000066656E63696E67206D757374206265C8
:101E70002064697361626C656400666C696768748C
:101E800020706C616E2072656365697665640066BA
:101E90006C6967687420706C616E20757064617421
:101EA000652072656A656374656400556E6B6E6F5C
:101EB000776E20706172616D65746572202F257375
:101EC00000556E6B6E6F776E20706172616D657418
:101ED000657220696E64657820256400636F6D6D9E
:101EE000616E642072656365697665643A2000629C
:101EF00061726F6D657465722063616C6962726195
:101F000074696F6E20636F6D706C657465007A65BF
:101F1000726F2061697273706565642063616C69BA
:101F2000627261746564005245424F4F54494E4796
:101F300000666C69676874206D6F6465203D2025BC
:101F400075004661696C73616665202D2053686F6A
:101F50007274206576656E74206F6E2C2000466169
:101F6000696C73616665202D2053686F72742065FB
:101F700076656E74206F66660067656F2D66656EA8
:101F80006365207472696767657265640067656F71
:101F90002D66656E6365204F4B0067656F2D666526
:101FA0006E6365207365747570206572726F720060
:101FB00067656F2D66656E6365206C6F616465642F
:101FC000005750206572726F72202D2064697374FF
:101FD000616E6365203C2030007665726966795FCA
:101FE0006E61763A20496E76616C6964206F72206A
:101FF0006E6F2063757272656E74204E6176206319
:102000006D6400486F6C64696E6720636F757273EE
:102010006520256C64004C616E6420436F6D706CAC
:10202000657465202D20486F6C6420636F75727332
:102030006520256C64005061737365642057617975
:10204000706F696E7420232569206469737420257C
:10205000756D004D6973736564205750005265615A
:102060006368656420576179706F696E74202325F9
:102070006920646973742025756D007665726966E0
:10208000795F6E61763A204C4F49544552206F7209
:102090006269747320636F6D706C6574650076653A
:1020A000726966795F6E61763A204C4F49544552A9
:1020B0002074696D6520636F6D706C657465005286
:1020C00065616368656420686F6D65007665726937
:1020D00066795F636F6E6469746F6E3A20496E76DD
:1020E000616C6964206F72206E6F20637572726517
:1020F0006E7420436F6E646974696F6E20636D64E3
:1021000000666C69676874206D6F6465203D2025EA
:1021100075004661696C73616665202D204C6F6E99
:1021200067206576656E74206F6E2C20000A5072F1
:1021300065737320454E54455220332074696D6594
:102140007320746F20737461727420696E74657289
:102150006163746976652073657475700A0A004559
:10216000524153494E47204C4F4753004E6F206415
:10217000617461666C617368206361726420696E6A
:10218000736572746564000A0A496E69742041724D
:102190006475506C616E652056322E36350A0A46DB
:1021A0007265652052414D3A2025750A006C6F61B9
:1021B000645F616C6C20746F6F6B20256C75757338
:1021C0000A00646F6E652E004669726D77617265F4
:1021D000206368616E67653A2065726173696E6736
:1021E00020454550524F4D2E2E2E0A000A0A2052ED
:1021F0006561647920746F20464C592E003C7374DD
:1022000061727475705F67726F756E643E204752BD
:102210004F554E442053544152540000407A10F31D
:102220005A00A0724E18090010A5D4E80000E87604
:1022300048170000E40B54020000CA9A3B0000005B
:10224000E1F505000080969800000040420F000074
:1022500000A08601000000102700000000E8030035
:102260000000006400000000000A000000000001FF
:1022700000000000002C76D888DC674F0823DFC1FF
:10228000DFAE59E1B1B796E5E3E453C63AE65199BA
:102290007696E8E6C28426EB898C9B62ED407C6FE3
:1022A000FCEFBC9C9F40F2BAA56FA5F490055A2A9A
:1022B000F75C936B6CF9676DC11BFCE0E40D47FEA6
:1022C000F520E6B500D0ED902E030094357705009B
:1022D00080841E080000204E0A000000C80C333322
:1022E00033330F986E12831141EF8D2114893BE631
:1022F0005516CFFEE6DB18D1844B381BF77C1D90BA
:102300001DA4BBE424203284725E228100C9F12422
:10231000ECA1E53D276E616E00696E660025733A9B
:102320002025660A0025733A20256C640A0025736F
:102330003A2025640A0025733A2025640A0065784E
:1023400069740068656C70004D41585F50494E5F7C
:10235000534F555243455320524541434845440A43
:102360000004024142535F505245535300000000A5
:1023700000000C0000000000040354454D50000014
:102380000000000000000000000800000000000045
:10239000FF0000000000000000000000000000003E
:1023A00000000000000005014F465300000000003F
:1023B00000000000000000110000000000040244C2
:1023C00045430000000000000000000000001D0068
:1023D0000000000001034C4541524E000000000087
:1023E000000000000021000000803F01045553451B
:1023F00000000000000000000000000022000000BB
:10240000803F01054155544F444543000000000002
:1024100000000023000000803F00FF0000000000DB
:1024200000000000000000000000000000000000AC
:10243000060043414C0000000000000000000000C6
:1024400000030000000000020150524F4455435465
:102450005F4944000000000037000000000000FF5A
:10246000000000000000000000000000000000006C
:10247000000000000004024750535F4741494E00EE
:1024800000000000000024000000803F01034750CE
:10249000535F555345000000000000000028000075
:1024A00000803F04045941575F50000000000000C5
:1024B000000000001C00CDCCCC3E040552505F5003
:1024C00000000000000000000000002000CDCCCC87
:1024D0003E010657494E445F4D4158000000000040
:1024E00000002A000000000001074241524F5F55E2
:1024F000534500000000000000290000000000001B
:10250000FF000000000000000000000000000000CC
:102510000000000000000400500000000000000067
:10252000000000000000000000000000000401495D
:102530000000000000000000000000000000040097
:102540000000000004024400000000000000000041
:1025500000000000000800000000000203494D4197
:102560005800000000000000000000000C00000007
:10257000000000FF0000000000000000000000005C
:1025800000000000000000000002004D494E000065
:10259000000000000000000000000A0000808944E4
:1025A00002015452494D00000000000000000000EC
:1025B000000C000080BB4402024D415800000000A6
:1025C00000000000000000000E000080ED44010348
:1025D00052455600000000000000000000000015F9
:1025E000000000803F0204445A0000000000000088
:1025F00000000000000016000000000000FF0000C6
:1026000000000000000000000000000000000000CA
:1026100000000008000000000000000000000000B2
:1026200000000000000089250000010146554E43CE
:1026300054494F4E0000000000000022000000003E
:102640000000FF000000000000000000000000008B
:102650000000000000000000010054524947475F9D
:102660005459504500000000000B0000000000001D
:10267000FF0000000000000000000000000000005B
:102680000000000000000100454E41424C450000A2
:10269000000000000000000B000000803F01015519
:1026A00053450000000000000000000000000A0088
:1026B0000000000004024F4646534554000000004D
:1026C000000000000002000000000004035241541A
:1026D000494F000000000000000000000600492EE5
:1026E000FF3F00FF000000000000000000000000AD
:1026F00000000000000000000001004D4F444500B4
:102700000000000000000000000036000000000093
:10271000050152455452414354000000000000009E
:102720000047000000000005024E45555452414C40
:10273000000000000000000053000000000005033E
:10274000434F4E54524F4C00000000000000005F09
:1027500000000000000104535441425F524F4C4CB2
:102760000000000000003300000000000105535489
:1027700041425F54494C5400000000000034000006
:102780000000000106535441425F50414E000000DA
:1027900000000000350000000000010752435F49BF
:1027A0004E5F524F4C4C000000000037000000000C
:1027B000000208414E474D494E5F524F4C00000009
:1027C00000003A0000A08CC50209414E474D415817
:1027D0005F524F4C00000000003C0000A08C4501FF
:1027E0000A52435F494E5F54494C540000000000B8
:1027F000380000000000020B414E474D494E5F5427
:10280000494C00000000003E0000A08CC5020C41B5
:102810004E474D41585F54494C00000000004000B5
:1028200000A08C45010D52435F494E5F50414E0060
:102830000000000000390000000000020E414E4779
:102840004D494E5F50414E0000000000420000A084
:102850008CC5020F414E474D41585F50414E00001C
:10286000000000440000A08C4501104A5354494325
:102870004B5F535044000000000046000000000081
:1028800000FF000000000000000000000000000049
:102890000000000000000096918C87827D78736EA6
:1028A00069645F5A55504B46413C37322D28231EF0
:1028B00019140F0A050004090E13181D22272C31C4
:1028C000363B40454A4F54595E63686D72777C8150
:1028D000868B90959A9FA4A9AEB3AFAAA5A09B960C
:1028E0008F89837E78736E69645F5A55504B474277
:1028F0003E3935302C27231F1B16120E0905010304
:10290000070B1014191D22262B2F34393D42474C3A
:1029100051565B60656B70757B80868C92979DA32A
:10292000A9AFB2ACA6A09A948F827C76706B6560DA
:102930005C57524E4A46413D3936322E2A26221FD6
:102940001B1713100C08040102060A0E12161A1E99
:1029500022262B2F33383D41464B4F54595E646934
:102960006F747A80878D949BA2AAB1AEA69F979030
:1029700089826F68635E5955514D4946423F3C38E4
:1029800035322E2B2824211E1A1714100D0A060387
:10299000000306090D1014181C2024282C3034398B
:1029A0003D41464A4F54585D62676D737980878F09
:1029B00098A2ACB0A59A90867D766F55514D4A4746
:1029C00044413F3C3A383533312E2B292623201DF4
:1029D0001A1713100D0A070401010306090D10133D
:1029E000171A1E22262A2E32363A3E42464A4E53A5
:1029F000575B5F64696E757C85909FB2A08D7D701A
:102A000067605A553E3C3A393736343332302F2ED0
:102A10002C2A292724221F1C191613100D0A07041B
:102A200002000305080A0D1013161A1D2125292D71
:102A30003135383C4043464A4D505356595B5E61F0
:102A400065696F826D544D4A474442403E2E2E2D9B
:102A50002C2C2B2A2A2929282726252423211F1C10
:102A60001A1714100D0A07040101030507090C0EBB
:102A70001013161A1D2124282C3033373A3D4042BA
:102A80004447484A4A4B4A48443D301902162128D7
:102A90002B2D2E2F2E2E06090C0F121517191B1C6D
:102AA0001B1811040E2231383C3C3C3A3835322F89
:102AB0002B2824201C1915110D09050102060A0EE8
:102AC0001115181C1F222527292A2B2B29262119ED
:102AD00011080004080A0A0A08070402000306167F
:102AE000181A1C1E20211F1712516063625F5D5966
:102AF00056524E4A46423E3935312C2824201B1767
:102B0000130E0A060102060A0F13171B1F23262A9B
:102B10002D313437393C3D3F3F3E3D39352F28215B
:102B20001C17151313131416A8ADB2B0ABA6A19CB5
:102B300097928D88837E79746F6A65605B56514C7D
:102B400047423D38332E29241F1A15100B06010366
:102B5000080D12171C21262B30353A3F44494E539D
:102B6000585D62676C71767B80858A8F94999EA38D
:102B7000A800000001FFFFE000000000000001FFCE
:102B8000FFF000000000000001FFFFF8000000005F
:102B9000000001FFFFFE00000000000003FFFFFF38
:102BA00000000000000003FFFFFFF0000000000035
:102BB0000FFFFFFFFE00000003FFFFFC000007FC0B
:102BC00000007FFFFFFC000000000000001FFFFE70
:102BD0000000000000241E191512100E0C0B0A092B
:102BE0000909080808070606050404040304040488
:102BF00000000000000000000000272621232523FC
:102C000025242722292A2A1C27282B33322725224C
:102C10002C3331303700000000000000000000803D
:102C200011401140713273343332131211321112C8
:102C3000933413145352310021030406080B2D0A58
:102C4000090705040241C011C051125354731211F7
:102C50001251527314733231002102040506070821
:102C600009080607062403020102000120012011C1
:102C7000C00111003132137413143312F112D31244
:102C8000510001022325060746442342210001E0AA
:102C9000A0313213B433111211001120110052333C
:102CA000121332112001222485042304020342411D
:102CB0000001E0A0511214131513153413325140C2
:102CC00001201152133231000122230405040504AE
:102CD00023010382612001E0118011321354151485
:102CE0003332314021020100317231410223442349
:102CF00002012201220102614001A011805112143F
:102D00001334151433123140010201030201205221
:102D1000111220212243042241022102A10001E0DC
:102D20002011405153741332114021020302030257
:102D3000010011121132001141222322210041020F
:102D4000A18001601160110011323374131211401F
:102D5000016203020321311211121140010201022A
:102D6000030201000100E121E0A0112012117334DF
:102D7000333120016203624012111211001101006F
:102D8000010201220001200100E1C00100118011B7
:102D90000012111312141334522001E202212031C7
:102DA0001211001100010021020100014021000266
:102DB000410001E060114011121113121413141399
:102DC00032110021220342010221000100110012F0
:102DD00011001120010041600100C10001401120DB
:102DE00001601140511213121314331231000142C9
:102DF00003220102210001401100310011000100F5
:102E0000010001A0E10001A00180112031529312C4
:102E1000110021C2210021403100112011000100C8
:102E200001E0E16001E011001172731231002142F2
:102E30000301020102202140110011201160014014
:102E40001160010001022102000120014001A05196
:102E5000321312533211200102018221002100019C
:102E600000110031E0001100116021000102010297
:102E70000101002120010001601100115213121400
:102E80001352110041820102000100214011001182
:102E90000011A01100310011208122010100020166
:102EA000002100016011005213121314133231017A
:102EB0000002012201420100210001000111201144
:102EC0000011201140710011400102210201020194
:102ED0000021022100010001001100121112331221
:102EE000341332112001020142012201004100018C
:102EF00060112011001100110051123120610201F6
:102F000022020002010281201100121173341332D7
:102F100011004102018201006100018011001100D5
:102F2000913231402142010202006261401152148B
:102F3000135433310041820122000102004100019B
:102F400060911211525120012201030102020082FC
:102F50006100513354151433310021020122034220
:102F60004102A18031921332310041220302010358
:102F70000022032201020140111233953331010076
:102F800022010342032221220102610001110011EA
:102F90005213125312310041220322030023020371
:102FA00002010221203213141615171615331120B1
:102FB000016203020302032201A2414011125314D1
:102FC0001314133211010002010203020302020072
:102FD0000223020322212032141637181715131268
:102FE0001100212203024302430103020382212034
:102FF0001112131415341514321100016223020347
:103000000043020342012012131518193A17151331
:103010001100210203026304E3020302030201021E
:1030200040121314151715163412202122430203DF
:1030300000A3220100111215181C1E1D19161311D0
:1030400000020103020304230403240304430423B2
:1030500004030203422011121415171836151331F8
:103060002102030223020300002100240027002A7A
:10307000002D003000330001010000040107010AA7
:103080000100002200250028002B002E0031003412
:103090000002010000050108010B010000200023CF
:1030A00000260029002C002F003200000100000340
:1030B00001060109010505050507050808080802BC
:1030C0000202020A0A0808040404040101010101C1
:1030D0000101010303030303030303040707070CB0
:1030E0000C0C0C0C0C0C0C02020202060606060666
:1030F0000606060B0B0B0B0B0B0B0B010210202013
:10310000080810204010204080020102010804023B
:1031100001010204081020408080402010080402B1
:10312000018004020180402010080402010804020A
:103130000101020408102040800102040810204010
:10314000800000090A02080B0C0D070603040100A9
:10315000000000000000000000000000000000006F
:103160000000000000000000000000000011100F2F
:10317000000000000000000000000000000000004F
:1031800000000000000000494E46494E4954594E87
:10319000414ECDCCCC3D0AD7233C17B7D13877CCA4
:1031A0002B329595E6241FB14F0A00002041000004
:1031B000C84200401C4620BCBE4CCA1B0E5AAEC5BD
:1031C0009D744245A9B684D211241FBECFEFD1E22F
:1031D000DEBFCDBF00E00CBF16E0A0E0B2E0E4E946
:1031E000F4EF01E00BBF02C007900D92A034B107CD
:1031F000D9F71BBE11E1A0E4B6E001C01D92AD39C4
:10320000B107E1F711E3C8ECD1E304C02297FE0156
:103210000E9431FAC23CD107C9F70E942BF30C94EB
:1032200048FA0C940000283008F027E03327DA0130
:10323000990F311D87FD916000966105710539F484
:1032400032602E5F3D9330E32A95E1F708959F3F6A
:1032500030F080387105610509F03C5F3C5F3D93BB
:10326000913008F08068911DDF93CF931F930F93E7
:10327000FF92EF92192F987F9695E92F9695969544
:10328000E90FFF27EB58FD4D99273327EE24FF2444
:10329000A701E70105900894079428F4360FE71E6C
:1032A000F81E491F511D660F771F881F991F06942E
:1032B000A1F70590079428F4E70EF81E491F561F42
:1032C000C11D770F881F991F661F0694A1F70590EF
:1032D000079428F4F80E491F561FC71FD11D880FE9
:1032E000991F661F771F0694A1F70590079420F495
:1032F000490F561FC71FD81F990F661F771F881FBA
:103300000694A9F784911095177041F0D695C7954A
:1033100057954795F794E7941A95C1F7EBE1F2E2D8
:1033200068941590159135916591959105907FE27E
:103330007395E118F10A430B560BC90BD009C0F77E
:10334000E10CF11E431F561FC91FD01D7EF47033C0
:1033500011F48A95E6CFE894015030F0080F0AF492
:103360000027021708F4202F2395022F7A3328F024
:1033700079E37D932A95E9F710C07D932A9589F624
:10338000069497956795379517951794E118F10A64
:10339000430B560BC90BD00998F023957E9173957A
:1033A0007A3308F070E37C932013B8F77E91706154
:1033B0007D9330F0839571E37D9370E32A95E1F777
:1033C0001124EF90FF900F911F91CF91DF919927DA
:1033D00087FD90950895FA01AA27283051F12031F0
:1033E00081F1E8946F936E7F6E5F7F4F8F4F9F4F99
:1033F000AF4FB1E03ED0B4E03CD0670F781F891FDB
:103400009A1FA11D680F791F8A1F911DA11D6A0FA8
:10341000711D811D911DA11D20D009F468943F915B
:103420002AE0269F11243019305D3193DEF6CF015A
:103430000895462F4770405D4193B3E00FD0C9F720
:10344000F6CF462F4F70405D4A3318F0495D31FD8D
:103450004052419302D0A9F7EACFB4E0A6959795E0
:10346000879577956795BA95C9F7009761057105B6
:1034700008959B01AC010A2E069457954795379500
:103480002795BA95C9F7620F731F841F951FA01D5A
:103490000895A0E3B0E0EFE4FAE10C94F8F9A8E0B5
:1034A0004E010894811C911CF401BA2F1192BA9517
:1034B000E9F729833A834B835C836D837E838F8313
:1034C0009887CE010996FC011192AA95E9F7A98681
:1034D000BA86CB86DC86ED86FE860F87188B29811F
:1034E0003A814B815C812DA73EA74FA758AB79014C
:1034F0008A018FEF9FEFA0E0B0E0E822F9220A23D3
:103500001B231A014424552429853A854B855C8563
:1035100029A73AA74BA75CA759016A01A822B9229B
:10352000CA22DB223A0188249924C601B501A801E8
:1035300097010E9475F96DA37EA38FA398A7C4017C
:10354000B3010E9475F969A37AA38BA39CA3C6015A
:10355000B501A20191010E9475F97B018C01C401A2
:10356000B3010E9475F95B016C0189A19AA1ABA11D
:10357000BCA18E0D9F1DA01FB11F89A39AA3ABA351
:10358000BCA32DA13EA14FA158A5CA01AA27BB27C4
:1035900029A13AA14BA15CA1280F391F4A1F5B1F2B
:1035A00029A33AA34BA35CA32E153F05400751075F
:1035B00040F480E090E0A1E0B0E0A80EB91ECA1E81
:1035C000DB1E89A19AA1ABA1BCA19D01442755276F
:1035D0002A0D3B1D4C1D5D1D2D8F3E8F4F8F58A317
:1035E0006C01BB24AA248DA19EA1AFA1B8A5A07097
:1035F000B070A80EB91ECA1EDB1EA98EBA8ECB8E65
:10360000DC8E9A8C8B8C7C8C9E8D6F8D78A1FE01CC
:10361000719688E0DF011D928A95E9F72D8B9E8BCC
:103620006F8B788F2D853E854F8558896DA57EA53A
:103630008FA598A90E9475F97B018C012D813E818F
:103640004F81588569A57AA58BA59CA50E9475F91F
:10365000E60EF71E081F191F6D897E898F89988DC8
:103660006E0D7F1D801F911F6D8B7E8B8F8B988FB2
:10367000EE892A2D392D482D572D7E2F8F89988D33
:10368000E096E2E10C9414FAEF92FF920F93DF932D
:10369000CF93CDB7DEB760970FB6F894DEBF0FBEFD
:1036A000CDBFA82F002309F461C07E010894E11C5E
:1036B000F11C88E0F70111928A95E9F729833A8392
:1036C0004B835C836D837E83AF83988780E2801B0E
:1036D000E82FFF27E7FDF09549815A816B817C81B6
:1036E000181684F019861A861B861C868827992747
:1036F0008E1B9F0B04C0440F551F661F771F8A95B2
:10370000D2F728C0202F332727FD3095DB01CA01CF
:10371000022E04C0880F991FAA1FBB1F0A94D2F75C
:1037200089879A87AB87BC8704C07695679557953C
:103730004795EA95D2F78D819E81AF81B88504C007
:10374000880F991FAA1FBB1F2A95D2F7482B592B08
:103750006A2B7B2B4D875E876F87788B29853A850F
:103760004B855C856D857E85AF8598898A2F6096AF
:103770000FB6F894DEBF0FBECDBFCF91DF910F9192
:10378000FF90EF900895AEE5B0E0E9ECFBE10C941A
:10379000F8F9A8E04E010894811C911CF4016A2EEE
:1037A00011926A94E9F729833A834B835C836D8392
:1037B0007E838F839887CE010996FC011192AA958A
:1037C000E9F7A986BA86CB86DC86ED86FE860F876A
:1037D000188B29843A844B845C84ED84FE840F85A5
:1037E000188969807A808B809C806DA67EA68FA6C2
:1037F00098AA6D807E808F809884E114F104010581
:10380000110509F0B3C3621473048404950408F02D
:103810003DC100E0201600E0300601E0400600E077
:10382000500688F41FEF211631044104510439F089
:1038300030F048E0E42EF12C012D112D18C0EE24BB
:10384000FF24870114C020E0221620E0320620E089
:10385000420621E0520630F038E1E32EF12C012D32
:10386000112D05C020E1E22EF12C012D112DD201E8
:10387000C1010E2C04C0B695A795979587950A941B
:10388000D2F785599D4FDC012C9180E290E0A0E0B9
:10389000B0E08E199F09A00BB10B7C018D01E21ADB
:1038A000F10801091109E114F10401051105A1F163
:1038B0000E2C04C0220C331C441C551C0A94D2F755
:1038C000A40193010E2C04C0220F331F441F551F67
:1038D0000A94D2F780E290E08E199F096DA47EA42D
:1038E0008FA498A804C096948794779467948A9537
:1038F000D2F7622A732A842A952AADA4BEA4CFA443
:10390000D8A804C0AA0CBB1CCC1CDD1CEA94D2F7BE
:10391000ADA6BEA6CFA6D8AA6201EE24FF24CDAAEA
:10392000DEAAEFAAF8AE920181012070307009AFD3
:103930001AAF2BAF3CAFC401B301A70196010E949F
:10394000BBF97B018C01C401B3012DA93EA94FA98C
:1039500058AD0E94BBF9C901DA013C014D01C40117
:10396000B30129AD3AAD4BAD5CAD0E9475F99B0139
:10397000AC018701FF24EE24ADA4BEA4CFA4D8A837
:10398000C601AA27BB2757016801A82AB92ACA2A53
:10399000DB2AA216B306C406D506E0F40894610833
:1039A000710881089108A20CB31CC41CD51CA21478
:1039B000B304C404D50470F0A216B306C406D50639
:1039C00048F408946108710881089108A20CB31C9E
:1039D000C41CD51CA21AB30AC40AD50AC601B50173
:1039E0002DA93EA94FA958AD0E94BBF97B018C01BE
:1039F000C601B5012DA93EA94FA958AD0E94BBF93A
:103A0000C901DA015C016D01C601B50129AD3AAD0C
:103A10004BAD5CAD0E9475F99B01AC018701FF24A1
:103A2000EE248DA59EA5AFA5B8A9A070B070E82A18
:103A3000F92A0A2B1B2BE216F30604071507C0F41C
:103A40000894A108B108C108D108E20CF31C041DB8
:103A5000151DE214F3040405150550F0E216F306F3
:103A60000407150728F40894A108B108C108D10873
:103A7000D3019927882786017501E82AF92A0A2B9C
:103A80001B2BE9AAFAAA0BAB1CABCFC4211431043F
:103A90004104510471F461E070E080E090E020E0C6
:103AA00030E040E050E00E94BBF9C901DA011C019E
:103AB0002D0100E0201600E0300601E0400600E0A5
:103AC000500688F41FEF211631044104510431F0EF
:103AD00028F048E050E060E070E017C040E050E0BF
:103AE00060E070E012C020E0221620E0320620E004
:103AF000420621E0520628F048E150E060E070E024
:103B000004C040E150E060E070E0D201C101042E49
:103B100004C0B695A795979587950A94D2F78559CD
:103B20009D4FDC012C91E0E2EE2EF12C012D112DA8
:103B3000D801C701841B950BA60BB70B821B9109FB
:103B4000A109B1090097A105B10561F46401530110
:103B5000A218B308C408D50831E0632E712C812C5B
:103B6000912C1EC16F968FAF6F97082E04C0220C48
:103B7000331C441C551C0A94D2F7EE2DE81B64013B
:103B800053010E2E04C0D694C794B794A7940A94F8
:103B9000D2F7A40193016F960FAC6F9704C0220F68
:103BA000331F441F551F0A94D2F76DA47EA48FA41F
:103BB00098A80E2E04C096948794779467940A94DC
:103BC000D2F784017301E22AF32A042B152BE9A60C
:103BD000FAA60BA71CA7320188249924920181011F
:103BE0002070307021960CAF1DAF2EAF3FAF2197E4
:103BF000C601B501A40193010E94BBF97B018C01B0
:103C0000C601B501A40193010E94BBF9C901DA0103
:103C100025968CAF9DAFAEAFBFAF2597BC01CD0150
:103C200021962CAD3DAD4EAD5FAD21970E9475F94B
:103C30009B01AC018701FF24EE24A9A4BAA4CBA464
:103C4000DCA4C601AA27BB275C016D01AE28BF28F2
:103C5000C02AD12AA216B306C406D50660F5259659
:103C60006CAD7DAD8EAD9FAD2597615070408040AD
:103C7000904025966CAF7DAF8EAF9FAF2597A20C7D
:103C8000B31CC41CD51CA214B304C404D50498F0FE
:103C9000A216B306C406D50670F461507040804089
:103CA000904025966CAF7DAF8EAF9FAF2597A20C4D
:103CB000B31CC41CD51CA21AB30AC40AD50AC60177
:103CC000B501A40193010E94BBF97B018C01C601DF
:103CD000B501A40193010E94BBF9C901DA013C01BD
:103CE0004D01C401B30121962CAD3DAD4EAD5FAD8C
:103CF00021970E9475F99B01AC018701FF24EE24F6
:103D000089A59AA5ABA5BCA5A070B07057016801A4
:103D1000A82AB92ACA2ADB2AA216B306C406D506DF
:103D2000E0F408946108710881089108A20CB31CA2
:103D3000C41CD51CA214B304C404D50470F0A2168C
:103D4000B306C406D50648F40894610871088108D2
:103D50009108A20CB31CC41CD51C8DA59EA5AFA5B3
:103D6000B8A96F960FAC6F9704C0880F991FAA1F50
:103D7000BB1F0A94D2F78DA79EA7AFA7B8ABA21A14
:103D8000B30AC40AD50A2596ECACFDAC0EAD1FAD46
:103D90002597D70199278827682A792A8A2A9B2A72
:103DA00082012227332729960CAF1DAF2EAF3FAFDC
:103DB0002997A2019101407050702D962CAF3DAF14
:103DC0004EAF5FAF2D97C601B50129962CAD3DAD25
:103DD0004EAD5FAD29970E94BBF97B018C01C601F6
:103DE000B50129962CAD3DAD4EAD5FAD29970E9432
:103DF000BBF9C901DA0161968CAF9DAFAEAFBFAF21
:103E00006197BC01CD012D962CAD3DAD4EAD5FADA2
:103E10002D970E9475F99B01AC018701FF24EE24C8
:103E2000ADA4BEA4CFA4D8A8C601AA27BB2757011A
:103E30006801A82AB92ACA2ADB2AA216B306C40630
:103E4000D50660F561966CAD7DAD8EAD9FAD619789
:103E5000615070408040904061966CAF7DAF8EAFF6
:103E60009FAF6197A20CB31CC41CD51CA214B30451
:103E7000C404D50498F0A216B306C406D50670F49F
:103E8000615070408040904061966CAF7DAF8EAFC6
:103E90009FAF6197A20CB31CC41CD51CA21AB30A15
:103EA000C40AD50AC601B50129962CAD3DAD4EAD6B
:103EB0005FAD29970E94BBF97B018C01C601B5015A
:103EC00029962CAD3DAD4EAD5FAD29970E94BBF953
:103ED000C901DA015C016D01C601B5012D962CAD59
:103EE0003DAD4EAD5FAD2D970E9475F99B01AC01C4
:103EF0008701FF24EE248DA59EA5AFA5B8A9A070CB
:103F0000B070E82AF92A0A2B1B2BE216F3060407E5
:103F10001507C0F40894A108B108C108D108E20C43
:103F2000F31C041D151DE214F3040405150550F0DF
:103F3000E216F3060407150728F40894A108B1084F
:103F4000C108D1086196ECACFDAC0EAD1FAD619718
:103F5000D7019927882796018501082B192B2A2B31
:103F60003B2B09AB1AAB2BAB3CAB62C26E147F048C
:103F70008006910608F451C220E0E21620E0F20625
:103F800021E0020720E0120788F43FEFE316F10476
:103F90000105110531F028F048E050E060E070E0E4
:103FA00017C040E050E060E070E012C040E0E4166E
:103FB00040E0F40640E0040741E0140728F048E13F
:103FC00050E060E070E004C040E150E060E070E08C
:103FD000D801C701042E04C0B695A795979587957B
:103FE0000A94D2F785599D4FDC012C9130E2A32E23
:103FF000B12CC12CD12CD601C501841B950BA60B6D
:10400000B70B821B9109A109B1090097A105B10560
:1040100089F4E614F7040805190508F4F2C16DA443
:104020007EA48FA498A8621473048404950408F0F5
:10403000E8C1F3C16E968FAF6E97082E04C0EE0CE8
:10404000FF1C001F111F0A94D2F76A2D681BD201B2
:10405000C101062E04C0B695A795979587950A9439
:10406000D2F75C016D01AE28BF28C02AD12AADA2CB
:10407000BEA2CFA2D8A6720161016E960FAC6E9758
:1040800004C0CC0CDD1CEE1CFF1C0A94D2F7C9A2A4
:10409000DAA2EBA2FCA264015301062E04C0D6945E
:1040A000C794B794A7940A94D2F7D401C3016E962B
:1040B0000FAC6E9704C0880F991FAA1FBB1F0A94EC
:1040C000D2F7EDA4FEA40FA518A904C01695079574
:1040D000F794E7946A95D2F737014801682A792A5C
:1040E0008A2A9B2A6D8E7E8E8F8E98A2EDA0FEA0CE
:1040F0000FA118A538018824992498018701207000
:10410000307065960CAF1DAF2EAF3FAF6597C601FF
:10411000B501A40193010E94BBF97B018C01C6018A
:10412000B501A40193010E94BBF9C901DA011C0188
:104130002D01C201B10165962CAD3DAD4EAD5FAD17
:1041400065970E9475F99B01AC018701FF24EE245D
:10415000AD8CBE8CCF8CD8A0C601AA27BB27570137
:104160006801A82AB92ACA2ADB2AA216B306C406FD
:10417000D50600F508942108310841085108EDA042
:10418000FEA00FA118A5AE0CBF1CC01ED11EAE1400
:10419000BF04C006D10670F0A216B306C406D50649
:1041A00048F408942108310841085108AE0CBF1C9E
:1041B000C01ED11EA21AB30AC40AD50AC601B5018F
:1041C000A40193010E94BBF97B018C01C601B501DA
:1041D000A40193010E94BBF9C901DA013C014D0120
:1041E000C401B30165962CAD3DAD4EAD5FAD659795
:1041F0000E9475F99B01AC018701FF24EE248D8D8F
:104200009E8DAF8DB8A1A070B07057016801A82A2B
:10421000B92ACA2ADB2AA216B306C406D50600F5B7
:10422000089461087108810891086DA17EA18FA191
:1042300098A5A60EB71EC81ED91EA616B706C80694
:10424000D90670F0A216B306C406D50648F4089441
:104250006108710881089108A60EB71EC81ED91EF4
:10426000D601C501821B930BA40BB50B898F9A8FC6
:10427000AB8FBC8FD1019927882764015301A82AED
:10428000B92ACA2ADB2AA9AABAAACBAADCAA860119
:1042900075012FEF3FEF40E050E0E222F3220423CC
:1042A0001523A601662777276D964CAF5DAF6EAFDD
:1042B0007FAF6D97A9A0BAA0CBA0DCA06FEF7FEF76
:1042C00080E090E0A622B722C822D92289A19AA133
:1042D000ABA1BCA11D0144245524C801B701A6010E
:1042E00095010E9475F969966CAF7DAF8EAF9FAF57
:1042F0006997C801B701A20191010E9475F93B01BC
:104300004C016D966CAD7DAD8EAD9FAD6D97A601E8
:1043100095010E9475F97B018C016D966CAD7DADA8
:104320008EAD9FAD6D97A20191010E9475F95B0161
:104330006C01A8019701260D371D481D591D69966E
:104340006CAC7DAC8EAC9FAC6997C401AA27BB272F
:10435000280F391F4A1F5B1F2E153F0540075107C5
:1043600048F4E12CF12C61E0062F112DAE0CBF1C9E
:10437000C01ED11ECA01AA27BB27BC01CD016A0DF0
:104380007B1D8C1D9D1D698C7A8C8B8C9C8C66167C
:1043900077068806990640F1661577058805990520
:1043A00009F043C0D9019927882769962CAD3DAD06
:1043B0004EAD5FAD699740705070820F931FA41F80
:1043C000B51F2DA53EA54FA558A96E960FAC6E97AB
:1043D00004C0220F331F441F551F0A94D2F7281719
:1043E00039074A075B0708F509A91AA92BA93CA9AF
:1043F000015010402040304009AB1AAB2BAB3CAB16
:1044000014C066247724430121E030E040E050E00E
:1044100029AB3AAB4BAB5CAB0BC0662477244301B2
:1044200019AA1AAA1BAA1CAA03C06624772443014E
:10443000FE01719688E0DF011D928A95E9F7A9A82F
:10444000BAA8CBA8DCA8A98ABA8ACB8ADC8A6D8AEA
:104450007E8A8F8A988E29A93A894B895C89662D34
:104460007E898F89988DC25ADF4FE2E10C9414FA4D
:104470000F931F93CF93DF93689F8001699F100D67
:10448000789F100D1124C8010DD0EC01009721F088
:1044900060E070E0A80190D1CE01DF91CF911F9133
:1044A0000F910895CF93DF93BC018230910510F4F2
:1044B00062E070E0A0919911B0919A11ED01E0E0F5
:1044C000F0E040E050E021C088819981861797078D
:1044D00069F48A819B81309719F09383828304C0A9
:1044E00090939A1180939911FE0134C0681779074F
:1044F00038F44115510519F08417950708F4AC01FB
:10450000FE018A819B819C01E9012097E9F6411512
:104510005105A9F1CA01861B970B049708F4BA014B
:10452000E0E0F0E02AC08D919C91119784179507E7
:10453000F9F46417750781F412968D919C91139785
:10454000309719F09383828304C090939A118093DB
:104550009911FD0132964CC0CA01861B970BFD01D3
:10456000E80FF91F6193719302978D939C9340C05C
:10457000FD01828193819C01D9011097A1F6809160
:10458000971190919811892B41F480916D0390912E
:104590006E03909398118093971140916F035091FF
:1045A00070034115510541F44DB75EB780916B031F
:1045B00090916C03481B590B2091971130919811E1
:1045C000CA01821B930B8617970780F0AB014E5FE1
:1045D0005F4F8417950750F0420F531F5093981167
:1045E00040939711F9016193719302C0E0E0F0E00C
:1045F000CF01DF91CF910895CF93DF93009709F416
:1046000050C0EC0122971B821A82A0919911B0919F
:104610009A11109709F140E050E0AC17BD0708F17E
:10462000BB83AA83FE0121913191E20FF31FAE17E4
:10463000BF0779F48D919C911197280F391F2E5F38
:104640003F4F3983288312968D919C9113979B83BA
:104650008A834115510571F4D0939A11C093991131
:1046600020C012968D919C911397AD01009711F087
:10467000DC01D3CFFA01D383C28321913191E20FC0
:10468000F31FCE17DF0769F488819981280F391F3E
:104690002E5F3F4FFA01318320838A819B81938370
:1046A0008283DF91CF91089566277727F1C21F9308
:1046B000FC0199278827BC01E89411911032E9F395
:1046C000193010F01E30C8F31B3249F01D3241F48E
:1046D000689405C0CDD0610F711D811D911D119190
:1046E00010531A30B8F33EF490958095709561950B
:1046F0007F4F8F4F9F4F1F910895FB01DC0102C038
:1047000005900D9241505040D8F70895FB01DC010F
:104710008D9181341CF08B350CF4805E6591613491
:104720001CF06B350CF4605E861B611189F3990BEC
:104730000895FB01DC018D91059080190110D9F3DA
:10474000990B0895FC0105900020E9F7809590955C
:104750008E0F9F1F0895FB01DC014150504030F047
:104760008D910590801919F40020B9F7881B990BD9
:104770000895FB01DC014150504048F005900D9236
:104780000020C9F701C01D9241505040E0F7089544
:10479000FC010590615070400110D8F7809590950C
:1047A0008E0F9F1F0895FB01DC0102C001900D9246
:1047B00041505040D8F70895DC0101C06D9341503D
:1047C0005040E0F70895FB01DC018D9101908019C4
:1047D0000110D9F3990B0895FB01DC0141505040C1
:1047E00048F001900D920020C9F701C01D92415080
:1047F0005040E0F70895FC016150704001900110B5
:10480000D8F7809590958E0F9F1F0895009731F4EB
:10481000DA018D919C91009709F40EC0DC01FB0137
:104820003D912191222319F03217C9F3FACF332396
:1048300031F4DA011D921C92882799270895119767
:10484000AF93BF93FB013D912191321771F4332354
:1048500021F488279927119702C01E921196FA0118
:10486000A193B0839F918F910895222369F7EACF96
:10487000592F482F372F262F660F771F881F991F14
:10488000660F771F881F991F620F731F841F951F64
:10489000660F771F881F991F0895AEE0B0E0E3E52B
:1048A000F4E20C9406FA8C0177FF02C060E070E835
:1048B000615070407E836D831A83098386E08C8308
:1048C000CE010196BA01A90111D02D813E8137FD9B
:1048D00009C0EF81F8852E173F070CF4F901E00FAE
:1048E000F11F10822E96E4E00C9422FAABE0B0E0C7
:1048F000ECE7F4E20C94F8F93C012B015A01FC01BD
:1049000017821682838181FD03C06FEF7FEFBBC1E9
:104910009AE0892E1E010894211C311CF301238189
:10492000F20123FD859123FF81912F01882309F452
:10493000A7C1853239F423FD859123FF81912F0191
:10494000853221F490E0B30118D3E8CF982FFF24EB
:10495000EE249924FFE1FF15D0F09B3269F09C32E0
:1049600028F4903259F0933291F40EC09D3249F000
:10497000903369F441E024C052E0F52A84E0F82A3B
:1049800028C098E0F92A25C0E0E1FE2A22C0F7FC01
:1049900029C0892F80538A3070F4F6FE05C0989C98
:1049A000902C1124980E15C0E89CE02C1124E80EE0
:1049B000F0E2FF2A0EC09E3229F4F6FC61C140E409
:1049C000F42A07C09C3619F450E8F52A02C098363C
:1049D00049F4F20123FD959123FF91912F01992331
:1049E00009F0B8CF892F8554833018F08052833076
:1049F00038F444E050E0A40EB51E5FE359830FC0C5
:104A0000933631F0933779F0933509F052C01FC0D7
:104A1000F5018081898342E050E0A40EB51E61015A
:104A200001E010E011C0F501C080D180F6FC03C0A8
:104A30006FEF7FEF02C0692D70E042E050E0A40EFE
:104A4000B51EC601D8DE8C015FE7F52213C0F50163
:104A5000C080D180F6FC03C06FEF7FEF02C0692DEC
:104A600070E042E050E0A40EB51EC60191DE8C015C
:104A700050E8F52AF3FE06C018C080E290E0B301CA
:104A80007CD2EA948E2D90E008171907B0F30DC080
:104A9000F601F7FC8591F7FE81916F0190E0B3017B
:104AA0006CD2E110EA94015010400115110581F714
:104AB000E4C0943611F0993669F5F7FE08C0F501A7
:104AC000208131814281538184E090E00AC0F50168
:104AD000808191819C01442737FD4095542F82E0CD
:104AE00090E0A80EB91E9FE6F92257FF09C0509525
:104AF0004095309521953F4F4F4F5F4FE0E8FE2A9C
:104B0000CA01B901A1012AE030E00E94EB19D82EB8
:104B1000D21840C0953729F41F2D1F7E2AE030E0BF
:104B20001DC01F2D197F9F3661F0903720F49835F6
:104B300009F0A6C00FC0903739F0983709F0A0C02F
:104B400004C028E030E00AC0106114FD146020E1C8
:104B500030E004C014FD166020E132E017FF08C009
:104B6000F501608171818281938144E050E008C049
:104B7000F50180819181BC0180E090E042E050E04D
:104B8000A40EB51EA1010E94EB19D82ED2188FE7F2
:104B9000F82EF122F6FE0BC05EEFF522D91438F4A0
:104BA000F4FE07C0F2FC05C08FEEF82202C01D2DF6
:104BB00001C0192DF4FE0DC0FE01ED0DF11D808127
:104BC000803319F499EEF92208C01F5FF2FE05C088
:104BD00003C08F2D867809F01F5F0F2DF3FC13C0E3
:104BE000F0FE0EC01E1510F09D2C0AC09D2C9E0CD0
:104BF000911A1E2D05C080E290E0B301BED11F5F67
:104C00001E15C8F304C01E1510F4E11A01C0EE24ED
:104C100004FF0EC080E390E0B301AFD102FF1BC0E0
:104C200001FD03C088E790E00EC088E590E00BC06E
:104C3000802F867881F001FF02C08BE201C080E204
:104C4000F7FC8DE290E0B30198D105C080E390E0DD
:104C5000B30193D19A94D914C8F3DA94F101ED0D0C
:104C6000F11D808190E0B30188D1DD20B1F705C04E
:104C700080E290E0B30181D1EA94EE20C9F74ECEF4
:104C8000F30166817781CB012B96E2E10C9414FA53
:104C9000A0E0B0E0EEE4F6E20C94FEF9EC015B017A
:104CA0006115710519F0FB0191838083F9908F2DB7
:104CB00090E00E943DFA892BC9F7FDE2FF1621F42E
:104CC000F990EE24E39405C02BE2F21609F4F99072
:104CD000EE248E0101501040C80167E871E343E003
:104CE00050E033D1892BF9F48E010E5F1F4FC801BC
:104CF0006AE871E345E050E028D1892B19F48E0170
:104D0000095F1F4FA114B10419F0F501118300834D
:104D1000E0FC04C070E090E080E813C070E090E038
:104D200080E86FEF07C1C8016FE871E343E050E02E
:104D30000CD1892B69F4A114B10429F470E090E03E
:104D400080EC6FE7F7C02296F501D183C083F6CFE0
:104D50008824992440E050E060E070E0EF2DE053BB
:104D6000EA30A0F5F2E0EF2A8E2D90E09C01287049
:104D70003070E2FE06C0232B79F50894811C911C4B
:104D80002BC0232B19F0089481089108DB01CA017C
:104D900012E0880F991FAA1FBB1F1A95D1F7480F61
:104DA000591F6A1F7B1F440F551F661F771F4E0F29
:104DB000511D611D711D483929E9520729E9620712
:104DC00029E1720748F084E0E82A06C0EE3F31F49A
:104DD000E3FC39C098E0E92AF990C0CFE53311F03F
:104DE000E53189F529912D3219F4E0E1EE2A05C06B
:104DF0002B3219F081E090E003C0299182E090E02D
:104E0000E22FE053EA3018F0C81BD90B1CC020E099
:104E100030E0FCE020383F075CF4C901880F991F9F
:104E2000880F991F280F391F220F331F2E0F311D96
:104E3000E991E053EA3068F3E4FE03C03095219530
:104E40003F4F820E931ECE2CDD24E1FE07C0A1143D
:104E5000B10421F02197F501D183C083CB01BA01C0
:104E60000E940BF77B018C01F3E0CF22DD2423E0CD
:104E7000C216D10421F417FB109517F910955701AC
:104E80006801C801B70120E030E040E050E00E9436
:104E90006BF6882309F44AC097FE0DC026EAE22E7D
:104EA00021E3F22E9094819491089394C0E2D0E093
:104EB00000E010E012C09EEBE92E91E3F92EF6CF50
:104EC000F7012591359145915491C601B5010E9494
:104ED000B0F85B016C018C1A9D0A8C169D0684F754
:104EE000D595C7950F5F1F4F0630110529F08CEF40
:104EF0009FEFE80EF91EF1CFC501D6017C018D01AF
:104F00008C2D880F8D2D881F8F3F51F0C601B50164
:104F100020E030E040E050E00E946BF6882331F45E
:104F200082E290E090939C1180939B117E2D9F2DA7
:104F3000802F612F272F392F482F562FB901CA01F3
:104F4000CDB7DEB7ECE00C941AFAFB01DC0141505E
:104F5000504088F08D9181341CF08B350CF4805ECC
:104F6000659161341CF06B350CF4605E861B611139
:104F700071F3990B0895881BFCCF0F931F93CF9368
:104F8000DF938C01EB018B8181FF1BC082FF0DC081
:104F90002E813F818C819D812817390764F4E88137
:104FA000F9810193F983E88306C0E885F985802FAC
:104FB0001995892B31F48E819F8101969F838E8371
:104FC00002C00FEF1FEFC801DF91CF911F910F912A
:104FD00008959C01F999FECF32BD21BDF89A60B5C4
:104FE000F999FECF2F5F3F4F32BD21BD2150304098
:104FF000F89A70B5F999FECF2E5F3F4F32BD21BDB3
:1050000022503040F89A80B5F999FECF2D5F3F4F7E
:1050100032BD21BDF89A90B508959C01F999FECF53
:105020001FBA32BD21BD40BD0FB6F894FA9AF99A65
:105030000FBEF999FECF1FBA2F5F3F4F32BD21BD82
:105040002150304050BD0FB6F894FA9AF99A0FBE2D
:10505000F999FECF1FBA2E5F3F4F32BD21BD2250BE
:10506000304060BD0FB6F894FA9AF99A0FBEF999DC
:10507000FECF1FBA2D5F3F4F32BD21BD70BD0FB6B1
:10508000F894FA9AF99A0FBE08950F931F93D801D6
:105090000115110549F0ED91FC910190F081E02D91
:1050A000C80165EC78E219951F910F910895089554
:1050B0000895AF92BF92CF92DF92EF92FF920F933B
:1050C0001F93FC0181AD11AE109256101092551035
:1050D000E0905B10F0905C1000915D1010915E10FC
:1050E00020915710309158104091591050915A10FA
:1050F00057016801A21AB30AC40AD50AA3AAB4AA1E
:10510000C5AAD6AAE0925710F092581000935910F1
:1051100010935A101F910F91FF90EF90DF90CF9056
:10512000BF90AF90089520E0809155109091561057
:10513000892B09F021E0822F0895809155109091DC
:105140005610089560E070E080E090E0089560E01F
:1051500070E080E090E0089560E070E080E090E032
:10516000089560E070E080E090E0089560E070E015
:1051700080E090E0089560E070E080E090E00895C5
:1051800060E070E080E090E0089560935B107093C1
:105190005C1080935D1090935E10809155109091FB
:1051A00056100196909356108093551008950895C7
:1051B000AC01FB01DC01E05CFF4F8CE001900D9243
:1051C0008150E1F7CA010895DC01D496ED91FC917C
:1051D000D597A081B18116962D913C911797CF015B
:1051E000F90119950895FC0180E090E0A0E0B0E09D
:1051F00080839183A283B38384839583A683B783BB
:1052000080879187A287B387CF010895089560E0D2
:1052100070E080E090E0089560E070E080E090E071
:105220000895009729F0019741F02FEF3FEF13C049
:10523000E0918110F091821004C0E0918310F09110
:105240008410A081B1811C962D913C911D97CF01B6
:10525000F90119959C01C90108951F920F920FB68B
:105260000F920BB60F9211242F933F934F938F936E
:105270009F93EF93FF934091C6002091480F309188
:10528000490F2F5F3F4F80914C0F90914D0F282376
:10529000392380914A0F90914B0F2817390779F0E5
:1052A0008091480F9091490FE0914E0FF0914F0F70
:1052B000E80FF91F40833093490F2093480FFF9167
:1052C000EF919F918F914F913F912F910F900BBE36
:1052D0000F900FBE0F901F9018951F920F920FB650
:1052E0000F920BB60F9211242F933F938F939F939E
:1052F000EF93FF9320916A0F30916B0F8091680FAD
:105300009091690F28173907E9F080916A0F909101
:105310006B0FE0916E0FF0916F0FE80FF91F808116
:105320008093C60080916A0F90916B0F0196209137
:105330006C0F30916D0F8223932390936B0F8093AA
:105340006A0F10C02091680F3091690F80916A0F29
:1053500090916B0F2817390729F48091C1008F7D38
:105360008093C100FF91EF919F918F913F912F9179
:105370000F900BBE0F900FBE0F901F9018951F92AD
:105380000F920FB60F920BB60F9211242F933F93EB
:105390004F938F939F93EF93FF934091CE00209173
:1053A000500F3091510F2F5F3F4F8091540F9091CC
:1053B000550F282339238091520F9091530F2817AE
:1053C000390779F08091500F9091510FE091560F6D
:1053D000F091570FE80FF91F40833093510F20933E
:1053E000500FFF91EF919F918F914F913F912F918E
:1053F0000F900BBE0F900FBE0F901F9018951F922D
:105400000F920FB60F920BB60F9211242F933F936A
:105410008F939F93EF93FF932091720F3091730FAF
:105420008091700F9091710F28173907E9F08091E2
:10543000720F9091730FE091760FF091770FE80F54
:10544000F91F80818093CE008091720F9091730F2D
:1054500001962091740F3091750F822393239093BE
:10546000730F8093720F10C02091700F3091710FE5
:105470008091720F9091730F2817390729F480914A
:10548000C9008F7D8093C900FF91EF919F918F910B
:105490003F912F910F900BBE0F900FBE0F901F905A
:1054A00018951F920F920FB60F920BB60F92112400
:1054B0002F933F934F938F939F93EF93FF9340913D
:1054C00036012091600F3091610F2F5F3F4F809127
:1054D000640F9091650F282339238091620F90917A
:1054E000630F2817390779F08091600F9091610F51
:1054F000E091660FF091670FE80FF91F408330933A
:10550000610F2093600FFF91EF919F918F914F91C9
:105510003F912F910F900BBE0F900FBE0F901F90D9
:1055200018951F920F920FB60F920BB60F9211247F
:105530002F933F938F939F93EF93FF932091820F2D
:105540003091830F8091800F9091810F2817390738
:10555000E9F08091820F9091830FE091860FF09196
:10556000870FE80FF91F8081809336018091820FA9
:105570009091830F01962091840F3091850F8223A3
:1055800093239093830F8093820F10C02091800FFC
:105590003091810F8091820F9091830F28173907E6
:1055A00029F4809131018F7D80933101FF91EF913A
:1055B0009F918F913F912F910F900BBE0F900FBE37
:1055C0000F901F9018950F931F93CF93DF936091C7
:1055D000330A6623B1F1C091E30AD091E40A009145
:1055E000820310918303772767FD7095872F972F8C
:1055F0000E940DF720917E0330917F03409180033C
:10560000509181030E94B0F820E030E040E251E484
:105610000E94B0F80E94DAF69801261B370BC217D9
:10562000D3073CF09B01200F311FC217D3070CF4A6
:105630009E013093E40A2093E30A3093830320937E
:105640008203DF91CF911F910F910895CF92DF9246
:10565000EF92FF920F931F93CF93DF93EC016B01B7
:10566000FB01EE0FFF1FEC0FFD1F65A970E080E04E
:1056700090E00E940BF77B018C018AA1882321F422
:105680008B819C81892B51F0C801B70120E030E06B
:1056900040E85EE30E94B0F87B018C01C801B701CD
:1056A00020E030E040E050E00E946BF618160CF06D
:1056B00044C0FE01EC0DFD1DE95BFF4F8081882396
:1056C000D1F5C801B70120E030E048E452E40E947F
:1056D000A5F8181654F40F2EF0E0EF2EF0E0FF2E90
:1056E000F8E40F2FF2E41F2FF02DCC0EDD1E87E41F
:1056F00090E0C80ED91E60E070E088E492E4A80152
:1057000097010E9472F67B018C01C05BDF4F6881BC
:1057100070E0882777FD8095982F0E940DF79B01F8
:10572000AC01C801B7010E948EF50E94DFF6F601B8
:10573000608381E003C08150808380E0DF91CF915E
:105740001F910F91FF90EF90DF90CF9008954F92AF
:105750005F926F927F928F929F92AF92BF92CF9201
:10576000DF92EF92FF920F931F93DF93CF93CDB70A
:10577000DEB72F970FB6F894DEBF0FBECDBF9A2DC0
:10578000A982EB2DBA82FC2DCB82DC82ED82FE82D7
:105790000F83188729873A874B875C876D877E87B9
:1057A0008F874C815D816E817F81C884D984EA8432
:1057B000FB844C845D846E847F8497FE03C020E06C
:1057C00030E00BC080911F0AA82FBB27A7FDB09522
:1057D0009401A815B9050CF49D01D90114E0AA0F94
:1057E000BB1F1A95E1F7A21BB30BA050BB4FE0FD06
:1057F00002C0E0E006C0E0E0232B09F4E1E081E034
:10580000E827F999FECF1FBAB2BDA1BD90BD0FB672
:10581000F894FA9AF99A0FBECD010196F999FECF44
:105820001FBA92BD81BDE0BD0FB6F894FA9AF99AFD
:105830000FBE8C010F5F1F4FF999FECF1FBA12BD2B
:1058400001BDF0BD0FB6F894FA9AF99A0FBEC801DF
:105850000196E3DBC8010596B701A601DEDBC801AE
:105860000996B301A201D9DB2F960FB6F894DEBFDB
:105870000FBECDBFCF91DF911F910F91FF90EF90A1
:10588000DF90CF90BF90AF909F908F907F906F9060
:105890005F904F900895CF92DF92EF92FF920F9317
:1058A0001F93DF93CF93CDB7DEB728970FB6F89449
:1058B000DEBF0FBECDBF9C018091260A992787FDD0
:1058C00090958217930740F4CC24DD24760180E084
:1058D00090E0A0E0B0E015C0890104511E4F83E0C4
:1058E000000F111F8A95E1F7C80173DBAC01CB01F2
:1058F000DA016C017D01C80104966BDBAC01CB01C0
:10590000DA01C982DA82EB82FC828D839E83AF83C7
:10591000B8872C2D3A814B815C81682F7E818F81E5
:10592000988528960FB6F894DEBF0FBECDBFCF91F5
:10593000DF911F910F91FF90EF90DF90CF9008952E
:105940002091970A3091980A8091A30A9091A40A15
:10595000281B390B253631051CF08AE08093970D02
:105960002C593F4F1CF486EF8093970D8091970D33
:1059700018161CF481508093970D8091970D87FF26
:1059800003C08F5F8093970D8091970D813019F040
:105990008F3F09F080E00895AF92BF92CF92DF92DF
:1059A000EF92FF920F931F93CF93DF93EC015A0175
:1059B0006B018E81882351F4CB01BA010E940DF74F
:1059C0006F83788789879A8781E08E83EA80FB805E
:1059D0000C811D81C601B5010E940DF79B01AC0130
:1059E000C801B7010E94B0F85B016C0160E070E093
:1059F00080E89FE3A80197010E948DF52F813885EB
:105A000049855A850E94B0F89B01AC01C601B501D9
:105A10000E948EF56F83788789879A870E94DAF6CD
:105A20009B01AC01CA01DF91CF911F910F91FF90B3
:105A3000EF90DF90CF90BF90AF900895FC01168259
:105A400008950F931F938C01CB01BA010E940DF7AB
:105A5000F801678370878187928781E086831F9131
:105A60000F910895853021F1863038F48130B1F0FE
:105A7000813078F08230A9F516C08A3019F18B3068
:105A800018F4863071F519C08B3009F18C3049F566
:105A900023C080E496E061E671E127C080E496E0EF
:105AA0006AE571E122C080E496E060E571E11DC025
:105AB00080E496E06AE471E118C080E496E064E472
:105AC00071E113C080E496E06FE371E10EC080E401
:105AD00096E06BE371E109C080E496E064E371E174
