:100000000C941A1B0D94C9340D94FA340D942B35AD
:100010000D945C350D948D350D94BE350D94EF35F2
:100020000D9420360C94471B0C94471B0C94471BD3
:100030000C94471B0C94471B0C94471B0C94DCB985
:100040000C94471B0C94471B0C94471B0C94471BA8
:100050000C94471B0C94471B0C94471B0D94923334
:100060000C94471B0C9423240C9463240C94471B7E
:100070000C94471B0C94471B0C94471B0C94471B78
:100080000C94471B0C94471B0C94471B0C94471B68
:100090000C94B5240C94F5240C94471B0C945AD260
:1000A0000C94471B0C9409BA0C94471B0C94471BE7
:1000B0000C94471B0C94471B0C9436BA0C94471BAA
:1000C0000C94471B0C94471B0C94471B0C94471B28
:1000D0000C94471B0C94471B0C9447250C948725C4
:1000E0000C94471B855D9E5DA65D8D5D965DAE5D46
:1000F000F65DD95DD25DCA5DE05DE75DEF5DBB5D3C
:10010000C35D0E5EFD5D1E5E245E2A5E3E5E305E59
:10011000365E036EDB363D9A9999993DABAAAA2AC1
:100120003E000000803F084AD73B3BCE016E84BCB6
:10013000BFFDC12F3D6C74319ABD56833DDA3D0041
:10014000C77F11BED9E4BB4C3E916BAAAABE00008A
:1001500000803F072C7AA5BA6CC590DA3B9365FC0A
:100160008BBC53F810FD3C5692834DBD879D3AB62B
:100170003DCBC9BF5BBE73DA0FC93F05A84CCDB2FA
:10018000D44EB93836A9020C50B9918688083CA6DD
:10019000AAAA2ABE000000803F08000000BE9224E8
:1001A00049123EABAAAA2ABECDCCCC4C3E000000E0
:1001B00080BEABAAAAAA3E00000000BF00000080DB
:1001C0003F0000000000084178D3BB4387D1133DB6
:1001D000190E3CC3BD4282AD2B3E68EC8276BED97F
:1001E0008FE1A93E4C80EFFFBE01C4FF7F3F0000BE
:1001F00000000002005241575F53454E530000007B
:100200000000000068000000000002014558545F33
:1002100053544154000000000000006A0000000038
:1002200000020252435F4348414E000000000000BC
:1002300000006C000000000002035241575F43546D
:10024000524C000000000000006E000000000002A0
:1002500004504F534954494F4E0000000000000025
:100260007000000000000205455854524131000062
:1002700000000000000000720000000000020645BF
:100280005854524132000000000000000000740089
:10029000000000000207455854524133000000009E
:1002A00000000000007600000000000208504152EB
:1002B000414D5300000000000000000078000000E5
:1002C000000000FF0000000000000000000000002F
:1002D00000000000000000000002464F524D415453
:1002E0005F56455253494F4E00006F0A0000000010
:1002F0000153595349445F53575F545950450000C7
:1003000001710A000000000253595349445F5448E8
:1003100049534D4156000070720A0000803F02535D
:10032000595349445F4D59474353000000007174CD
:100330000A00007F430153455249414C335F42411B
:10034000554400000072760A000064420154454C96
:10035000454D5F44454C41590000000073770A0049
:10036000000000044B46465F50544348434F4D50F5
:10037000000000C8780ACDCC4C3E044B46465F5284
:100380004444524D495800000000C97C0A00000056
:100390003F044B46465F5054434832544852000095
:1003A00000CA800A00000000044B46465F544852D1
:1003B0003250544348000000CB840A000000000182
:1003C0004D414E55414C5F4C4556454C0000001682
:1003D000D30A0000000001535449434B5F4D495874
:1003E000494E4700000019070B0000803F0152559D
:1003F000444445525F53544545520000001E080BCB
:1004000000000000024C414E445F50495443485F95
:100410004344000017DC0A00000000044C414E4435
:100420005F464C4152455F414C54001BDE0A0000C0
:100430004040044C414E445F464C4152455F534559
:1004400043001CE20A00000040045854524B5F472E
:1004500041494E5F5343000000968C0A0000C84299
:10046000025854524B5F414E474C455F4344000095
:1004700097900A00803B45015854524B5F555345B5
:100480005F57494E4400009F920A0000803F025887
:1004900054524B5F4D494E5F4449535400001D93E5
:1004A0000A0000484204414C545F4D495800000086
:1004B000000000000083950A0000803F01414C5479
:1004C0005F4354524C5F414C470000007C990A0046
:1004D00000000002414C545F4F4646534554000013
:1004E00000000020C60A0000000001434D445F5494
:1004F0004F54414C000000000000DD9B0A0000004A
:100500000001434D445F494E44455800000000003F
:1005100000DE9C0A000000000257505F524144492F
:100520005553000000000000DF9D0A0000F041026A
:1005300057505F4C4F495445525F5241440000E0D0
:100540009F0A000070420146454E43455F414354B7
:10055000494F4E000000E1A10A000000000146459D
:100560004E43455F544F54414C00000000E2A20A44
:10057000000000000146454E43455F4348414E4E52
:10058000454C0000E3A30A000000000246454E432C
:10059000455F4D494E414C54000000E4A40A000060
:1005A00000000246454E43455F4D4158414C5400C2
:1005B0000000E5A60A000000000241525350445FCB
:1005C0004642575F4D494E000078A80A0000C040DF
:1005D0000241525350445F4642575F4D415800001C
:1005E00079AA0A0000B04101464257425F454C4596
:1005F000565F52455600007BAC0A000000000154D3
:1006000048525F4D494E0000000000000000B5ADAB
:100610000A00000000015448525F4D41580000009C
:100620000000000000B6AE0A000096420154485295
:100630005F534C455752415445000000BDAF0A007E
:10064000000000015448525F535550505F4D414ED9
:10065000000000BEB00A00000000015448525F468E
:1006600041494C53414645000000B7B10A000080A3
:100670003F025448525F46535F56414C5545000077
:1006800000B8B20A00806D44015452494D5F54488D
:10069000524F54544C450000B9B40A000034420192
:1006A0005448524F54544C455F4E55444745001FE3
:1006B000B50A0000803F0146535F53484F52545FD4
:1006C0004143544E0000BAB60A00000000014653F0
:1006D0005F4C4F4E475F4143544E000000BBB70A8A
:1006E000000000000146535F4743535F454E4142BF
:1006F0004C000000BCB80A0000000001464C544DFC
:100700004F44455F43480000000000D2B90A000092
:10071000004101464C544D4F44453100000000005B
:100720000000D3BA0A0000304101464C544D4F44FA
:10073000453200000000000000D4BB0A0000304138
:1007400001464C544D4F444533000000000000006A
:10075000D5BC0A0000004001464C544D4F4445347E
:1007600000000000000000D6BD0A00000040014665
:100770004C544D4F44453500000000000000D7BEEA
:100780000A0000000001464C544D4F44453600001D
:100790000000000000D8BF0A00000000024C494DD4
:1007A0005F524F4C4C5F43440000000098C00A0069
:1007B000A08C45024C494D5F50495443485F4D4120
:1007C00058000099C20A0080BB44024C494D5F505A
:1007D000495443485F4D494E00009AC40A00401CEA
:1007E000C5015452494D5F4155544F00000000006F
:1007F000000AC80A0000000001454C45564F4E5FF4
:100800004D4958494E4700000DC90A00000000013B
:10081000454C45564F4E5F52455645525345000E86
:10082000CA0A0000000001454C45564F4E5F434840
:10083000315F524556000FCB0A0000000001454CC5
:1008400045564F4E5F4348325F5245560010CC0A22
:1008500000000000025359535F4E554D5F524553FF
:100860004554530002CD0A00000000024C4F475F80
:100870004249544D41534B000000000BCF0A000089
:10088000A743015253545F5357495443485F434869
:10089000000015D10A00000000015253545F4D4979
:1008A0005353494F4E5F4348001AD20A00000000DC
:1008B000035452494D5F41525350445F434D000031
:1008C0009BD40A00009644045343414C494E475F71
:1008D00053504545440000CC880A00007041034D48
:1008E000494E5F474E445350445F434D00009EE6DF
:1008F0000A00000000025452494D5F5049544348D9
:100900005F434400000CEA0A0000000003414C541D
:100910005F484F4C445F52544C0000009CD80A0082
:10092000401C4602414C545F484F4C445F4642577E
:10093000434D007AEC0A00000000014D41475F453D
:100940004E41424C45000000000084EE0A000000C9
:100950000001464C41505F315F504552434E5400B8
:100960000011F00A0000000001464C41505F315F69
:10097000535045454400000012F10A0000000001F8
:10098000464C41505F325F504552434E5400001375
:10099000F20A0000000001464C41505F325F5350A4
:1009A00045454400000014F30A00000000014241E4
:1009B00054545F4D4F4E49544F5200000086EF0A89
:1009C0000000000004564F4C545F444956494445CA
:1009D0005200000087F40A0AD7634004414D505F7B
:1009E0005045525F564F4C5400000088F80A5C8F07
:1009F000DA4104494E5055545F564F4C5453000051
:100A0000000089FC0A8FC2954003424154545F4361
:100A10004150414349545900008A000B0000DC4416
:100A200001424154545F564F4C545F50494E0000B0
:100A3000A8040B0000000001424154545F4355528A
:100A4000525F50494E0000A9050B0000803F01494C
:100A50004E564552544544464C545F4348009D060B
:100A60000B0000000008474E445F0000000000003B
:100A700000000000008D0D0DAB270000085243312F
:100A80005F0000000000000000000000AA090BB495
:100A90002A0000085243325F0000000000000000FE
:100AA000000000AB2B0BB42A0000085243335F0058
:100AB00000000000000000000000AC4D0BB42A0054
:100AC00000085243345F00000000000000000000F6
:100AD00000AD6F0BB42A0000085243355F000000E0
:100AE0000000000000000000AE910B3E2B0000084B
:100AF0005243365F0000000000000000000000AF1D
:100B0000B40B3E2B0000085243375F00000000008A
:100B1000000000000000B0D70B3E2B00000852433D
:100B2000385F0000000000000000000000B1FA0B78
:100B30003E2B00000848444E4732524C4C5F0000A8
:100B400000000000F0770C412A0000084152535089
:100B500032505443485F0000000000F3950C412AD6
:100B6000000008454E524759325448525F00000079
:100B70000000F5B30C412A000008414C5432505497
:100B800043485F000000000000F6D10C412A00003D
:100B900008574845454C53544545525F00000000F6
:100BA000F7EF0C412A000008524C4C325352565F6A
:100BB00000000000000000F11D0C412A0000085058
:100BC000544348325352565F000000000000F23B8D
:100BD0000C412A0000085957325352565F0000005A
:100BE0000000000000F4590C412A000008434F4D5A
:100BF000504153535F0000000000000085A30DF03A
:100C0000270000085352305F000000000000000081
:100C10000000006E4309F3010000085352335F00E7
:100C2000000000000000000000006FC709F3010091
:100C30000008494E535F0000000000000000000063
:100C400000185A077A28000008494D555F00000037
:100C5000000000000000000082BA075B29000008C5
:100C6000414852535F000000000000000000008C6B
:100C7000F507A02900000841525350445F000000CE
:100C80000000000000008E570A832B0000000000C7
:100C90000000000000000000000000000000000054
:100CA000000000004C6F670064756D70000000006C
:100CB0000000000000005F4665726173650000007F
:100CC000000000000000506B656E61626C65000002
:100CD0000000000000004D3E64697361626C6500B5
:100CE0000000000000004D3E706C616E6E65720089
:100CF00067637300000000000000000000006085D2
:100D0000736574757000726573657400000000008F
:100D100000000000163E726164696F000000000070
:100D200000000000B3646D6F646573000000000094
:100D30000000000038646C6576656C0000000000FF
:100D4000000000004977636F6D70617373000000ED
:100D500000000000953D6465636C696E6174696FA5
:100D60006E000000803D626174746572790000005D
:100D7000000000004C3D73686F7700000000000029
:100D800000000000203D65726173650000000000F6
:100D900000000000B83441726475506C616E6520CB
:100DA00056322E3635006C6F67730000000000006D
:100DB000000000001A3D73657475700000000000AB
:100DC00000000000023D7465737400000000000024
:100DD00000000000EA3C68656C7000000000000044
:100DE00000000000C629706C616E6E657200000024
:100DF00000000000D23C746573740070776D0000D1
:100E0000000000000000000000C763726164696FA9
:100E10000000000000000000004363706173737401
:100E20006872750000000000008D3C6661696C739B
:100E30006166650000000000004F626261747465C5
:100E4000727900000000000000596172656C6179E0
:100E5000000000000000000000C638776179706F64
:100E6000696E74730000000000B137786265650038
:100E70000000000000000000001D35656564756D10
:100E800070000000000000000075326D6F64657333
:100E90007769746368000000009A3661646300003B
:100EA000000000000000000000E4356770730000DF
:100EB0000000000000000000004F3572617767708D
:100EC000730000000000000000DE34696D75000052
:100ED000000000000000000000D82C6169727370EF
:100EE000656564000000000000986A6169727072B4
:100EF000657373757265000000C569636F6D70611D
:100F0000737300000000000000CE2E6C6F676769ED
:100F10006E67000000000000003C2C466F726D619F
:100F2000742076657273696F6E3A20256C78202084
:100F3000457870656374656420666F726D617420B6
:100F400076657273696F6E3A20256C780A004E756B
:100F50006D50616765733A20257520205061676583
:100F600053697A653A2025750A004D616E75666190
:100F70006374757265723A2030782530327820209B
:100F8000204465766963653A203078253034780AE4
:100F9000004552523A204E6F2064617461666C6164
:100FA000736820696E736572746564005465737448
:100FB000696E672064617461666C617368206C6F30
:100FC0006767696E6700736176696E67206F666632
:100FD0007365747300636F6D70617373206E6F74EB
:100FE000206865616C7468790048656164696E6742
:100FF0003A20256C642C2058595A3A2025642C201C
:1010000025642C2025642C0958595A6F66663A20AD
:1010100025362E32662C2025362E32662C2025369B
:101020002E32660A00436F6D7061737320696E69BA
:101030007469616C69736174696F6E206661696C53
:1010400065642100436F6D706173733A20006162C3
:101050006C65640A0064697300656E004D61672009
:101060006F6666736574733A2025342E34662C20BF
:1010700025342E34662C2025342E34660A004D612A
:1010800067204465636C696E6174696F6E3A2025F0
:10109000342E34660A003F3F0048494C00484D4317
:1010A0003538343300484D43353838334C00436FBE
:1010B0006D706173733A20002D0048697420456E8D
:1010C00074657220746F20657869742E0A0A004175
:1010D0006C743A2025302E32666D2C205261773A9E
:1010E00020256C642054656D70657261747572653D
:1010F0003A20252E31660A006E6F74206865616C97
:1011000074687900556E63616C69627261746564BC
:101110002072656C617469766520616972707265B0
:1011200073737572650A006261726F6D65746572C2
:101130002063616C6962726174696F6E20636F6DA8
:10114000706C65746500496E697469616C69736976
:101150006E672041504D2E2E2E00252E3166206DBB
:101160002F730A0061697273706565643A200061CB
:10117000697273706565643A2000616972737065A5
:1011800065645F63683A20252E31660A007A6572CD
:101190006F2061697273706565642063616C696258
:1011A000726174656400723A2534642020703A25B7
:1011B00034642020793A2533642020673D28253582
:1011C0002E31662025352E31662025352E316629B3
:1011D0002020613D2825352E31662025352E3166AB
:1011E0002025352E3166290A002E004C61743A20E4
:1011F000256C642C204C6F6E20256C642C20416C77
:10120000743A20256C646D2C2023736174733A202A
:1012100025640A00252E316609004144430A005026
:101220006F736974696F6E2025640A00436F6E7472
:10123000726F6C2043482000202530327800253022
:1012400034783A00426567696E20584265652058D7
:101250002D4354552052616E676520616E642052A3
:1012600053534920546573743A0A004C6F6974658E
:1012700072207261646975733A2025640A0A004815
:101280006974207261646975733A2025640A0025C7
:101290006420776179706F696E74730A00486F6CAF
:1012A0006420616C746974756465206F66202564C0
:1012B0006D0A00486F6C642063757272656E7420ED
:1012C000616C7469747564650A00636F6D6D616E3D
:1012D0006420233A2025642069643A2564206F70D5
:1012E00074696F6E733A25642070313A25642070FA
:1012F000323A256C642070333A256C642070343A9D
:10130000256C64200A0052656C6179206F66660A5C
:101310000052656C6179206F6E0A004E6F74206513
:101320006E61626C65640A00563A2025342E34667C
:101330002C20413A2025342E34662C206D41683A09
:101340002025342E34660A00563A2025342E346681
:101350000A004D5347204653204F4646202575002E
:101360004D5347204653204F4E202575004C4F5378
:1013700020636175736564206E6F206368616E67BA
:101380006520696E2041504D2E0A005448524F543A
:10139000544C45204641494C534146452041435415
:1013A0004956415445443A2025642C2000434F4E71
:1013B00054524F4C204D4F4445204348414E4745E1
:1013C000443A20005448524F54544C45204348411D
:1013D0004E474544202564200A00556E706C7567A1
:1013E00020626174746572792C207468726F7474F1
:1013F0006C6520696E206E65757472616C2C20744A
:1014000075726E206F666620726164696F2E0A00C5
:101410002D2D2D004C6F697465720052544C0041A3
:1014200055544F004642575F42004642575F4100C5
:1014300053746162696C697A6500436972636C65B3
:10144000004D616E75616C0043483A002C00494EB6
:1014500020313A20256409323A20256409333A20A4
:10146000256409343A20256409353A202564093673
:101470003A20256409373A20256409383A20256442
:101480000A00494E3A09313A20256409323A2025AA
:101490006409333A20256409343A20256409353A31
:1014A00020256409363A20256409373A2025640945
:1014B000383A2025640A00506C616E6E6572204DCA
:1014C0006F64650A0A54686973206D6F64652069EA
:1014D00073206E6F7420696E74656E646564206637
:1014E0006F72206D616E75616C207573650A0A00FC
:1014F000436F6D6D616E64733A0A20206C6F677381
:1015000020202020202020206C6F672072656164DD
:101510006261636B2F7365747570206D6F64650A0B
:101520002020736574757020202020202020736592
:10153000747570206D6F64650A2020746573742063
:101540002020202020202074657374206D6F646536
:101550000A0A4D6F76652074686520736C6964654E
:101560002073776974636820616E642072657365A7
:101570007420746F20464C592E0A0A005465737407
:10158000204D6F64650A0A005365747570204D6FB5
:1015900064650A0A494D504F5254414E543A2069ED
:1015A0006620796F752068617665206E6F74207093
:1015B000726576696F75736C7920736574207468D1
:1015C00069732073797374656D2075702C20757341
:1015D00065207468650A2772657365742720636FD8
:1015E0006D6D616E6420746F20696E697469616CE1
:1015F000697A652074686520454550524F4D2074C6
:101600006F2073656E7369626C65206465666175D1
:101610006C742076616C7565730A616E6420746801
:10162000656E207468652027726164696F27206386
:101630006F6D6D616E6420746F20636F6E66696795
:1016400075726520666F7220796F757220726164A1
:10165000696F2E0A0A000A547970652027592720DD
:10166000616E642068697420456E74657220746FC1
:1016700020657261736520616C6C20776179706F91
:10168000696E7420616E6420706172616D6574654D
:101690007220646174612C20616E79206F746865BA
:1016A00072206B657920746F2061626F72743A20CA
:1016B00000646F6E650A000A45726173696E672087
:1016C000454550524F4D0A005261772056616C7566
:1016D00065730A00526164696F0A004348383A2012
:1016E0002564207C202564207C2025640A00434852
:1016F000373A202564207C202564207C2025640A3C
:10170000004348363A202564207C202564207C2034
:1017100025640A004348353A202564207C2025644E
:10172000207C2025640A004348343A202564207C2C
:10173000202564207C2025640A004348333A202574
:1017400064207C202564207C2025640A00434832E4
:101750003A202564207C202564207C2025640A0012
:101760004348313A202564207C202564207C2025B4
:10177000640A004D6F6E69746F72696E6720766FD0
:101780006C747320616E642063757272656E740090
:101790004D6F6E69746F72696E6720626174742038
:1017A000766F6C74730042617474206D6F6E69742F
:1017B0006F72696E672064697361626C6564004270
:1017C000617474204D6F696E746F720A006E617679
:1017D00020706974636820616C743A0A00656E65F4
:1017E00072677279207468726F74746C653A0A005B
:1017F0006E617620706974636820616972737065C8
:1018000065643A0A006E617620726F6C6C3A0A0069
:10181000736572766F207275646465723A0A00733C
:101820006572766F2070697463683A0A0073657236
:10183000766F20726F6C6C3A0A004761696E730AAA
:1018400000503A2025342E33662C20493A25342E78
:1018500033662C20443A25342E33662C20494D41E2
:10186000583A256C640A0058545241434B3A20259B
:10187000342E32660A58545241434B20616E676CD5
:10188000653A2025640A0043726F73737472616352
:101890006B0A006D696E3A2025640A6D61783A2002
:1018A00025640A6372756973653A2025640A666166
:1018B000696C736166655F656E61626C65643A2030
:1018C00025640A6661696C736166655F76616C7533
:1018D000653A2025640A005468726F74746C650A56
:1018E00000466C69676874206D6F6465730A005008
:1018F0006F732025643A2000494D550A00477972DC
:101900006F206F6666736574733A2025342E3266D5
:101910002C2025342E32662C2025342E32660A00E7
:10192000416363656C206F6666736574733A202546
:10193000342E32662C2025342E32662C2025342E6F
:1019400032660A000A4F7074696F6E733A20332D45
:1019500034000A4F7074696F6E733A5B6F6E2C6F50
:1019600066662C72657365745D0A007265736574D2
:10197000006F666600436F6D7061737320696E69F6
:101980007469616C69736174696F6E206661696CFA
:10199000656421006F6E004E4F206169727370653F
:1019A000656400426567696E6E696E6720494D55D2
:1019B0002063616C6962726174696F6E3B20646F51
:1019C000206E6F74206D6F766520706C616E65009F
:1019D0005761726D696E67207570204144432E2EE9
:1019E0002E0044656D6F20536572766F7321000A77
:1019F0004D6F766520524320746F67676C65207366
:101A0000776974636820746F206561636820706F04
:101A1000736974696F6E20746F20656469742C201B
:101A20006D6F76652061696C65726F6E2073746985
:101A3000636B20746F2073656C656374206D6F64D5
:101A400065732E000A53617665642053657474696A
:101A50006E67730A0A000A4D6F766520616C6C2010
:101A6000636F6E74726F6C7320746F20656163684E
:101A70002065787472656D652E2048697420456E06
:101A800074657220746F20736176653A200A000ACB
:101A90004E6F20726164696F3B20436865636B2001
:101AA000636F6E6E6563746F72732E000A0A526103
:101AB00064696F2053657475703A0A000A464143A1
:101AC000544F525920524553455420636F6D706CEA
:101AD000657465202D20706C656173652072657377
:101AE00065742041504D20746F20636F6E74696E71
:101AF0007565000A547970652027592720616E6446
:101B00002068697420456E74657220746F2070655A
:101B100072666F726D20666163746F727920726590
:101B20007365742C20616E79206F74686572206B08
:101B3000657920746F2061626F72743A2000656E5F
:101B400061626C650043555200434D440052415759
:101B5000004D4F4445004E54554E004354554E00E1
:101B6000504D004750530041545449545544455F2B
:101B70004D45440041545449545544455F464153F2
:101B80005400616C6C006D697373696E67206C6FD3
:101B90006720747970650A004C6F67206572617305
:101BA0006520636F6D706C65746500457261736963
:101BB0006E67206C6F677300446F6E650A00447532
:101BC0006D70696E67204C6F672025642C20202083
:101BD0002073746172742070672025642C2020208B
:101BE000656E642070672025640A00626164206C61
:101BF0006F67206E756D6265720A0064756D70693D
:101C00006E6720616C6C0A0025640A0025642C094B
:101C100000444620706167652C206C6F6720666900
:101C20006C6520232C206C6F6720706167653A20FB
:101C300025642C09004E756D626572206F662070F8
:101C400061636B65747320726561643A2025640A70
:101C5000000A41726475506C616E652056322E36F2
:101C6000350A467265652052414D3A2025750A00B5
:101C70004572726F722052656164696E6720454ECD
:101C8000445F425954453A2025640A004572726FF8
:101C9000722052656164696E67205061636B657480
:101CA0003A2025640A004154543A2025642C20250A
:101CB000642C2025750A004D4F443A004354554E7C
:101CC0003A004E54554E3A2025342E34662C2025A9
:101CD000642C2025342E34662C2025342E34662C9A
:101CE0002025342E34662C2025342E34662C2025D5
:101CF000342E34662C0A00504D3A005241573A00B7
:101D0000434D443A00435552523A2025642C202535
:101D1000342E34662C2025342E34662C2025640A7B
:101D20000020256420636F6D6D616E647320696EA1
:101D3000206D656D6F72790A00554E4B4E4F574EB0
:101D40002053544152545550202D200047524F5596
:101D50004E44205354415254202D200041495220DA
:101D60005354415254202D20004750533A20256CA3
:101D7000642C2025642C2025642C2025342E3766E5
:101D80002C2025342E37662C2025642C2025342E3B
:101D900034662C2025342E34662C2025342E3466CF
:101DA0002C2025342E34660A004C6F672025642CC5
:101DB0002020202073746172742025642C20202040
:101DC000656E642025640A000A2564206C6F6773C1
:101DD0000A000A4E6F206C6F67730A0A004355525F
:101DE0000020255300434D44002025530052415705
:101DF00000202553004D4F444500202553004E54EC
:101E0000554E00202553004354554E0020255300C5
:101E1000504D0020255300475053002025530041CA
:101E2000545449545544455F4D45440020255300C2
:101E300041545449545544455F464153540020256C
:101E400053006E6F6E65006C6F677320656E616224
:101E50006C65643A2000526563656976656420525A
:101E6000657175657374202D206A756D7020746FAF
:101E700020636F6D6D616E64202325690043616E80
:101E80006E6F74206368616E676520746F206E6F7B
:101E90006E2D4E617620636D64202575005265635A
:101EA00065697665642052657175657374202D20AF
:101EB0007265736574206D697373696F6E00283283
:101EC00029204E6F6E2D4E617620636F6D6D616EB1
:101ED00064204944207570646174656420746F20C7
:101EE000232569206964783D2575004E6F6E2D4E5F
:101EF000617620636F6D6D616E642049442075705A
:101F0000646174656420746F202325692069647896
:101F10003D2575006F7574206F6620636F6D6D6170
:101F20006E647321004E617620636F6D6D616E6427
:101F300020696E64657820757064617465642074CE
:101F40006F202325690052657475726E696E672073
:101F5000746F20486F6D6500457865637574696EB0
:101F600067206E617620636F6D6D616E64204944F9
:101F70002023256900526573657474696E6720704B
:101F80007265765F575000457865637574696E6752
:101F900020636F6D6D616E642049442023256900C4
:101FA000457865637574696E6720636F6D6D616EEA
:101FB00064204944202325690073657474696E6741
:101FC00020636F6D6D616E6420696E6465783A2080
:101FD0002569004A756D7020746F20575020257553
:101FE0002E204A756D7073206C6566743A202564E6
:101FF00000536B697070696E6720696E76616C69F9
:1020000064206A756D7020746F202569004A756DB3
:102010007073206C6566743A2030202D20736B69D4
:102020007070696E6700536574207468726F7474A1
:102030006C65202575005365742067726F756E643A
:10204000737065656420257500536574206169723D
:102050007370656564202575206D2F73006770733C
:1020600020616C743A20256C7500696E6974206873
:102070006F6D65006261642066656E636520706FD8
:10208000696E74006261642066656E636520706FBE
:10209000696E740066656E63696E67206D75737432
:1020A0002062652064697361626C656400666C69B6
:1020B00067687420706C616E20726563656976650F
:1020C0006400666C6967687420706C616E2075705E
:1020D000646174652072656A656374656400556E39
:1020E0006B6E6F776E20706172616D6574657220C2
:1020F0002F257300556E6B6E6F776E207061726165
:102100006D6574657220696E64657820256400636E
:102110006F6D6D616E642072656365697665643AA2
:102120002000666C69676874206D6F6465203D20CF
:102130002575004661696C73616665202D205368C2
:102140006F7274206576656E74206F6E2C20004669
:1021500061696C73616665202D2053686F7274200D
:102160006576656E74206F66660067656F2D6665BF
:102170006E63652074726967676572656400676580
:102180006F2D66656E6365204F4B0067656F2D662A
:10219000656E6365207365747570206572726F7209
:1021A0000067656F2D66656E6365206C6F616465A1
:1021B00064005750206572726F72202D206469731D
:1021C00074616E6365203C203000766572696679C3
:1021D0005F6E61763A20496E76616C6964206F7239
:1021E000206E6F2063757272656E74204E6176206A
:1021F000636D6400486F6C64696E6720636F75720D
:10220000736520256C64004C616E6420436F6D70B3
:102210006C657465202D20486F6C6420636F757247
:10222000736520256C640050617373656420576189
:1022300079706F696E742023256920646973742036
:1022400025756D004D6973736564205750005265A4
:10225000616368656420576179706F696E742023CB
:10226000256920646973742025756D00766572692F
:1022700066795F6E61763A204C4F49544552206F23
:10228000726269747320636F6D706C65746500763B
:1022900065726966795F6E61763A204C4F495445A4
:1022A000522074696D6520636F6D706C6574650094
:1022B0005265616368656420686F6D65007665725C
:1022C0006966795F636F6E6469746F6E3A20496EF8
:1022D00076616C6964206F72206E6F206375727214
:1022E000656E7420436F6E646974696F6E20636DF0
:1022F0006400666C69676874206D6F6465203D20BA
:102300002575004661696C73616665202D204C6FF0
:102310006E67206576656E74206F6E2C20000A5003
:102320007265737320454E54455220332074696D95
:10233000657320746F20737461727420696E7465A4
:10234000726163746976652073657475700A0A003A
:10235000436F6D7061737320696E697469616C6934
:10236000736174696F6E206661696C6564210045F4
:10237000524153494E47204C4F4753004E6F206403
:10238000617461666C617368206361726420696E58
:10239000736572746564000A0A496E69742041723B
:1023A0006475506C616E652056322E36350A0A46C9
:1023B0007265652052414D3A2025750A006C6F61A7
:1023C000645F616C6C20746F6F6B20256C75757326
:1023D0000A00646F6E652E004669726D77617265E2
:1023E000206368616E67653A2065726173696E6724
:1023F00020454550524F4D2E2E2E0A00496E7661D3
:102400006C69642053455249414C335F4241554405
:10241000000A0A20526561647920746F20464C5985
:102420002E003C737461727475705F67726F756EA5
:10243000643E2047524F554E44205354415254005D
:1024400000407A10F35A00A0724E18090010A5D46B
:10245000E80000E87648170000E40B54020000CAC8
:102460009A3B000000E1F50500008096980000000E
:1024700040420F000000A08601000000102700006D
:102480000000E803000000006400000000000A00F3
:10249000000000000100000000002C76D888DC67F6
:1024A0004F0823DFC1DFAE59E1B1B796E5E3E4534E
:1024B000C63AE651997696E8E6C28426EB898C9B6B
:1024C00062ED407C6FFCEFBC9C9F40F2BAA56FA50B
:1024D000F490055A2AF75C936B6CF9676DC11BFC8D
:1024E000E0E40D47FEF520E6B500D0ED902E0300A8
:1024F000943577050080841E080000204E0A0000F5
:1025000000C80C333333330F986E12831141EF8DB3
:102510002114893BE65516CFFEE6DB18D1844B38F3
:102520001BF77C1D901DA4BBE424203284725E2224
:102530008100C9F124ECA1E53D276E616E00696E52
:10254000660025733A2025660A0025733A20256C1B
:10255000640A0025733A2025640A0025733A202571
:10256000640A00657869740068656C7000245055D1
:1025700042582C34312C312C303030332C30303028
:10258000312C33383430302C302A32360AB56206DA
:10259000010300010601124F00245053524631300E
:1025A000332C302C302C312C312A32350D0A24506A
:1025B0005352463130332C312C302C302C312A32CE
:1025C000350D0A24505352463130332C322C302CE6
:1025D000302C312A32360D0A2450535246313033D2
:1025E0002C332C302C302C312A32370D0A24505306
:1025F00052463130332C342C302C312C312A3230AD
:102600000D0A24505352463130332C352C302C31A6
:102610002C312A32300D0A24505352463130332C9B
:10262000362C302C302C312A32320D0A24505352A1
:10263000463130332C382C302C302C312A32430D9B
:102640000A24505352463135312C312A33460D0A73
:1026500024505352463130362C32312A30460D0A3E
:102660000024504D544B3331342C302C302C312C31
:10267000312C302C302C302C302C302C302C302C79
:10268000302C302C302C302C302C302A32380D0AA3
:1026900024504D544B3333302C302A32450D0A240C
:1026A000504D544B3331332C312A32450D0A2450CE
:1026B0004D544B3330312C322A32450D0A00245010
:1026C0005542582C34302C6767612C302C312C301B
:1026D0002C302C302C302A37420D0A2450554258C9
:1026E0002C34302C7674672C302C312C302C302C40
:1026F000302C302A37460D0A24505542582C34309D
:102700002C726D632C302C302C302C302C302C3033
:102710002A36370D0A004750524D4300475047476D
:102720004100475056544700245047434D442C31F4
:10273000362C302C302C302C302C302A36410D0ADF
:102740000024505352463130302C302C3338343042
:10275000302C382C312C302A334300204E4D45414B
:10276000200020534952462000204D544B20002089
:102770004D544B313620002075626C6F782000007C
:1027800096000000E1000080250000C01200004F0C
:102790004B004D41585F50494E5F534F5552434592
:1027A0005320524541434845440A000402414253E4
:1027B0005F50524553530000000000000C00000021
:1027C0000000040354454D500000000000000000CC
:1027D00000000008000000000000FF0000000000F2
:1027E00000000000000000000000000000000000E9
:1027F00005014F46530000000000000000000000EB
:1028000000110000000000040244454300000000E5
:1028100000000000000000001D0000000000010397
:102820004C4541524E000000000000000000002115
:10283000000000803F0104555345000000000000E7
:1028400000000000000022000000803F010541550B
:10285000544F4445430000000000000000230000E6
:1028600000803F00FF0000000000000000000000AA
:1028700000000000000000000000020058480000B6
:102880000000000000000000000000020000101A1C
:10289000450201584C00000000000000000000004C
:1028A000000004000020CA44020259480000000051
:1028B000000000000000000000060000101A4502A1
:1028C00003594C0000000000000000000000000060
:1028D00008000020CA4402045A480000000000001A
:1028E000000000000000000A0000101A4502055A0E
:1028F0004C000000000000000000000000000C0080
:102900000020CA4400FF000000000000000000009A
:10291000000000000000000000000020002A004924
:102920006E697420416363656C000A6779726F2079
:10293000646964206E6F7420636F6E76657267657C
:102940003A20646966663D2566206470730A002A31
:1029500000496E6974204779726F00060043414C4C
:102960000000000000000000000000000300000064
:102970000000020150524F445543545F4944000047
:1029800000000037000000000000FF000000000011
:102990000000000000000000000000000000000037
:1029A00004024750535F4741494E000000000000B9
:1029B0000024000000803F01034750535F555345FA
:1029C000000000000000000028000000803F040418
:1029D0005941575F50000000000000000000001C3B
:1029E00000CDCCCC3E040552505F500000000000EA
:1029F0000000000000002000CDCCCC3E010657496D
:102A00004E445F4D4158000000000000002A0000C5
:102A100000000001074241524F5F5553450000003E
:102A20000000000029000000000000FF000000007E
:102A30000000000000000000000000000000000096
:102A40000004005000000000000000000000000032
:102A50000000000000000000040149000000000028
:102A6000000000000000000000040000000000045E
:102A70000244000000000000000000000000000010
:102A80000800000000000203494D4158000000000A
:102A9000000000000000000C000000000000FF002B
:102AA0000000000000000000000000000000000026
:102AB0000000000002004D494E0000000000000030
:102AC00000000000000A00008089440201545249BD
:102AD0004D00000000000000000000000C0000801D
:102AE000BB4402024D4158000000000000000000FD
:102AF0000000000E000080ED440103524556000026
:102B00000000000000000000000015000000803FF1
:102B10000204445A00000000000000000000000011
:102B20000016000000000000FF0000000000000090
:102B3000000000000000000000000000000008008D
:102B40000000000000000000000000000000000085
:102B500000B42A0000010146554E4354494F4E002F
:102B600000000000000022000000000000FF000044
:102B70000000000000000000000000000000000055
:102B80000000000100454E41424C4500000000009D
:102B9000000000000B000000803F0101555345007C
:102BA00000000000000000000000000A000000001B
:102BB0000004024F46465345540000000000000048
:102BC00000000200000000000403524154494F007D
:102BD0000000000000000000000600492EFF3F003A
:102BE000FF000000000000000000000000000000E6
:102BF00000000000000096918C87827D78736E69DA
:102C0000645F5A55504B46413C37322D28231E19DC
:102C1000140F0A050004090E13181D22272C313643
:102C20003B40454A4F54595E63686D72777C81869C
:102C30008B90959A9FA4A9AEB3AFAAA5A09B968F9F
:102C400089837E78736E69645F5A55504B47423E64
:102C50003935302C27231F1B16120E0905010307D7
:102C60000B1014191D22262B2F34393D42474C518D
:102C7000565B60656B70757B80868C92979DA3A96F
:102C8000AFB2ACA6A09A948F827C76706B65605CC4
:102C900057524E4A46413D3936322E2A26221F1BB4
:102CA0001713100C08040102060A0E12161A1E222F
:102CB000262B2F33383D41464B4F54595E64696F84
:102CC000747A80878D949BA2AAB1AEA69F979089B3
:102CD000826F68635E5955514D4946423F3C3835D5
:102CE000322E2B2824211E1A1714100D0A06030059
:102CF0000306090D1014181C2024282C3034393DEB
:102D000041464A4F54585D62676D737980878F984A
:102D1000A2ACB0A59A90867D766F55514D4A474436
:102D2000413F3C3A383533312E2B292623201D1ABA
:102D30001713100D0A070401010306090D101317DC
:102D40001A1E22262A2E32363A3E42464A4E535701
:102D50005B5F64696E757C85909FB2A08D7D7067A6
:102D6000605A553E3C3A393736343332302F2E2CA8
:102D70002A292724221F1C191613100D0A070402E2
:102D8000000305080A0D1013161A1D2125292D31DF
:102D900035383C4043464A4D505356595B5E616559
:102DA000696F826D544D4A474442403E2E2E2D2C71
:102DB0002C2B2A2A2929282726252423211F1C1ABF
:102DC0001714100D0A07040101030507090C0E1062
:102DD00013161A1D2124282C3033373A3D40424423
:102DE00047484A4A4B4A48443D3019021621282B8D
:102DF0002D2E2F2E2E06090C0F121517191B1C1B1A
:102E00001811040E2231383C3C3C3A3835322F2B15
:102E10002824201C1915110D09050102060A0E119E
:102E200015181C1F222527292A2B2B292621191189
:102E3000080004080A0A0A08070402000306161814
:102E40001A1C1E20211F1712516063625F5D5956C4
:102E5000524E4A46423E3935312C2824201B171346
:102E60000E0A060102060A0F13171B1F23262A2D1E
:102E7000313437393C3D3F3F3E3D39352F28211C09
:102E800017151313131416A8ADB2B0ABA6A19C97D7
:102E9000928D88837E79746F6A65605B56514C476A
:102EA000423D38332E29241F1A15100B0601030842
:102EB0000D12171C21262B30353A3F44494E5358EA
:102EC0005D62676C71767B80858A8F94999EA3A8DA
:102ED00000000001FFFFE000000000000001FFFF14
:102EE000F000000000000001FFFFF80000000000FB
:102EF0000001FFFFFE00000000000003FFFFFF00D5
:102F0000000000000003FFFFFFF000000000000FC2
:102F1000FFFFFFFE00000003FFFFFC000007FC00B6
:102F2000007FFFFFFC000000000000001FFFFE000C
:102F300000000000241E191512100E0C0B0A0909BE
:102F4000090808080706060504040403040404002D
:102F50000000000000000000002726212325232573
:102F6000242722292A2A1C27282B33322725222CE2
:102F700033313037000000000000000000008011F5
:102F800040114071327334333213121132111293E3
:102F90003413145352310021030406080B2D0A097F
:102FA0000705040241C011C051125354731211128B
:102FB00051527314733231002102040506070809C7
:102FC000080607062403020102000120012011C0A7
:102FD0000111003132137413143312F112D3125150
:102FE0000001022325060746442342210001E0A0F8
:102FF000313213B433111211001120110052331267
:1030000013321120012224850423040203424100CB
:1030100001E0A0511214131513153413325140015D
:103020002011521332310001222304050405042328
:10303000010382612001E011801132135415143311
:103040003231402102010031723141022344230216
:10305000012201220102614001A0118051121413CA
:1030600034151433123140010201030201205211C0
:103070001220212243042241022102A10001E0206A
:103080001140515374133211402102030203020113
:10309000001112113200114122232221004102A10C
:1030A000800160116011001132337413121140015C
:1030B00062030203213112111211400102010203C5
:1030C0000201000100E121E0A0112012117334334C
:1030D000312001620362401211121100110100013E
:1030E0000201220001200100E1C001001180110055
:1030F00012111312141334522001E2022120311252
:1031000011001100010021020100014021000241D3
:103110000001E06011401112111312141314133244
:1031200011002122034201022100010011001211AD
:10313000001120010041600100C100014011200187
:103140006011405112131213143312310001420363
:103150002201022100014011003100110001000193
:103160000001A0E10001A001801120315293121151
:103170000021C22100214031001120110001000175
:10318000E0E16001E011001172731231002142038D
:1031900001020102202140110011201160014011A3
:1031A00060010001022102000120014001A0513212
:1031B000131253321120010201822100210001006B
:1031C000110031E000110011602100010201020133
:1031D000010021200100016011001152131214138B
:1031E0005211004182010200010021401100110032
:1031F00011A0110031001120812201010002010003
:103200002100016011005213121314133231010016
:1032100002012201420100210001000111201100E0
:103220001120114071001140010221020102010030
:103230002102210001000100110012111233123489
:1032400013321120010201420122010041000160FC
:1032500011201100110011005112312061020122D0
:103260000200020102812011001211733413321185
:1032700000410201820100610001801100110091F2
:1032800032314021420102020062614011521413A6
:1032900054333100418201220001020041000160EB
:1032A0009112115251200122010301020200826198
:1032B00000513354151433310021020122034241DD
:1032C00002A1803192133231004122030201030036
:1032D00022032201020140111233953331010022F1
:1032E0000103420322212201026100011100115257
:1032F000131253123100412203220300230203025E
:10330000010221203213141615171615331120014E
:103310006203020302032201A2414011125314135B
:10332000141332110100020102030203020200021F
:1033300023020322212032141637181715131211F5
:1033400000212203024302430103020382212011D0
:1033500012131415341514321100016223020300F4
:1033600043020342012012131518193A17151311BD
:1033700000210203026304E302030203020102408C
:1033800012131415171516341220212243020300BC
:10339000A3220100111215181C1E1D19161311006D
:1033A000020103020304230403240304430423044B
:1033B0000302034220111214151718361513312178
:1033C00002030223020300002100240027002A0038
:1033D0002D003000330001010000040107010A0143
:1033E00000002200250028002B002E0031003400B0
:1033F00002010000050108010B010000200023006C
:10340000260029002C002F003200000100000301DB
:103410000601090105050505070508080808020257
:1034200002020A0A0808040404040101010101015E
:1034300001010303030303030303040707070C0C41
:103440000C0C0C0C0C0C0202020206060606060608
:1034500006060B0B0B0B0B0B0B0B010210202008AD
:1034600008102040102040800201020108040201DF
:10347000010204081020408080402010080402014E
:1034800080040201804020100804020108040201A7
:10349000010204081020408001020408102040802E
:1034A0000000090A02080B0C0D07060304010000C6
:1034B000000000000000000000000000000000000C
:1034C00000000000000000000000000011100F00CC
:1034D00000000000000000000000000000000000EC
:1034E000000000000000494E46494E4954594E41E3
:1034F0004ECDCCCC3D0AD7233C17B7D13877CC2B57
:10350000329595E6241FB14F0A000020410000C803
:103510004200401C4620BCBE4CCA1B0E5AAEC59D84
:1035200074000D947E230D94B80A0D948B0A0D94AB
:10353000A2040D9465370D9485030D94DE020D945D
:103540004D000D94D1030D9471130D94CE020D9482
:10355000AB0A0D9493040D94970A0D94B10A0D943F
:1035600016030D94A10A0D94C5030D949D030D94AB
:10357000BD040D94B20A0D94B00A0D94E9030D94A4
:10358000D6060D944E0B0D94C2060D944F2A0D9441
:10359000A5030D94CC010D9495030D94E7060D94AD
:1035A000890A0D9480030D94290A0D9406030D9445
:1035B0009C0A0D94612A0D94AE040D94D6020D94CC
:1035C000B6020D94B5030D94930B0D94FE020D9469
:1035D00078030D94CB030D9436030D94C6020D941D
:1035E000420B0D948D0A0D94360B0D94022A0D9406
:1035F000B30A0D948A0A0D94E3030D94D7030D9436
:10360000D3060D94D0000D940E030D94920A0D94E0
:10361000880A0D94DD030D94BD030D94A60A0D9444
:10362000AD030D948F0A0D946E030D940E349947DB
:103630008DD29F1A11241FBECFEFD1E2DEBFCDBFC6
:1036400000E00CBF16E0A0E0B2E0E8E1FDE702E038
:103650000BBF02C007900D92AA37B107D9F71BBE66
:1036600013E1AAE7B6E001C01D92AB32B107E1F762
:1036700016E3C4E3D6E304C02297FE010F94733E21
:10368000CE32D107C9F70F9462390D948A3E0C945B
:103690000000283008F027E03327DA01990F311DA8
:1036A00087FD916000966105710539F432602E5FE7
:1036B0003D9330E32A95E1F708959F3F30F080383D
:1036C0007105610509F03C5F3C5F3D93913008F066
:1036D0008068911DDF93CF931F930F93FF92EF921A
:1036E000192F987F9695E92F96959695E90FFF27C4
:1036F000E656FB4D99273327EE24FF24A701E70167
:1037000005900894079428F4360FE71EF81E491F09
:10371000511D660F771F881F991F0694A1F705900A
:10372000079428F4E70EF81E491F561FC11D770F96
:10373000881F991F661F0694A1F70590079428F427
:10374000F80E491F561FC71FD11D880F991F661FEE
:10375000771F0694A1F70590079420F4490F561F90
:10376000C71FD81F990F661F771F881F0694A9F7D8
:1037700084911095177041F0D695C7955795479548
:10378000F794E7941A95C1F7E0E4F4E26894159091
:10379000159135916591959105907FE27395E118AA
:1037A000F10A430B560BC90BD009C0F7E10CF11E0F
:1037B000431F561FC91FD01D7EF4703311F48A9524
:1037C000E6CFE894015030F0080F0AF40027021702
:1037D00008F4202F2395022F7A3328F079E37D9384
:1037E0002A95E9F710C07D932A9589F60694979556
:1037F0006795379517951794E118F10A430B560B07
:10380000C90BD00998F023957E9173957A3308F00F
:1038100070E37C932013B8F77E9170617D9330F054
:10382000839571E37D9370E32A95E1F71124EF907E
:10383000FF900F911F91CF91DF91992787FD909570
:103840000895FA01AA27283051F1203181F1E89436
:103850006F936E7F6E5F7F4F8F4F9F4FAF4FB1E083
:103860003ED0B4E03CD0670F781F891F9A1FA11D7E
:10387000680F791F8A1F911DA11D6A0F711D811D7F
:10388000911DA11D20D009F468943F912AE0269F44
:1038900011243019305D3193DEF6CF010895462FA3
:1038A0004770405D4193B3E00FD0C9F7F6CF462F84
:1038B0004F70405D4A3318F0495D31FD40524193ED
:1038C00002D0A9F7EACFB4E0A695979587957795AA
:1038D0006795BA95C9F700976105710508959B0131
:1038E000AC010A2E06945795479537952795BA95BA
:1038F000C9F7620F731F841F951FA01D0895A0E3D1
:10390000B0E0E5E8FCE10D943A3EA8E04E010894F1
:10391000811C911CF401BA2F1192BA95E9F7298301
:103920003A834B835C836D837E838F839887CE013C
:103930000996FC011192AA95E9F7A986BA86CB8669
:10394000DC86ED86FE860F87188B29813A814B81B4
:103950005C812DA73EA74FA758AB79018A018FEF55
:103960009FEFA0E0B0E0E822F9220A231B231A010E
:103970004424552429853A854B855C8529A73AA797
:103980004BA75CA759016A01A822B922CA22DB22EF
:103990003A0188249924C601B501A80197010F9422
:1039A000AB3D6DA37EA38FA398A7C401B3010F9471
:1039B000AB3D69A37AA38BA39CA3C601B501A20169
:1039C00091010F94AB3D7B018C01C401B3010F94B5
:1039D000AB3D5B016C0189A19AA1ABA1BCA18E0D8D
:1039E0009F1DA01FB11F89A39AA3ABA3BCA32DA1A8
:1039F0003EA14FA158A5CA01AA27BB2729A13AA1D8
:103A00004BA15CA1280F391F4A1F5B1F29A33AA3B2
:103A10004BA35CA32E153F054007510740F480E0FF
:103A200090E0A1E0B0E0A80EB91ECA1EDB1E89A17D
:103A30009AA1ABA1BCA19D01442755272A0D3B1D8E
:103A40004C1D5D1D2D8F3E8F4F8F58A36C01BB24E5
:103A5000AA248DA19EA1AFA1B8A5A070B070A80E98
:103A6000B91ECA1EDB1EA98EBA8ECB8EDC8E9A8C36
:103A70008B8C7C8C9E8D6F8D78A1FE01719688E079
:103A8000DF011D928A95E9F72D8B9E8B6F8B788FC6
:103A90002D853E854F8558896DA57EA58FA598A952
:103AA0000F94AB3D7B018C012D813E814F81588568
:103AB00069A57AA58BA59CA50F94AB3DE60EF71ED4
:103AC000081F191F6D897E898F89988D6E0D7F1D46
:103AD000801F911F6D8B7E8B8F8B988FEE892A2D87
:103AE000392D482D572D7E2F8F89988DE096E2E154
:103AF0000D94563EEF92FF920F93DF93CF93CDB785
:103B0000DEB760970FB6F894DEBF0FBECDBFA82F0B
:103B1000002309F461C07E010894E11CF11C88E0D7
:103B2000F70111928A95E9F729833A834B835C83E5
:103B30006D837E83AF83988780E2801BE82FFF2709
:103B4000E7FDF09549815A816B817C81181684F0DC
:103B500019861A861B861C86882799278E1B9F0B21
:103B600004C0440F551F661F771F8A95D2F728C0DF
:103B7000202F332727FD3095DB01CA01022E04C018
:103B8000880F991FAA1FBB1F0A94D2F789879A87AB
:103B9000AB87BC8704C07695679557954795EA959E
:103BA000D2F78D819E81AF81B88504C0880F991F9F
:103BB000AA1FBB1F2A95D2F7482B592B6A2B7B2BA8
:103BC0004D875E876F87788B29853A854B855C8525
:103BD0006D857E85AF8598898A2F60960FB6F8949B
:103BE000DEBF0FBECDBFCF91DF910F91FF90EF9061
:103BF00008950F931F93CF93DF93689F8001699F70
:103C0000100D789F100D1124C8010DD0EC01009704
:103C100021F060E070E0A80190D1CE01DF91CF915A
:103C20001F910F910895CF93DF93BC0182309105CE
:103C300010F462E070E0A0912713B0912813ED0119
:103C400040E050E0E0E0F0E021C0888199818617F3
:103C5000970769F48A819B81309719F09383828357
:103C600004C09093281380932713FE0134C0681773
:103C7000790738F44115510519F08417950708F4B0
:103C8000AC01FE018A819B819C01E9012097E9F644
:103C900041155105A9F1CA01861B970B049708F439
:103CA000BA01E0E0F0E02AC08D919C911197841751
:103CB0009507F9F46417750781F412968D919C911C
:103CC0001397309719F09383828304C0909328133D
:103CD00080932713FD0132964CC0CA01861B970BB7
:103CE000FD01E80FF91F6193719302978D939C93E7
:103CF00040C0FD01828193819C01D9011097A1F6FA
:103D00008091251390912613892B41F480914203D1
:103D1000909143039093261380932513409144037D
:103D2000509145034115510541F44DB75EB780915F
:103D3000400390914103481B590B2091251330916A
:103D40002613CA01821B930B8617970780F0AB01DD
:103D50004E5F5F4F8417950750F0420F531F5093EB
:103D6000261340932513F9016193719302C0E0E09B
:103D7000F0E0CF01DF91CF910895CF93DF930097CB
:103D800009F450C0EC0122971B821A82A0912713DC
:103D9000B0912813109709F140E050E0AC17BD072F
:103DA00008F1BB83AA83FE0121913191E20FF31F39
:103DB000AE17BF0779F48D919C911197280F391F89
:103DC0002E5F3F4F3983288312968D919C911397D4
:103DD0009B838A834115510571F4D0932813C093B6
:103DE000271320C012968D919C911397AD010097D7
:103DF00011F0DC01D3CFFA01D383C2832191319139
:103E0000E20FF31FCE17DF0769F488819981280F2D
:103E1000391F2E5F3F4FFA01318320838A819B81B6
:103E200093838283DF91CF91089566277727EFC22E
:103E30001F93FC0199278827BC01E8941191103247
:103E4000E9F3193010F01E30C8F31B3249F01D326F
:103E500041F4689405C0CDD0610F711D811D911D85
:103E6000119110531A30B8F33EF4909580957095E7
:103E700061957F4F8F4F9F4F1F910895FB01DC018C
:103E800002C005900D9241505040D8F70895FB01B3
:103E9000DC018D9181341CF08B350CF4805E6591D2
:103EA00061341CF06B350CF4605E861B611189F384
:103EB000990B0895FB01DC018D910590801901108B
:103EC000D9F3990B0895FC0105900020E9F780953E
:103ED00090958E0F9F1F0895FB01DC0141505040CB
:103EE00030F08D910590801919F40020B9F7881BE6
:103EF000990B0895FB01DC014150504048F00590BA
:103F00000D920020C9F701C01D9241505040E0F7CA
:103F10000895FC010590615070400110D8F780951C
:103F200090958E0F9F1F0895FB01DC0102C0019048
:103F30000D9241505040D8F70895DC0101C06D93B7
:103F400041505040E0F70895FB01DC018D91019054
:103F500080190110D9F3990B0895FB01DC01415040
:103F6000504048F001900D920020C9F701C01D9209
:103F700041505040E0F70895FC01615070400190BD
:103F80000110D8F7809590958E0F9F1F0895009788
:103F900031F4DA018D919C91009709F40EC0DC0197
:103FA000FB013D912191222319F03217C9F3FACF79
:103FB000332331F4DA011D921C9288279927089542
:103FC0001197AF93BF93FB013D912191321771F48B
:103FD000332321F488279927119702C01E92119646
:103FE000FA01A193B0839F918F910895222369F7DD
:103FF000EACF592F482F372F262F660F771F881F9C
:10400000991F660F771F881F991F620F731F841FE8
:10401000951F660F771F881F991F0895AEE0B0E0C7
:10402000E4E1F0E20D94483E8C0177FF02C060E0CD
:1040300070E8615070407E836D831A83098386E047
:104040008C83CE010196BA01A90111D02D813E8148
:1040500037FD09C0EF81F8852E173F070CF4F901F1
:10406000E00FF11F10822E96E4E00D94643EABE069
:10407000B0E0EDE3F0E20D943A3E3C012B015A0131
:10408000FC0117821682838181FD03C06FEF7FEFF1
:10409000B9C19AE0892E1E010894211C311CF3013C
:1040A0002381F20123FD859123FF81912F01882334
:1040B00009F4A5C1853239F423FD859123FF81914F
:1040C0002F01853221F490E0B30116D3E8CF982F69
:1040D000FF24EE249924FFE1FF15D0F09B3269F014
:1040E0009C3228F4903259F0933291F40EC09D32F4
:1040F00049F0903369F441E024C052E0F52A84E0AD
:10410000F82A28C098E0F92A25C0E0E1FE2A22C05A
:10411000F7FC29C0892F80538A3070F4F6FE05C061
:10412000989C902C1124980E15C0E89CE02C11242A
:10413000E80EF0E2FF2A0EC09E3229F4F6FC5FC1C1
:1041400040E4F42A07C09C3619F450E8F52A02C06E
:10415000983649F4F20123FD959123FF91912F01A7
:10416000992309F0B8CF892F8554833018F08052F5
:10417000833038F444E050E0A40EB51E5FE3598369
:104180000FC0933631F0933779F0933509F052C070
:104190001FC0F5018081898342E050E0A40EB51E66
:1041A000610101E010E011C0F501C080D180F6FC92
:1041B00003C06FEF7FEF02C0692D70E042E050E076
:1041C000A40EB51EC601D8DE8C015FE7F52213C030
:1041D000F501C080D180F6FC03C06FEF7FEF02C015
:1041E000692D70E042E050E0A40EB51EC60191DEDC
:1041F0008C0150E8F52AF3FE06C018C080E290E07A
:10420000B3017AD2EA948E2D90E008171907B0F323
:104210000DC0F601F7FC8591F7FE81916F0190E0EA
:10422000B3016AD2E110EA94015010400115110562
:1042300081F7E2C0943611F0993661F5F7FE08C0B7
:10424000F501208131814281538184E090E00AC0F0
:10425000F501808191819C01442737FD4095542FC1
:1042600082E090E0A80EB91E9FE6F92257FF09C030
:1042700050954095309521953F4F4F4F5F4FE0E867
:10428000FE2ACA01B901A1012AE030E0DADAD82E0B
:10429000D2183FC0953729F41F2D1F7E2AE030E049
:1042A0001DC01F2D197F9F3661F0903720F498357F
:1042B00009F0A5C00FC0903739F0983709F09FC0BA
:1042C00004C028E030E00AC0106114FD146020E151
:1042D00030E004C014FD166020E132E017FF08C092
:1042E000F501608171818281938144E050E008C0D2
:1042F000F50180819181BC0180E090E042E050E0D6
:10430000A40EB51EA1019DDAD82ED2188FE7F82E83
:10431000F122F6FE0BC05EEFF522D91438F4F4FE5C
:1043200007C0F2FC05C08FEEF82202C01D2D01C0AF
:10433000192DF4FE0DC0FE01ED0DF11D80818033BD
:1043400019F499EEF92208C01F5FF2FE05C003C000
:104350008F2D867809F01F5F0F2DF3FC13C0F0FE40
:104360000EC01E1510F09D2C0AC09D2C9E0C911A9B
:104370001E2D05C080E290E0B301BED11F5F1E1567
:10438000C8F304C01E1510F4E11A01C0EE2404FFA6
:104390000EC080E390E0B301AFD102FF1BC001FD6E
:1043A00003C088E790E00EC088E590E00BC0802F46
:1043B000867881F001FF02C08BE201C080E2F7FC49
:1043C0008DE290E0B30198D105C080E390E0B301A5
:1043D00093D19A94D914C8F3DA94F101ED0DF11D3B
:1043E000808190E0B30188D1DD20B1F705C080E283
:1043F00090E0B30181D1EA94EE20C9F750CEF301E9
:1044000066817781CB012B96E2E10D94563EA0E0C8
:10441000B0E0EDE0F2E20D94403EEC015B0161158D
:10442000710519F0FB0191838083F9908F2D90E045
:104430000F947F3E892BC9F7FDE2FF1621F4F99016
:10444000EE24E39405C02BE2F21609F4F990EE2471
:104450008E0101501040C80166EE74E343E050E065
:1044600033D1892BF9F48E010E5F1F4FC80169EE1D
:1044700074E345E050E028D1892B19F48E01095FDF
:104480001F4FA114B10419F0F50111830083E0FC62
:1044900004C070E090E080E813C070E090E080E835
:1044A0006FEF07C1C8016EEE74E343E050E00CD13A
:1044B000892B69F4A114B10429F470E090E080EC38
:1044C0006FE7F7C02296F501D183C083F6CF882429
:1044D000992440E050E060E070E0EF2DE053EA30D6
:1044E000A0F5F2E0EF2A8E2D90E09C01287030704C
:1044F000E2FE06C0232B79F50894811C911C2BC089
:10450000232B19F0089481089108DB01CA0112E0FD
:10451000880F991FAA1FBB1F1A95D1F7480F591F63
:104520006A1F7B1F440F551F661F771F4E0F511DBB
:10453000611D711D483929E9520729E9620729E1FE
:10454000720748F084E0E82A06C0EE3F31F4E3FC4D
:1045500039C098E0E92AF990C0CFE53311F0E53190
:1045600089F529912D3219F4E0E1EE2A05C02B32AC
:1045700019F081E090E003C0299182E090E0E22F01
:10458000E053EA3018F0C81BD90B1CC020E030E023
:10459000FCE020383F075CF4C901880F991F880FA1
:1045A000991F280F391F220F331F2E0F311DE9913C
:1045B000E053EA3068F3E4FE03C0309521953F4FA5
:1045C000820E931ECE2CDD24E1FE07C0A114B1049F
:1045D00021F02197F501D183C083CB01BA010F945B
:1045E000FC3A7B018C01F3E0CF22DD2423E0C216EC
:1045F000D10421F417FB109517F9109557016801A4
:10460000C801B70120E030E040E050E00F945C3A90
:10461000882309F44AC097FE0DC025E0E22E25E369
:10462000F22E9094819491089394C0E2D0E000E03F
:1046300010E012C09DE1E92E95E3F92EF6CFF701C7
:104640002591359145915491C601B5010F94E63CF1
:104650005B016C018C1A9D0A8C169D0684F7D5951A
:10466000C7950F5F1F4F0630110529F08CEF9FEFA4
:10467000E80EF91EF1CFC501D6017C018D018C2D0C
:10468000880F8D2D881F8F3F51F0C601B50120E0A6
:1046900030E040E050E00F945C3A882331F482E24D
:1046A00090E090932A13809329137E2D9F2D802FC5
:1046B000612F272F392F482F562FB901CA01CDB7A7
:1046C000DEB7ECE00D945C3EFB01DC014150504054
:1046D00088F08D9181341CF08B350CF4805E6591EF
:1046E00061341CF06B350CF4605E861B611171F354
:1046F000990B0895881BFCCF0F931F93CF93DF93E3
:104700008C01EB018B8181FF1BC082FF0DC02E81CC
:104710003F818C819D812817390764F4E881F981F4
:104720000193F983E88306C0E885F985802F199500
:10473000892B31F48E819F8101969F838E8302C0E5
:104740000FEF1FEFC801DF91CF911F910F910895D7
:104750009C01F999FECF32BD21BDF89A60B5F99957
:10476000FECF2F5F3F4F32BD21BD21503040F89A20
:1047700070B5F999FECF2E5F3F4F32BD21BD22505B
:104780003040F89A80B5F999FECF2D5F3F4F32BD8A
:1047900021BDF89A90B508959C01F999FECF1FBAF2
:1047A00032BD21BD40BD0FB6F894FA9AF99A0FBEFA
:1047B000F999FECF1FBA2F5F3F4F32BD21BD215067
:1047C000304050BD0FB6F894FA9AF99A0FBEF99995
:1047D000FECF1FBA2E5F3F4F32BD21BD2250304069
:1047E00060BD0FB6F894FA9AF99A0FBEF999FECF08
:1047F0001FBA2D5F3F4F32BD21BD70BD0FB6F8947B
:10480000FA9AF99A0FBE08950895009719F0019742
:10481000B1F405C0E0911012F091111204C0E091C2
:104820001212F0911312A081B1811C962D913C912E
:104830001D97CF01F90119959C0197FF02C020E057
:1048400030E0C90108951F920F920FB60F920BB678
:104850000F9211242F933F934F938F939F93EF9336
:10486000FF934091C60020917610309177102F5F12
:104870003F4F80917A1090917B10282339238091AB
:104880007810909179102817390779F08091761077
:1048900090917710E0917C10F0917D10E80FF91F56
:1048A00040833093771020937610FF91EF919F9182
:1048B0008F914F913F912F910F900BBE0F900FBE94
:1048C0000F901F9018951F920F920FB60F920BB674
:1048D0000F9211242F933F938F939F93EF93FF9306
:1048E0002091981030919910809196109091971086
:1048F00028173907E9F08091981090919910E0916C
:104900009C10F0919D10E80FF91F80818093C600E4
:104910008091981090919910019620919A10309161
:104920009B1082239323909399108093981010C02A
:104930002091961030919710809198109091991035
:104940002817390729F48091C1008F7D8093C10019
:10495000FF91EF919F918F913F912F910F900BBEFF
:104960000F900FBE0F901F9018951F920F920FB6C9
:104970000F920BB60F9211242F933F934F938F9367
:104980009F93EF93FF934091CE0020917E10309142
:104990007F102F5F3F4F80918210909183102823CA
:1049A000392380918010909181102817390779F070
:1049B00080917E1090917F10E0918410F09185108D
:1049C000E80FF91F408330937F1020937E10FF91F2
:1049D000EF919F918F914F913F912F910F900BBE2F
:1049E0000F900FBE0F901F9018951F920F920FB649
:1049F0000F920BB60F9211242F933F938F939F9397
:104A0000EF93FF932091A0103091A11080919E1000
:104A100090919F1028173907E9F08091A01090918C
:104A2000A110E091A410F091A510E80FF91F80816A
:104A30008093CE008091A0109091A11001962091BA
:104A4000A2103091A310822393239093A1108093FE
:104A5000A01010C020919E1030919F108091A01046
:104A60009091A1102817390729F48091C9008F7DF2
:104A70008093C900FF91EF919F918F913F912F916A
:104A80000F900BBE0F900FBE0F901F9018951F92A6
:104A90000F920FB60F920BB60F9211242F933F93E4
:104AA0004F938F939F93EF93FF9340913601209103
:104AB0008E1030918F102F5F3F4F80919210909108
:104AC00093102823392380919010909191102817EA
:104AD000390779F080918E1090918F10E0919410A9
:104AE000F0919510E80FF91F408330938F102093B9
:104AF0008E10FF91EF919F918F914F913F912F9148
:104B00000F900BBE0F900FBE0F901F9018951F9225
:104B10000F920FB60F920BB60F9211242F933F9363
:104B20008F939F93EF93FF932091B0103091B1102A
:104B30008091AE109091AF1028173907E9F080915D
:104B4000B0109091B110E091B410F091B510E80F51
:104B5000F91F8081809336018091B0109091B1103F
:104B600001962091B2103091B31082239323909339
:104B7000B1108093B01010C02091AE103091AF10E2
:104B80008091B0109091B1102817390729F48091C5
:104B900031018F7D80933101FF91EF919F918F9132
:104BA0003F912F910F900BBE0F900FBE0F901F9053
:104BB00018950F931F93CF93DF936091AF0A6623ED
:104BC000B1F1C091550BD091560B00915703109144
:104BD0005803772767FD7095872F972F0F94FE3A1C
:104BE00020914703309148034091490350914A0373
:104BF0000F94E63C20E030E040E251E40F94E63CC4
:104C00000F94CB3A9801261B370BC217D3073CF001
:104C10009B01200F311FC217D3070CF49E01309364
:104C2000560B2093550B3093580320935703DF9175
:104C3000CF911F910F910895CF92DF92EF92FF9243
:104C40000F931F93CF93DF93EC016B01FB01EE0FEA
:104C5000FF1FEC0FFD1FE859FF4F608170E080E0FF
:104C600090E00F94FC3A7B018C01CB5ADF4F888196
:104C7000C555D040882321F48EA99FA9892B51F0D6
:104C8000C801B70120E030E040E85EE30F94E63C65
:104C90007B018C01C801B70120E030E040E050E02A
:104CA0000F945C3A18160CF044C0FE01EC0DFD1D8B
:104CB000E658FF4F80818823D1F5C801B70120E075
:104CC00030E048E452E40F94963C181654F40F2E4A
:104CD000F0E0EF2EF0E0FF2EF8E40F2FF2E41F2FAC
:104CE000F02DCC0EDD1E8AE790E0C80ED91E60E0E4
:104CF00070E088E492E4A80197010F94633A7B0185
:104D00008C01CD57DF4F688170E0882777FD809553
:104D1000982F0F94FE3A9B01AC01C801B7010F9484
:104D20007F390F94D03AF601608381E003C081504F
:104D3000808380E0DF91CF911F910F91FF90EF90E2
:104D4000DF90CF9008954F925F926F927F928F92F3
:104D50009F92AF92BF92CF92DF92EF92FF920F930A
:104D60001F93DF93CF93CDB7DEB72F970FB6F8948D
:104D7000DEBF0FBECDBF9A2DA982EB2DBA82FC2DCE
:104D8000CB82DC82ED82FE820F83188729873A87E7
:104D90004B875C876D877E878F874C815D816E81B5
:104DA0007F81C884D984EA84FB844C845D846E84CA
:104DB0007F8497FE03C020E030E00BC080919B0A07
:104DC000A82FBB27A7FDB0959401A815B9050CF431
:104DD0009D01D90114E0AA0FBB1F1A95E1F7A21B90
:104DE000B30BA050BB4FE0FD02C0E0E006C0E0E026
:104DF000232B09F4E1E081E0E827F999FECF1FBAFF
:104E0000B2BDA1BD90BD0FB6F894FA9AF99A0FBE43
:104E1000CD010196F999FECF1FBA92BD81BDE0BDCB
:104E20000FB6F894FA9AF99A0FBE8C010F5F1F4FD4
:104E3000F999FECF1FBA12BD01BDF0BD0FB6F894AF
:104E4000FA9AF99A0FBEC8010196A6DCC801059628
:104E5000B701A601A1DCC8010996B301A2019CDC3F
:104E60002F960FB6F894DEBF0FBECDBFCF91DF9166
:104E70001F910F91FF90EF90DF90CF90BF90AF9078
:104E80009F908F907F906F905F904F900895CF92FA
:104E9000DF92EF92FF920F931F93DF93CF93CDB7E3
:104EA000DEB728970FB6F894DEBF0FBECDBF9C01CA
:104EB0008091A20A992787FD90958217930740F465
:104EC000CC24DD24760180E090E0A0E0B0E015C0C5
:104ED000890104511E4F83E0000F111F8A95E1F7ED
:104EE000C80136DCAC01CB01DA016C017D01C801DF
:104EF00004962EDCAC01CB01DA01C982DA82EB82A6
:104F0000FC828D839E83AF83B8872C2D3A814B81A1
:104F10005C81682F7E818F81988528960FB6F894E2
:104F2000DEBF0FBECDBFCF91DF911F910F91FF90DC
:104F3000EF90DF90CF9008952091090B30910A0BEC
:104F40008091150B9091160B281B390B25363105D6
:104F50001CF08AE080930B0F2C593F4F1CF486EF16
:104F600080930B0F80910B0F18161CF481508093C7
:104F70000B0F80910B0F87FF03C08F5F80930B0F88
:104F800080910B0F813019F08F3F09F080E0089578
:104F9000AF92BF92CF92DF92EF92FF920F931F9347
:104FA000CF93DF93EC015A016B018E81882351F47A
:104FB000CB01BA010F94FE3A6F83788789879A876D
:104FC00081E08E83EA80FB800C811D81C601B501E2
:104FD0000F94FE3A9B01AC01C801B7010F94E63C67
:104FE0005B016C0160E070E080E89FE3A80197013D
:104FF0000F947E392F81388549855A850F94E63C78
:105000009B01AC01C601B5010F947F396F8378878E
:1050100089879A870F94CB3A9B01AC01CA01DF9133
:10502000CF911F910F91FF90EF90DF90CF90BF90A5
:10503000AF900895FC01168208950F931F938C0181
:10504000CB01BA010F94FE3AF8016783708781871C
:10505000928781E086831F910F910895BF92CF922E
:10506000DF92EF92FF920F931F93CF93DF93EC01A8
:105070008A89E82FF0E0EE0FFF1FEE0FFF1FEC0F05
:10508000FD1F42835383648375838F5F8A8B8430D3
:1050900008F01A8A8B898F5F8B8B8150843010F0D7
:1050A00084E08B8B6E010F2EF0E0EF2EF0E0FF2EF0
:1050B000F0E00F2FF0E01F2FF02DBB24F6016281EE
:1050C0007381848195810F94FE3A9B01AC01C801E4
:1050D000B7010F947F397B018C01B39484E090E099
:1050E000C80ED91E94E0B91649F76B8970E088277D
:1050F00077FD8095982F0F94FE3A9B01AC01C80173
:10510000B7010F94633A0F94CB3A9B01AC01CA01EB
:10511000DF91CF911F910F91FF90EF90DF90CF9093
:10512000BF900895FC0112821382148215821682A8
:1051300017821086118612861386148615861686A7
:105140001786108A118A128A138A089584E00895B6
:10515000FF920F931F93CF93DF93EC01142F052F32
:10516000F62E2E8DE22FF0E0EE0FFF1FEE0FFF1F49
:10517000E80FF91F812F902FAF2DB72F82839383D4
:10518000A483B5832F5F2E8F273008F01E8E212F2A
:10519000302F4F2D572FB901CA01DF91CF911F91A9
:1051A0000F91FF90089587E00895853021F18630B2
:1051B00038F48130B1F0813078F08230A9F516C032
:1051C0008A3019F18B3018F4863071F519C08B30A4
:1051D00009F18C3049F523C08AE796E061E474E177
:1051E00027C08AE796E06AE374E122C08AE796E086
:1051F00060E374E11DC08AE796E06AE274E118C0DA
:105200008AE796E064E274E113C08AE796E06FE112
:1052100074E10EC08AE796E06BE174E109C08AE7A9
:1052200096E064E174E104C08AE796E060E174E12D
:105230000C941EA6EF92FF920F931F937A018B019D
:105240008331C9F1843174F48230C9F0833024F49D
:10525000813009F051C01AC08430F9F0893009F06A
:105260004BC022C0893399F18A3324F4863209F085
:1052700043C027C08F3689F18337F1F536C000E689
:10528000E02E09E0F02E012D112D3CC010EBE12E97
:1052900014E0F12E012D112D35C0B0ECEB2EB2E152
:1052A000FB2E012D112D2EC0A0E8EA2EA5E2FA2E2C
:1052B000012D112D27C0E12CFBE4FF2E012D112D16
:1052C00021C0E12CE6E9FE2E012D112D1BC0E12CA1
:1052D00071EEF72E012D112D15C06CEFE62E61EB4E
:1052E000F62E61E0062F112D0DC0E12C52ECF52EAB
:1052F00051E0052F112D06C08AE796E06CEF73E2AE
:105300000E941EA6B701C8011F910F91FF90EF9058
:1053100008952AE736E0882349F000D00F92EDB7D0
:10532000FEB73283218389E590E108C000D00F9257
:10533000EDB7FEB73283218385E590E194838383C3
:105340000E94FEA58AE796E0EDB7FEB792838183BF
:105350008EE490E1948383830E94FEA50F900F90CA
:105360000F900F90089500D00F928AE796E0EDB766
:10537000FEB7928381838AEB90E1948383830E94BA
:10538000FEA50F900F900F900F90089500D00F92F0
:105390008AE796E0EDB7FEB79283818380EF94E1D0
:1053A000948383830E94FEA50F900F900F900F901F
:1053B00080E0089500D00F928AE796E0EDB7FEB73F
:1053C0009283818387EB96E1948383830E94FEA579
:1053D00080E090E00F900F900F900F90F999FECF22
:1053E0001FBA92BD81BD10BC0FB6F894FA9AF99A13
:1053F0000FBE0196F0E180309F0781F700D00F9239
:105400008AE796E0EDB7FEB79283818381EB96E160
:10541000948383830E94FEA50F900F900F900F90AE
:1054200008950F931F938DB79EB70A970FB6F89400
:105430009EBF0FBE8DBFEDB7FEB731960AE716E0EF
:10544000ADB7BEB712961C930E93119780E697E105
:10545000938382838091130B9091140B95838483A3
:105460008091150B9091160B978386838091170B73
:105470009091180B918780870E94FEA5EDB7FEB72B
:105480003196ADB7BEB712961C930E9311978DE46B
:1054900097E1938382838091350B9091360B9583AE
:1054A00084838091370B9091380B9783868380910A
:1054B000390B90913A0B918780870E94FEA5EDB73A
:1054C000FEB73196ADB7BEB712961C930E931197E7
:1054D0008AE397E1938382838091570B9091580BD5
:1054E000958384838091590B90915A0B978386837F
:1054F00080915B0B90915C0B918780870E94FEA549
:10550000EDB7FEB73196ADB7BEB712961C930E93AA
:10551000119787E297E1938382838091790B909131
:105520007A0B9583848380917B0B90917C0B97837E
:10553000868380917D0B90917E0B918780870E945E
:10554000FEA5EDB7FEB73196ADB7BEB712961C9368
:105550000E93119784E197E19383828380919B0B53
:1055600090919C0B9583848380919D0B90919E0BD1
:105570009783868380919F0B9091A00B9187808762
:105580000E94FEA5EDB7FEB73196ADB7BEB7129635
:105590001C930E93119781E097E19383828380910E
:1055A000BE0B9091BF0B958384838091C00B90912B
:1055B000C10B978386838091C20B9091C30B918717
:1055C00080870E94FEA5EDB7FEB73196ADB7BEB796
:1055D00012961C930E9311978EEE96E1938382831D
:1055E0008091E10B9091E20B958384838091E30B92
:1055F0009091E40B978386838091E50B9091E60B65
:10560000918780870E94FEA5EDB7FEB73196ADB7B2
:10561000BEB712961C930E9311978BED96E1938370
:1056200082838091040C9091050C958384838091F2
:10563000060C9091070C978386838091080C9091BB
:10564000090C918780870E94FEA58DB79EB70A96A8
:105650000FB6F8949EBF0FBE8DBF1F910F91089596
:10566000CF93DF939C018DB79EB744970FB6F89404
:105670009EBF0FBE8DBFEDB7FEB731968AE796E0AD
:10568000ADB7BEB712969C938E93119781E498E1C3
:1056900093838283E90188819981AA81BB81848374
:1056A0009583A683B7838C819D81AE81BF818087DE
:1056B0009187A287B38788859985AA85BB858487CA
:1056C0009587A687B7878C859D85AA2797FDA09586
:1056D000BA2F808B918BA28BB38B0E94FEA58DB7C6
:1056E0009EB744960FB6F8949EBF0FBE8DBFDF9154
:1056F000CF9108951F93162F00D000D0EDB7FEB7BD
:1057000031962AE736E0ADB7BEB712963C932E939A
:1057100011972FEE38E133832283848315820E9410
:10572000FEA58DB79EB706960FB6F8949EBF0FBE26
:105730008DBF812F3ADD1F9108958DB79EB7409799
:105740000FB6F8949EBF0FBE8DBFEDB7FEB7319672
:105750008AE796E0ADB7BEB712969C938E931197E9
:105760008DEF98E1938382838091BD079091BE076E
:10577000A091BF07B091C00784839583A683B783A8
:105780008091C1079091C207A091C307B091C4074F
:1057900080879187A287B3878091C5079091C607BC
:1057A000A091C707B091C80784879587A687B78758
:1057B0000E94FEA58DB79EB740960FB6F8949EBF87
:1057C0000FBE8DBF08958DB79EB740970FB6F89462
:1057D0009EBF0FBE8DBFEDB7FEB731968AE796E04C
:1057E000ADB7BEB712969C938E93119780E299E164
:1057F000938382838091C9079091CA07A091CB07B8
:10580000B091CC0784839583A683B7838091CD071D
:105810009091CE07A091CF07B091D0078087918754
:10582000A287B3878091D1079091D207A091D30727
:10583000B091D40784879587A687B7870E94FEA575
:105840008DB79EB740960FB6F8949EBF0FBE8DBF22
:10585000089500D00F928AE796E0EDB7FEB79283E5
:10586000818384E49AE1948383830E94FEA50F9050
:105870000F900F900F900895CF93DF93CAE7D6E073
:10588000CE016CEA7FE00E941EA684EE96E00E94A4
:105890003CDA882331F4CE0161E97FE00E941EA644
:1058A00083C084EE96E00E94C7DB2DB73EB7285038
:1058B00030400FB6F8943EBF0FBE2DBFEDB7FEB718
:1058C0003196ADB7BEB71296DC93CE9311978AE6A8
:1058D0009FE0938382838091F50684831582809173
:1058E000F6069091F706978386830E94FEA5EDB792
:1058F000FEB73196ADB7BEB71296DC93CE93119733
:105900008EE49FE0938382838091FA069091FB0658
:105910000196958384838091F8069091F906978388
:1059200086830E94FEA52DB73EB7285F3F4F0FB676
:10593000F8943EBF0FBE2DBF6091FA067091FB0632
:105940006F5F7F4F84EE96E00E9404D684EE96E06F
:105950000E9414D7ADB7BEB71C970FB6F894BEBF60
:105960000FBEADBFEDB7FEB731961296DC93CE9366
:1059700011972BE13FE03383228364837583868311
:10598000978381E190E2A2E1B8E280879187A287C4
:10599000B3870E94FEA52DB73EB7245F3F4F0FB6D9
:1059A000F8943EBF0FBE2DBF80E0DF91CF910895E8
:1059B0000F931F93CF93DF938AEB97E060E070E043
:1059C00045E15BE12BEA34E301E419E00F94290A95
:1059D00085EF97E060E00F947113C5DC68EE73E02B
:1059E00080E090E00F940E34C6EAD1E10AE716E0B9
:1059F00064E170E080E090E00F940E340F94DA33AD
:105A00002091960E3091970E4091980E5091990EDC
:105A1000621B730B840B950B643171058105910535
:105A200008F4BCC00F94DA332091960E621B609389
:105A30009A0E70E080E090E00F94FC3A20E030E0B5
:105A40004AE754E40F94633A609347037093480322
:105A50008093490390934A030F94DA336093960E30
:105A60007093970E8093980E9093990E85EF97E020
:105A70000F947E238091EE0A882369F080919B0E1B
:105A80008F5F80939B0E853031F483EA9DE00E9406
:105A900084ED10929B0E8DB79EB782970FB6F89447
:105AA0009EBF0FBE8DBFEDB7FEB73196ADB7BEB787
:105AB00012961C930E931197D383C283809103088F
:105AC0009091040864E670E00F94EA3D7583648366
:105AD000809107089091080864E670E00F94EA3D11
